:100785004100170141001F0E4100190342001D31B0
:10079500104200053501420036350443000034039C
:1007A5000143001A420201420009350342000735A0
:1007B5000241001410410018114400327E0200EF7E
:1007C5004600207E043E0000EF49000B7E0310002A
:0F07D500EF7E0200EF4200150001420003FFFF1C
:10000600E4FDFCC3ED9FEE6480F8EC648098501C20
:10001600E4FBFAC3EB94D9EA6480948250070BEBB5
:0C00260070010A80EE0DED70010C80D717
:0100320022AB
:100AC700E4FDFCC3ED9FEE6480F8EC648098501C55
:100AD700E4FBFAC3EB9448EA6480948050070BEB7D
:0C0AE70070010A80EE0DED70010C80D74C
:010AF30022E0
:10071900E4900047F0A3F0A3F0A374FAF02098172F
:1007290090004974FFF5F012006B45F060097F01F4
:100739007E00120AC780E630983A120033900047CB
:10074900E475F00112006BFC742625F0F582740043
:100759003CF583EFF0900049741FF0A37440F0203A
:1007690098D590004974FFF5F012006B45F060C709
:0B07790080ED80C3900047E0A3E0FF8C
:010784002252
:0B044C00900047EBF0A3EAF0A3E9F0FA
:10045700E4A3F0FF90005AF0A3F090004AE0FE04F6
:10046700F0744B2EF582E43400F583747EF0ED04CE
:10047700FE90004AE0FC04F0744B2CF582E4340053
:10048700F583EEF0EFC39D502A900047E0FBA3E011
:10049700FAA3E0F98F8275830012003EFE90004AAE
:1004A700E0FC04F0744B2CF582E43400F583EEF0A5
:1004B7000F80D190004AE0244BF582E43400F583A5
:1004C70074EFF090004AE0FFD390005BE09F7480E8
:1004D700F890005AE0648098501AE475F001120011
:1004E7006BFE744B25F0F58274003EF583E0FF1236
:0404F7000AF480CFB4
:0104FB0022DE
:0E029C0090003CEBF0A3EAF0A3E9F0A3EDF034
:1002AA00E4A3F0A3F0A37403F0900040E07002A36B
:1002BA00E06003020375900042E0FF14F0EF700360
:1002CA0002037590003CE0FBA3E0FAA3E0F9A3E087
:1002DA00FD12044C120719900043E4F0A3EFF0E476
:1002EA00A3F0A3F0900044E024FDFF900043E03423
:1002FA00FFFEC3900046E09FEE6480F8900045E060
:10030A0064809850A4E0FEA3E02426F58274003E9F
:10031A00F583E0647E7043900045E0A3E02427F56E
:10032A008274003EF583E0B40230900045E0A3E019
:10033A002428F58274003EF583E0701E900045E0A3
:10034A00A3E02429F58274003EF583E0B4EF0B9014
:10035A000040E4F0A304F00202B3900046E004F087
:0B036A007006900045E004F00202EE77
:010375002265
:0503760090003CEFF0D7
:10037B00E4A3F0A3F0A37403F090003CE090001E04
:10038B00F090003DE07002A3E0600302044B90008C
:10039B003FE0FF14F0EF700302044B7B017A00790E
:1003AB001D7D0212044C7F0D7E001200067B017A2C
:1003BB000079187D0112044C120719900040E4F0EB
:1003CB00A3EFF0E4A3F0A3F0900041E024FDFF9035
:1003DB000040E034FFFEC3900043E09FEE6480F8E2
:1003EB00900042E06480985098E0FEA3E02426F54C
:1003FB008274003EF583E0B47E36900042E0A3E0C9
:10040B002428F58274003EF583E0B411239000425A
:10041B00E0A3E02429F58274003EF583E0FF900011
:10042B003CE0FEEFB50609A3E4F0A304F002038C55
:10043B00900043E004F07006900042E004F08088E6
:01044B00228E
:100A9000900015E07002A3E0701153E97F53EA7FE4
:100AA00043EB80900015F0A304F022900015E07055
:100AB00004A3E06401700F53E97F43EA8053EB7FA6
:070AC000900015F0A3F022E5
:03003B0002059625
:10059600C0E0C083C082C0D075D000C000C002C019
:1005A60003C004C005C006C007E5EC64807054F5BE
:1005B600EC7F0FFE120006900015E07002A3E070BB
:1005C6001B20971843E98053EA7F43EB8090001580
:1005D600F0A304F0900003E4F0A304F0900015E00B
:1005E6007004A3E06401701830971543E98043EA6C
:1005F6008053EB7F900015F0A3F0900003F0A3F07A
:100606005387FDD007D006D005D004D003D002D042
:0A06160000D0D0D082D083D0E032B3
:03000300020A1AD4
:100A1A00C0E0C0F0C083C082C0D075D000C000C0A2
:100A2A0001C002C003C004C005C006C0077FAA12E5
:100A3A000AF4D007D006D005D004D003D002D001E2
:0D0A4A00D000D0D0D082D083D0F0D0E032E8
:10017F0090003AE4F0A304F0E4F5B1F5B1F5B3F56E
:10018F00B4F5ACF5AD7F807E25FDFC120A57438E8A
:10019F00027F327E0012000643B38053B47FA2AFBA
:1001AF00920075C7AA75C75575910143B18075C780
:1001BF00AA75C755E4F591A20092AF43E90143E94F
:1001CF008043EA8053EB7F900015F0A3F043AC011E
:1001DF0053ADFE43E90443EA0153EBFE439B02D2C6
:1001EF00A8D2AFA29733FF900038EEF0A3EFF07FC5
:1001FF000F7E00120006A297E433FF120AF4A297B3
:10020F00E4FF33900038CFF0A3EFF074FF900003BA
:10021F00F0A3F0438702900003E07004A3E06401B1
:10022F00701890001B04F0E4A3F07B017A00791A98
:10023F007D0312029C7F28120376900003E0700268
:10024F00A3E070AB90001B04F090003AE0A3E090A5
:10025F00001CF090003B04F0700690003AE004F0B0
:10026F007B017A00791A7D0312029C7F2812037694
:10027F00D390003BE0940C90003AE064809480505F
:0C028F00030201FEE4F0A304F00201FEF3
:01029B002240
:1009030090005C120173538EF7438901D28CE4FF8C
:10091300FEFDFC90005CE0F8A3E0F9A3E0FAA3E09D
:10092300FBC312014F6033758A7E758CFF308DFDDA
:10093300C28D90005CE0FCA3E0FDA3E0FEA3E0FF1A
:1009430074FFEF24FFFFEE34FFFEED34FFFDEC34C4
:0D095300FFFC90005C12017380B4C28C2286
:10096000900060120173538EF7438901D28CE4FF2B
:10097000FEFDFC900060E0F8A3E0F9A3E0FAA3E03C
:10098000FBC312014F6033758ACA758CFA308DFD36
:10099000C28D900060E0FCA3E0FDA3E0FEA3E0FFB9
:1009A00074FFEF24FFFFEE34FFFEED34FFFDEC3467
:0D09B000FFFC90006012017380B4C28C2225
:1009BD00900064120173538EEF438910D28EE4FFC1
:1009CD00FEFDFC900064E0F8A3E0F9A3E0FAA3E0DB
:1009DD00FBC312014F6033758BEA758DCB308FFDE4
:1009ED00C28F900064E0FCA3E0FDA3E0FEA3E0FF56
:1009FD0074FFEF24FFFFEE34FFFEED34FFFDEC340A
:0D0A0D00FFFC90006412017380B4C28E22C1
:1007E50090006812017353C9BF53C9DF43C910D2C2
:1007F500CAE4FFFEFDFC900068E0F8A3E0F9A3E081
:10080500FAA3E0FBC312014F603375CC3075CDF808
:1008150030CFFDC2CF900068E0FCA3E0FDA3E0FE71
:10082500A3E0FF74FFEF24FFFFEE34FFFEED34FF7E
:10083500FDEC34FFFC90006812017380B4C2CA223B
:1008450090006C12017375C40743C408E4FFFEFDF4
:10085500FC90006CE0F8A3E0F9A3E0FAA3E0FBC389
:1008650012014F603675C52C75C6CFE5C430E4FB63
:1008750053C4EF90006CE0FCA3E0FDA3E0FEA3E011
:10088500FF74FFEF24FFFFEE34FFFEED34FFFDECB8
:0F08950034FFFC90006C12017380B153C4F72242
:1008A40090007012017375C40743C408E4FFFEFD91
:1008B400FC900070E0F8A3E0F9A3E0FAA3E0FBC326
:1008C40012014F603675C5D875C6FFE5C430E4FB28
:1008D40053C4EF900070E0FCA3E0FDA3E0FEA3E0AE
:1008E400FF74FFEF24FFFFEE34FFFEED34FFFDEC59
:0F08F40034FFFC90007012017380B153C4F722DF
:100A570053B1BF53B2BF53B17F53B27F7598504361
:100A67008920438780438E1053C4DFAB07AA06A9AA
:100A770005A8047F407E427D0F7C001200BDEF0475
:090A8700F404F58DD28ED29922FF
:1006200090007412017353B1BF53B2BF53B17F53E3
:10063000B27F75985043878053C4F843C42090001C
:1006400074E0F8A3E0F9A3E0FAA3E0FB7F407E4268
:100650007D0F7C001200BDC374FF9FFF74FF9EFEE0
:10066000E49DFDE49CFC78081201608FC690007444
:10067000E0F8A3E0F9A3E0FAA3E0FB7F407E427D2F
:100680000F7C001200BDC374FF9FFF74FF9EFEE449
:0F0690009DFDE49CFCEFE48FC543C408D2992282
:070033003098FDAF99C2985F
:01003A0022A3
:080AF400C2998F993099FD228F
:10069F0090007812017353B1FB53B2FB53B3BF53A6
:1006AF00B4BF75F85075C40853C4DF900078E0F8F4
:1006BF00A3E0F9A3E0FAA3E0FB7F407E427D0F7C2D
:1006CF00001200BDC374FF9FFF74FF9EFEE49DFDEB
:1006DF00E49CFC78081201608FC6900078E0F8A3C4
:1006EF00E0F9A3E0FAA3E0FB7F407E427D0F7C00A0
:1006FF001200BDC374FF9FFF74FF9EFEE49DFDE4D7
:0A070F009CFCEFE48FC543C40822F0
:070AFC0030F8FDAF9AC2F8CB
:010B030022CF
:080B0400C2F98F9A30F9FD22BD
:030000000204FCFB
:1004FC00787FE4F6D8FD9000007FFF7E03E4F0A344
:0A050C00DFFCDEFA758120020551C4
:1005160002017FE493A3F8E493A34003F68001F27B
:1005260008DFF48029E493A3F85407240CC8C333E6
:10053600C4540F4420C8834004F456800146F6DFB5
:10054600E4800B0102040810204080900785E47EB9
:10055600019360BCA3FF543F30E509541FFEE493AA
:10056600A360010ECF54C025E060A840B8E493A371
:10057600FAE493A3F8E493A3C8C582C8CAC583CA9C
:10058600F0A3C8C582C8CAC583CADFE9DEE780BE54
:0107E4000014
:10003E00BB010CE58229F582E5833AF583E0225077
:10004E0006E92582F8E622BBFE06E92582F8E222C1
:0D005E00E58229F582E5833AF583E49322DB
:10006B00A3F8E0C5F025F0F0E58215827002158348
:06007B00E0C838F0E822A5
:1000810075F008758200EF2FFFEE33FECD33CDCC36
:1000910033CCC58233C5829BED9AEC99E5829840B9
:1000A1000CF582EE9BFEED9AFDEC99FC0FD5F0D696
:1000B100E4CEFBE4CDFAE4CCF9A88222B800C1B9C0
:1000C1000059BA002DEC8BF084CFCECDFCE5F0CBFE
:1000D100F97818EF2FFFEE33FEED33FDEC33FCEB37
:1000E10033FB10D703994004EB99FB0FD8E5E4F9F2
:1000F100FA227818EF2FFFEE33FEED33FDEC33FCDF
:10010100C933C910D7059BE99A4007EC9BFCE99AD2
:10011100F90FD8E0E4C9FAE4CCFB2275F010EF2F17
:10012100FFEE33FEED33FDCC33CCC833C810D70717
:100131009BEC9AE899400AED9BFDEC9AFCE899F852
:0E0141000FD5F0DAE4CDFBE4CCFAE4C8F922E5
:10014F00EB9FF5F0EA9E42F0E99D42F0E89C45F006
:01015F00227D
:10016000E8600FECC313FCED13FDEE13FEEF13FF7D
:03017000D8F122A1
:0C017300ECF0A3EDF0A3EEF0A3EFF022FF
:00000001FF
