:1007FA0041001B014100230E41001D03420021312B
:10080A0010420005350142003C3504430000410016
:10081A000143001E42010142000935034200073527
:10082A00024100141041001C1141004018440038D4
:10083A007E0200EF4600267E043E0000EF49000BD0
:10084A007E031000EF7E0200EF4200190001420011
:10085A0003FFFF440015000000004200240000428C
:04086A00003E00004C
:10000E00E4FDFCC3ED9FEE6480F8EC648098501C18
:10001E00E4FBFAC3EB94D9EA6480948250070BEBAD
:0C002E0070010A80EE0DED70010C80D70F
:01003A0022A3
:100C8E00E4FDFCC3ED9FEE6480F8EC648098501C8C
:100C9E00E4FBFAC3EB9448EA6480948050070BEBB4
:0C0CAE0070010A80EE0DED70010C80D783
:010CBA002217
:10086F00E4900052F0A3F0A3F0A374FAF0209817CD
:10087F0090005474FFF5F012006B45F060097F0192
:10088F007E00120C8E80E630983A120003900052D0
:10089F00E475F00112006BFC742C25F0F5827400E6
:1008AF003CF583EFF0900054741FF0A37440F020D8
:1008BF0098D590005474FFF5F012006B45F060C7A7
:0B08CF0080ED80C3900052E0A3E0FF2A
:0108DA0022FB
:0B04B100900052EBF0A3EAF0A3E9F08A
:1004BC00E4A3F0FF900065F0A3F0900055E0FE047B
:1004CC00F074562EF582E43400F583747EF0ED045E
:1004DC00FE900055E0FC04F074562CF582E43400D8
:1004EC00F583EEF0EFC39D502A900052E0FBA3E0A1
:1004FC00FAA3E0F98F8275830012003EFE9000553E
:10050C00E0FC04F074562CF582E43400F583EEF034
:10051C000F80D1900055E02456F582E43400F58329
:10052C0074EFF0900055E0FFD3900066E09F74806C
:10053C00F8900065E0648098501AE475F0011200A0
:10054C006BFE745625F0F58274003EF583E0FF12C5
:04055C000CCD80CF73
:010560002278
:0E02F500900047EBF0A3EAF0A3E9F0A3EDF0D0
:10030300E4A3F0A3F0A37402F090004BE07002A307
:10031300E060030203D090004DE0FF14F0EF7003A0
:100323000203D0900047E0FBA3E0FAA3E0F9A3E0C7
:10033300FD1204B112086F90004EE4F0A3EFF0E455
:10034300A3F0A3F090004FE024FDFF90004EE034B3
:10035300FFFEC3900051E09FEE6480F8900050E0F0
:1003630064809850A4E0FEA3E0242CF58274003E40
:10037300F583E0647E7045900050E0A3E0242DF502
:100383008274003EF583E064027031900050E0A374
:10039300E0242EF58274003EF583E0701F90005038
:1003A300E0A3E0242FF58274003EF583E0B4EF0C64
:1003B30090004BE4F0A304F0E4FEFF22900051E030
:1003C30004F07006900050E004F00203477EFF7FC4
:0103D300FF2A
:0103D4002206
:100706009000457402F0900045E0FF14F0EF60653C
:100716007B017A0079147D011204B112086FAD07CE
:100726007C00E4FBFAED24FDFFEC34FFFEC3EB9FF7
:10073600EE6480F8EA6480985032742C2BF582744B
:10074600003AF583E0B47E1D742E2BF58274003AD0
:10075600F583E0B4100F742F2BF58274003AF583FD
:10076600E0FF7E00220BEB70010A80B97F147E0049
:0907760012000E80917EFF7FFF4E
:01077F002257
:0503D500900049EFF06B
:1003DA00E4A3F0A3F0A37403F0900049E090002294
:1003EA00F090004AE07002A3E060030204AC9000BF
:1003FA004CE0FF14F0EF70030204AC7B017A007941
:10040A00217D021204B17F0D7E0012000E7B017A5B
:10041A0000791C7D011204B112086F90004DE4F0BE
:10042A00A3EFF0E4A3F0A3F090004EE024FDFF90C8
:10043A00004DE034FFFEC3900050E09FEE6480F868
:10044A0090004FE06480985098E0FEA3E0242CF5D9
:10045A008274003EF583E0647E703790004FE0A31B
:10046A00E0242EF58274003EF583E0B41124900056
:10047A004FE0A3E0242FF58274003EF583E0FF905D
:10048A000049E0FEEFB5060AA3E4F0A304F0E4FE97
:10049A00FF22900050E004F0700690004FE004F054
:0604AA0080867EFF7FFF4B
:0104B0002229
:03003B000205FBC0
:1005FB00C0E0C083C082C0D075D000C000C002C0B4
:10060B0003C004C005C006C007E5EC64807056F556
:10061B00EC7F0FFE12000E900019E07002A3E07049
:10062B001D20971A43E98053EA7F43EB8090001912
:10063B00F0A304F0900003E4F0A304F080249000F6
:10064B0019E07004A3E06401701830971543E9803A
:10065B0043EA8053EB7F900019F0A3F0900003F076
:10066B00A3F05387FDD007D006D005D004D003D01C
:0C067B0002D000D0D0D082D083D0E0327A
:03000B00020B776E
:100B7700C0E0C0F0C083C082C0D075D000C000C044
:100B870004C005C006C007C28DC28C758AA8758CC3
:100B97002FD28C900015E0FCA3E0FDA3E0FEA3E0BC
:100BA7002428FFE43EFEE43DFDE43CFC90001512E2
:100BB7000173D007D006D005D004D000D0D0D082A2
:070BC700D083D0F0D0E03232
:100CBB00C28C90001512017F00000000438702D206
:020CCB008C2279
:040CE500438701221E
:100BCE00900045E4F0A37419F074FFA3F0A3F09025
:100BDE00004574FFF5F012006B45F060229000475F
:100BEE00E0B4FF1BA3E0B4FF167F147E0012000ECC
:100BFE007F0F1203D5900047EEF0A3EFF080D07F69
:060C0E006E7E0012000ED4
:010C140022BD
:1008DB009000877402F07B017A0079407D0112044D
:1008EB00B112086FAD077C00E4FBFAED24FDFFECC1
:1008FB0034FFFEC3EB9FEE6480F8EA6480985032BD
:10090B00742C2BF58274003AF583E0B47E1D742EA3
:10091B002BF58274003AF583E0B4180F742F2BF586
:10092B008274003AF583E0FF7E00220BEB70010A24
:06093B0080B97EFF7FFF82
:010941002293
:100C1500900045EEF0A3EFF0900045E07004A3E0EE
:100C25006402700D7B017A0079057D021202F58060
:100C350017900045E07004A3E06403700B7B017A14
:100C450000793C7D021202F57F967E0012000E228D
:1001B000900041E4F0A304F074FFA3F0A3F0E4F591
:1001C000B1F5B1F5B3F5B4F5ACF5AD7F807E25FDA5
:1001D000FC120C55438E02120BCE7F0A1203D57B04
:1001E000017A0079057D021202F57F0A7E00120075
:1001F0000E90001F7401F0A3F0FB7A0079007D03DC
:100200001202F57FD07E0712000E7B017A00793C46
:100210007D021202F57F0A7E0012000E90001F740C
:1002200001F0E4A3F07B017A0079007D031202F56E
:100230007FD07E0712000E80A674FF900003F0A30B
:10024000F0120706900043EEF0A3EFF0900024E0D8
:100250007002A3E06014900043E07004A3E0640126
:1002600070087F32FE12000E803C90003EE070026B
:10027000A3E060287F027E00120C157B017A0079D2
:100280001E7D031202F57F0A7E0012000EE490002C
:100290003EF0A3F0900024F0A3F0800AE490002444
:1002A000F0A3F0438702900003E07004A3E0640130
:1002B00070237F03FE120C15E490001FF0A304F0DE
:1002C000FB7A00791E7D031202F5900024E4F0A36E
:1002D00004F0020239900003E07002A3E060030220
:1002E000023990001FF0A304F090003EE4F0A30454
:0402F000F0020239DD
:0102F40022E7
:100A6000900067120173538EF7438901D28CE4FF23
:100A7000FEFDFC900067E0F8A3E0F9A3E0FAA3E034
:100A8000FBC312014F6033758A7E758CFF308DFD7C
:100A9000C28D900067E0FCA3E0FDA3E0FEA3E0FFB1
:100AA00074FFEF24FFFFEE34FFFEED34FFFDEC3466
:0D0AB000FFFC90006712017380B4C28C221D
:100ABD0090006B120173538EF7438901D28CE4FFC2
:100ACD00FEFDFC90006BE0F8A3E0F9A3E0FAA3E0D3
:100ADD00FBC312014F6033758ACA758CFA308DFDD8
:100AED00C28D90006BE0FCA3E0FDA3E0FEA3E0FF50
:100AFD0074FFEF24FFFFEE34FFFEED34FFFDEC3409
:0D0B0D00FFFC90006B12017380B4C28C22BB
:100B1A0090006F120173538EEF438910D28EE4FF57
:100B2A00FEFDFC90006FE0F8A3E0F9A3E0FAA3E071
:100B3A00FBC312014F6033758BEA758DCB308FFD85
:100B4A00C28F90006FE0FCA3E0FDA3E0FEA3E0FFEC
:100B5A0074FFEF24FFFFEE34FFFEED34FFFDEC34AB
:0D0B6A00FFFC90006F12017380B4C28E2258
:1009420090007312017353C9BF53C9DF43C910D258
:10095200CAE4FFFEFDFC900073E0F8A3E0F9A3E017
:10096200FAA3E0FBC312014F603375CC3075CDF8AA
:1009720030CFFDC2CF900073E0FCA3E0FDA3E0FE08
:10098200A3E0FF74FFEF24FFFFEE34FFFEED34FF20
:10099200FDEC34FFFC90007312017380B4C2CA22D2
:1009A20090007712017375C40743C408E4FFFEFD8B
:1009B200FC900077E0F8A3E0F9A3E0FAA3E0FBC320
:1009C20012014F603675C52C75C6CFE5C430E4FB05
:1009D20053C4EF900077E0FCA3E0FDA3E0FEA3E0A8
:1009E200FF74FFEF24FFFFEE34FFFEED34FFFDEC5A
:0F09F20034FFFC90007712017380B153C4F722D9
:100A010090007B12017375C40743C408E4FFFEFD27
:100A1100FC90007BE0F8A3E0F9A3E0FAA3E0FBC3BC
:100A210012014F603675C5D875C6FFE5C430E4FBC9
:100A310053C4EF90007BE0FCA3E0FDA3E0FEA3E044
:100A4100FF74FFEF24FFFFEE34FFFEED34FFFDECFA
:0F0A510034FFFC90007B12017380B153C4F72275
:100C550053B1BF53B2BF53B17F53B27F7598504361
:100C65008920438780438E1053C4DFAB07AA06A9AA
:100C750005A8047F407E427D0F7C001200BDEF0475
:090C8500F404F58DD28ED29922FF
:1006870090007F12017353B1BF53B2BF53B17F5371
:10069700B27F75985043878053C4F843C4209000B5
:1006A7007FE0F8A3E0F9A3E0FAA3E0FB7F407E42F6
:1006B7007D0F7C001200BDC374FF9FFF74FF9EFE79
:1006C700E49DFDE49CFC78081201608FC690007FD2
:1006D700E0F8A3E0F9A3E0FAA3E0FB7F407E427DC8
:1006E7000F7C001200BDC374FF9FFF74FF9EFEE4E2
:0F06F7009DFDE49CFCEFE48FC543C408D299221B
:070003003098FDAF99C2988F
:01000A0022D3
:080CCD00C2998F993099FD22B4
:1007800090008312017353B1FB53B2FB53B3BF53B9
:10079000B4BF75F85075C40853C4DF900083E0F807
:1007A000A3E0F9A3E0FAA3E0FB7F407E427D0F7C4B
:1007B000001200BDC374FF9FFF74FF9EFEE49DFD09
:1007C000E49CFC78081201608FC6900083E0F8A3D7
:1007D000E0F9A3E0FAA3E0FB7F407E427D0F7C00BE
:1007E0001200BDC374FF9FFF74FF9EFEE49DFDE4F5
:0A07F0009CFCEFE48FC543C408220F
:070CD50030F8FDAF9AC2F8F0
:010CDC0022F5
:080CDD00C2F98F9A30F9FD22E3
:0300000002056195
:10056100787FE4F6D8FD9000007FFF7E03E4F0A3DE
:0A057100DFFCDEFA7581200205B6FA
:10057B000201B0E493A3F8E493A34003F68001F2E5
:10058B0008DFF48029E493A3F85407240CC8C33381
:10059B00C4540F4420C8834004F456800146F6DF50
:1005AB00E4800B01020408102040809007FAE47EDF
:1005BB00019360BCA3FF543F30E509541FFEE49345
:1005CB00A360010ECF54C025E060A840B8E493A30C
:1005DB00FAE493A3F8E493A3C8C582C8CAC583CA37
:1005EB00F0A3C8C582C8CAC583CADFE9DEE780BEEF
:01086E000089
:10003E00BB010CE58229F582E5833AF583E0225077
:10004E0006E92582F8E622BBFE06E92582F8E222C1
:0D005E00E58229F582E5833AF583E49322DB
:10006B00A3F8E0C5F025F0F0E58215827002158348
:06007B00E0C838F0E822A5
:1000810075F008758200EF2FFFEE33FECD33CDCC36
:1000910033CCC58233C5829BED9AEC99E5829840B9
:1000A1000CF582EE9BFEED9AFDEC99FC0FD5F0D696
:1000B100E4CEFBE4CDFAE4CCF9A88222B800C1B9C0
:1000C1000059BA002DEC8BF084CFCECDFCE5F0CBFE
:1000D100F97818EF2FFFEE33FEED33FDEC33FCEB37
:1000E10033FB10D703994004EB99FB0FD8E5E4F9F2
:1000F100FA227818EF2FFFEE33FEED33FDEC33FCDF
:10010100C933C910D7059BE99A4007EC9BFCE99AD2
:10011100F90FD8E0E4C9FAE4CCFB2275F010EF2F17
:10012100FFEE33FEED33FDCC33CCC833C810D70717
:100131009BEC9AE899400AED9BFDEC9AFCE899F852
:0E0141000FD5F0DAE4CDFBE4CCFAE4C8F922E5
:10014F00EB9FF5F0EA9E42F0E99D42F0E89C45F006
:01015F00227D
:10016000E8600FECC313FCED13FDEE13FEEF13FF7D
:03017000D8F122A1
:0C017300ECF0A3EDF0A3EEF0A3EFF022FF
:10017F00A8828583F0D083D0821201961201961245
:10018F000196120196E473E493A3C583C5F0C5836A
:10019F00C8C582C8F0A3C583C5F0C583C8C582C8CA
:0101AF00222D
:00000001FF
