:1007BF00410024014100310E41002B0342002F3133
:1007CF0010420007350142004E3504430028420114
:1007DF000143005241000143000041000143002C3E
:1007EF00420101420010350342000C350241001B4B
:1007FF001041000917410027114100551844004AC4
:10080F007E0200EF4600367E043E0000EF490012E4
:10081F007E031000EF7E0200EF4200250001420030
:10082F003C00014200050001420003FFFF42000EA1
:10083F00000042003400004400200000000044008B
:10084F001C0000000042000A00014200320000427A
:04085F000050000045
:10000E00E4FDFCC3ED9FEE6480F8EC648098501C18
:10001E00E4FBFAC3EB94D9EA6480948250070BEBAD
:0C002E0070010A80EE0DED70010C80D70F
:01003A0022A3
:100E6100E4FDFCC3ED9FEE6480F8EC648098501CB7
:100E7100E4FBFAC3EB9448EA6480948050070BEBDF
:0C0E810070010A80EE0DED70010C80D7AE
:010E8D002242
:100AEB00E4900067F0A3F0A3F0A374FAF02098173A
:100AFB0090006974FFF5F012021A45F060097F014E
:100B0B007E00120E6180E630983A12000390006767
:100B1B00E475F00112021AFC743E25F0F5827400A4
:100B2B003CF583EFF0900069741FF0A37440F02044
:100B3B0098D590006974FFF5F012021A45F060C762
:0B0B4B0080ED80C3900067E0A3E0FF96
:010B5600227C
:0B066200900067EBF0A3EAF0A3E9F0C2
:10066D00E4A3F0FF90007AF0A3F090006AE0FE049E
:10067D00F0746B2EF582E43400F583747EF0ED0496
:10068D00FE90006AE0FC04F0746B2CF582E43400FB
:10069D00F583EEF0EFC39D502A900067E0FBA3E0D9
:1006AD00FAA3E0F98F827583001201EDFE90006AC6
:1006BD00E0FC04F0746B2CF582E43400F583EEF06D
:1006CD000F80D190006AE0246BF582E43400F5834D
:1006DD0074EFF090006AE0FFD390007BE09F748090
:1006ED00F890007AE0648098501AE475F0011202D7
:1006FD001AFE746B25F0F58274003EF583E0FF124F
:04070D000EC980CFC2
:0107110022C5
:0E04A60090005CEBF0A3EAF0A3E9F0A3EDF008
:1004B400E4A3F0A3F0A37402F0900060E07002A340
:1004C400E06003020581900062E0FF14F0EF700326
:1004D40002058190005CE0FBA3E0FAA3E0F9A3E04D
:1004E400FD120662120AEB900063E4F0A3EFF0E45D
:1004F400A3F0A3F0900064E024FDFF900063E034D7
:10050400FFFEC3900066E09FEE6480F8900065E013
:1005140064809850A4E0FEA3E0243EF58274003E7B
:10052400F583E0647E7045900065E0A3E0243FF528
:100534008274003EF583E064027031900065E0A3AC
:10054400E02440F58274003EF583E0701F9000655E
:10055400E0A3E02441F58274003EF583E0B4EF0C9F
:10056400900060E4F0A304F0E4FEFF22900066E053
:1005740004F07006900065E004F00204F87EFF7F4A
:01058400FF77
:010585002253
:10097D0090009C7402F090009CE0FF14F0EF606515
:10098D007B017A00791B7D01120662120AEBAD071D
:10099D007C00E4FBFAED24FDFFEC34FFFEC3EB9F7E
:1009AD00EE6480F8EA6480985032743E2BF58274C0
:1009BD00003AF583E0B47E1D74402BF58274003A45
:1009CD00F583E0B4100F74412BF58274003AF58372
:1009DD00E0FF7E00220BEB70010A80B97F147E00D0
:0909ED0012000E80917EFF7FFFD5
:0109F60022DE
:1009F70090005C7402F090005CE0FF14F0EF60651B
:100A07007B017A0079097D01120662120AEBAD07B4
:100A17007C00E4FBFAED24FCFFEC34FFFEC3EB9F04
:100A2700EE6480F8EA6480985032743E2BF5827445
:100A3700003AF583E0B47E1D74402BF58274003ACA
:100A4700F583E0B4170F74422BF58274003AF583EF
:100A5700E0FF7E00220BEB70010A80B97F147E0055
:090A670012000E80917EFF7FFF5A
:010A70002263
:100EAE007B017A0079287D031204A690002AE004C3
:0B0EBE00F0E0D3940240037401F02226
:100DDD001209F790005AEEF0A3EFF0D3E0940290D1
:100DED00005AE06480948040317B017A0079527D15
:100DFD00031204A6900054E004F090005BE024FE82
:100E0D00FF90005AE034FFFE900054E0D39FEE6453
:0A0E1D0080F874809840037401F01F
:010E270022A8
:0505860090005EEFF0A3
:10058B00E4A3F0A3F0A37403F090005EE0900030BE
:10059B00F090005FE07002A3E0600302065D900044
:1005AB0061E0FF14F0EF700302065D7B017A0079C6
:1005BB002F7D021206627F0D7E0012000E7B017AE8
:1005CB000079277D01120662120AEB900062E4F0BB
:1005DB00A3EFF0E4A3F0A3F0900063E024FDFF9001
:1005EB000062E034FFFEC3900065E09FEE6480F88C
:1005FB00900064E06480985098E0FEA3E0243EF500
:10060B008274003EF583E0647E7037900064E0A353
:10061B00E02440F58274003EF583E0B41124900091
:10062B0064E0A3E02441F58274003EF583E0FF9083
:10063B00005EE0FEEFB5060AA3E4F0A304F0E4FECF
:10064B00FF22900065E004F07006900064E004F077
:06065B0080867EFF7FFF98
:010661002276
:03003B0002035F5E
:10035F00C0E0C083C082C0D075D000C000C002C052
:10036F0003C004C005C006C007E5EC30E75875ECC4
:10037F00007F0F7E0012000E900025E07002A3E0B8
:10038F00701D20971A43E98053EA7F43EB8090005A
:10039F0025F0A304F0900003E4F0A304F080249070
:1003AF000025E07004A3E06401701830971543E94D
:1003BF008043EA8053EB7F900025F0A3F090000379
:1003CF00F0A3F05387FDE5EC30E35875EC007F02A6
:1003DF007E0012000E90003CE07002A3E0701D2022
:1003EF00931A43E92053EAF743EB0890003CF0A33C
:1003FF0004F090000EE4F0A304F0802490003CE0A1
:10040F007004A3E06401701830931543E92043EAA8
:10041F000853EBF790003CF0A3F090000EF0A3F020
:10042F005387FDE5EC30E25875EC007F0A7E001231
:10043F00000E900005E07002A3E0701D20931A4398
:10044F00E91053EAFB43EB04900005F0A304F0908E
:10045F000034E4F0A304F08024900005E07004A3BE
:10046F00E06401701830931543E91043EA0453EB2D
:10047F00FB900005F0A3F0900034F0A3F05387FD3C
:10048F00D007D006D005D004D003D002D000D0D0F2
:07049F00D082D083D0E032CF
:03000B00020712D7
:10071200C0E0C0F0C083C082C0D075D000C000C0AD
:1007220001C002C003C004C005C006C007C28DC21A
:100732008C758AA8758C2FD28C90001CE0FCA3E0EB
:10074200FDA3E0FEA3E02428FFE43EFEE43DFDE439
:100752003CFC90001C120322E47FE87E03FDFC9027
:10076200001CE0F8A3E0F9A3E0FAA3E0FBC3120245
:10077200FE402F90001C12032E000000009000206B
:10078200E0FCA3E0FDA3E0FEA3E0FFE4FAF9F8EF4A
:100792002401FFEA3EFEE93DFDE83CFC9000201208
:1007A2000322D007D006D005D004D003D002D00156
:0D07B200D000D0D0D082D083D0F0D0E03283
:100D8C0090005AE4F0A37419F074FFA3F0A3F0D20E
:100D9C009190005A74FFF5F012021A45F0602290FF
:100DAC00005CE0B4FF1BA3E0B4FF167F147E0012BE
:100DBC00000E7F0F12058690005CEEF0A3EFF08022
:100DCC00D07F6E7E0012000E90000AE4F0A304F0B7
:010DDC0022F4
:100E8E00C28C90002012032E00000000C291E4904C
:100E9E00000AF0A3F07FBB120EC9438702D28C2248
:10003E00900056E4F0A304F074FFA3F0A3F0E4F5EF
:10004E00B1F5B1F5B3F5B4F5ACF5AD53B3FD43B4BD
:10005E00027F807E25FDFC120E28438E02120D8C2F
:10006E005389F0538EF7438901758AA8758C2FD268
:10007E00A9D2AFD28C43B38053B47FA2AF92007596
:10008E00C7AA75C75575910143B18075C7AA75C7C3
:10009E0055E4F591A20092AF43E98043EA8053EB19
:1000AE007F900025F0A3F043B30853B4F7A2AF92AC
:1000BE000075C7AA75C75575910143B10875C7AAD2
:1000CE0075C755F591A20092AF43E92043EA085354
:1000DE00EBF790003CF0A3F043AC0153ADFE43E9C7
:1000EE000443EA0153EBFE43E901439B02D2A8D23B
:1000FE00AF7F0F120586900003E07004A3E0640149
:10010E00701F74FF900003F0A3F090000AE07002DD
:10011E00A3E07003120D8C120EAEE4900050F0A30B
:10012E00F0900003E07002A3E0701074FF900003E3
:10013E00F0A3F0900050E4F0A304F090000EE070F5
:10014E0004A3E06401600C900034E07004A3E0644A
:10015E0001700D90002012032E0000000043870155
:10016E00900034E07004A3E06401700D90000AE08A
:10017E007002A3E07003120D8C90000EE07002A3CB
:10018E00E07026900034E07002A3E0701C7F3CFE0D
:10019E00FDFC900020E0F8A3E0F9A3E0FAA3E0FB59
:1001AE00D31202FE4003120E8E90000EE07002A3D8
:1001BE00E06003020104900050E07004A3E06401CB
:1001CE00600302010490000AE07004A3E064017071
:0E01DE0003120DDDE4900050F0A3F0020104C6
:0101EC0022F0
:100C750090007C120322538EF7438901D28CE4FF46
:100C8500FEFDFC90007CE0F8A3E0F9A3E0FAA3E008
:100C9500FBC31202FE6033758A7E758CFF308DFDB5
:100CA500C28D90007CE0FCA3E0FDA3E0FEA3E0FF85
:100CB50074FFEF24FFFFEE34FFFEED34FFFDEC344F
:0D0CC500FFFC90007C12032280B4C28C2240
:100CD200900080120322538EF7438901D28CE4FFE5
:100CE200FEFDFC900080E0F8A3E0F9A3E0FAA3E0A7
:100CF200FBC31202FE6033758ACA758CFA308DFD11
:100D0200C28D900080E0FCA3E0FDA3E0FEA3E0FF23
:100D120074FFEF24FFFFEE34FFFEED34FFFDEC34F1
:0D0D2200FFFC90008012032280B4C28C22DE
:100D2F00900084120322538EEF438910D28EE4FF7A
:100D3F00FEFDFC900084E0F8A3E0F9A3E0FAA3E045
:100D4F00FBC31202FE6033758BEA758DCB308FFDBE
:100D5F00C28F900084E0FCA3E0FDA3E0FEA3E0FFC0
:100D6F0074FFEF24FFFFEE34FFFEED34FFFDEC3494
:0D0D7F00FFFC90008412032280B4C28E227B
:100B570090008812032253C9BF53C9DF43C910D27B
:100B6700CAE4FFFEFDFC900088E0F8A3E0F9A3E0EB
:100B7700FAA3E0FBC31202FE603375CC3075CDF8E3
:100B870030CFFDC2CF900088E0FCA3E0FDA3E0FEDC
:100B9700A3E0FF74FFEF24FFFFEE34FFFEED34FF09
:100BA700FDEC34FFFC90008812032280B4C2CA22F5
:100BB70090008C12032275C40743C408E4FFFEFDAE
:100BC700FC90008CE0F8A3E0F9A3E0FAA3E0FBC3F4
:100BD7001202FE603675C52C75C6CFE5C430E4FB3E
:100BE70053C4EF90008CE0FCA3E0FDA3E0FEA3E07C
:100BF700FF74FFEF24FFFFEE34FFFEED34FFFDEC43
:0F0C070034FFFC90008C12032280B153C4F722FB
:100C160090009012032275C40743C408E4FFFEFD4A
:100C2600FC900090E0F8A3E0F9A3E0FAA3E0FBC390
:100C36001202FE603675C5D875C6FFE5C430E4FB02
:100C460053C4EF900090E0FCA3E0FDA3E0FEA3E018
:100C5600FF74FFEF24FFFFEE34FFFEED34FFFDECE3
:0F0C660034FFFC90009012032280B153C4F72298
:100E280053B1BF53B2BF53B17F53B27F759850438C
:100E38008920438780438E1053C4DFAB07AA06A9D5
:100E480005A8047F407E427D0F7C0012026CEF04EF
:090E5800F404F58DD28ED299222A
:1008FE0090009412032253B1BF53B2BF53B17F5332
:10090E00B27F75985043878053C4F843C42090003B
:10091E0094E0F8A3E0F9A3E0FAA3E0FB7F407E4267
:10092E007D0F7C0012026CC374FF9FFF74FF9EFE4E
:10093E00E49DFDE49CFC780812030F8FC690009492
:10094E00E0F8A3E0F9A3E0FAA3E0FB7F407E427D4E
:10095E000F7C0012026CC374FF9FFF74FF9EFEE4B7
:0F096E009DFDE49CFCEFE48FC543C408D29922A1
:070003003098FDAF99C2988F
:01000A0022D3
:080EC900C2998F993099FD22B6
:100A710090009812032253B1FB53B2FB53B3BF53FF
:100A8100B4BF75F85075C40853C4DF900098E0F8FE
:100A9100A3E0F9A3E0FAA3E0FB7F407E427D0F7C57
:100AA1000012026CC374FF9FFF74FF9EFEE49DFD64
:100AB100E49CFC780812030F8FC6900098E0F8A31D
:100AC100E0F9A3E0FAA3E0FB7F407E427D0F7C00CA
:100AD10012026CC374FF9FFF74FF9EFEE49DFDE450
:0A0AE1009CFCEFE48FC543C408221B
:070ED10030F8FDAF9AC2F8F2
:010ED80022F7
:080ED900C2F98F9A30F9FD22E5
:030000000208648F
:10086400787FE4F6D8FD9000007FFF7E03E4F0A3D8
:0A087400DFFCDEFA7581200208B9EE
:10087E0002003EE493A3F8E493A34003F68001F252
:10088E0008DFF48029E493A3F85407240CC8C3337B
:10089E00C4540F4420C8834004F456800146F6DF4A
:1008AE00E4800B01020408102040809007BFE47E14
:1008BE00019360BCA3FF543F30E509541FFEE4933F
:1008CE00A360010ECF54C025E060A840B8E493A306
:1008DE00FAE493A3F8E493A3C8C582C8CAC583CA31
:1008EE00F0A3C8C582C8CAC583CADFE9DEE780BEE9
:010863000094
:1001ED00BB010CE58229F582E5833AF583E02250C7
:1001FD0006E92582F8E622BBFE06E92582F8E22211
:0D020D00E58229F582E5833AF583E493222A
:10021A00A3F8E0C5F025F0F0E58215827002158397
:06022A00E0C838F0E822F4
:1002300075F008758200EF2FFFEE33FECD33CDCC85
:1002400033CCC58233C5829BED9AEC99E582984008
:100250000CF582EE9BFEED9AFDEC99FC0FD5F0D6E5
:10026000E4CEFBE4CDFAE4CCF9A88222B800C1B90F
:100270000059BA002DEC8BF084CFCECDFCE5F0CB4D
:10028000F97818EF2FFFEE33FEED33FDEC33FCEB86
:1002900033FB10D703994004EB99FB0FD8E5E4F941
:1002A000FA227818EF2FFFEE33FEED33FDEC33FC2E
:1002B000C933C910D7059BE99A4007EC9BFCE99A22
:1002C000F90FD8E0E4C9FAE4CCFB2275F010EF2F67
:1002D000FFEE33FEED33FDCC33CCC833C810D70767
:1002E0009BEC9AE899400AED9BFDEC9AFCE899F8A2
:0E02F0000FD5F0DAE4CDFBE4CCFAE4C8F92235
:1002FE00EB9FF5F0EA9E42F0E99D42F0E89C45F056
:01030E0022CC
:10030F00E8600FECC313FCED13FDEE13FEEF13FFCC
:03031F00D8F122F0
:0C032200ECF0A3EDF0A3EEF0A3EFF0224E
:10032E00A8828583F0D083D0821203451203451232
:10033E000345120345E473E493A3C583C5F0C58357
:10034E00C8C582C8F0A3C583C5F0C583C8C582C819
:01035E00227C
:00000001FF
