:10086F004100170141001F0E4100190342001D31C5
:10087F0010420005350142003835044300003403AF
:10088F000143001A420101420009350342000735B6
:10089F000241001410410018114400347E0200EF91
:1008AF004600227E043E0000EF49000B7E0310003D
:1008BF00EF7E0200EF4200150001420003FFFF42EE
:0908CF000020000042003A000084
:10000600E4FDFCC3ED9FEE6480F8EC648098501C20
:10001600E4FBFAC3EB94D9EA6480948250070BEBB5
:0C00260070010A80EE0DED70010C80D717
:0100320022AB
:100B8400E4FDFCC3ED9FEE6480F8EC648098501C97
:100B9400E4FBFAC3EB9448EA6480948050070BEBBF
:0C0BA40070010A80EE0DED70010C80D78E
:010BB0002222
:10080300E490004BF0A3F0A3F0A374FAF020981740
:1008130090004D74FFF5F01201F645F060097F0179
:100823007E00120B8480E630983A12003390004B1E
:10083300E475F0011201F6FC742825F0F5827400CA
:100843003CF583EFF090004D741FF0A37440F0204B
:1008530098D590004D74FFF5F01201F645F060C78E
:0B08630080ED80C390004BE0A3E0FF9D
:01086E002267
:0B04BA0090004BEBF0A3EAF0A3E9F088
:1004C500E4A3F0FF90005EF0A3F090004EE0FE0480
:1004D500F0744F2EF582E43400F583747EF0ED045C
:1004E500FE90004EE0FC04F0744F2CF582E43400DD
:1004F500F583EEF0EFC39D502A90004BE0FBA3E09F
:10050500FAA3E0F98F827583001201C9FE90004EAF
:10051500E0FC04F0744F2CF582E43400F583EEF032
:100525000F80D190004EE0244FF582E43400F5832E
:1005350074EFF090004EE0FFD390005FE09F748071
:10054500F890005EE0648098501AE475F00112019D
:10055500F6FE744F25F0F58274003EF583E0FF1238
:040565000BB180CF87
:01056900226F
:0E030A00900040EBF0A3EAF0A3E9F0A3EDF0C1
:10031800E4A3F0A3F0A37402F0900044E07002A3F9
:10032800E060030203E3900046E0FF14F0EF70037F
:100338000203E3900040E0FBA3E0FAA3E0F9A3E0A6
:10034800FD1204BA120803900047E4F0A3EFF0E4AA
:10035800A3F0A3F0900048E024FDFF900047E034AC
:10036800FFFEC390004AE09FEE6480F8900049E0E9
:1003780064809850A4E0FEA3E02428F58274003E2F
:10038800F583E0647E7043900049E0A3E02429F5FA
:100398008274003EF583E0B40230900049E0A3E0A7
:1003A800242AF58274003EF583E0701E900049E02F
:1003B800A3E0242BF58274003EF583E0B4EF0B90A4
:1003C8000044E4F0A304F002032190004AE004F0A2
:0B03D8007006900049E004F002035C96
:0103E30022F7
:10070F009000407402F0900040E0FF14F0EF60653D
:10071F007B017A0079147D011204BA120803AD0728
:10072F007C00E4FBFAED24FDFFEC34FFFEC3EB9FEE
:10073F00EE6480F8EA648098503274282BF5827446
:10074F00003AF583E0B47E1D742A2BF58274003ACB
:10075F00F583E0B4100F742B2BF58274003AF583F8
:10076F00E0FF7E00220BEB70010A80B97F147E0040
:09077F0012000680917EFF7FFF4D
:01078800224E
:0503E400900040EFF065
:1003E900E4A3F0A3F0A37403F0900040E090001E92
:1003F900F0900041E07002A3E060030204B99000AC
:1004090043E0FF14F0EF70030204B97B017A00792D
:100419001D7D021204BA7F0D7E001200067B017A4F
:100429000079187D011204BA120803900044E4F01F
:10043900A3EFF0E4A3F0A3F0900045E024FDFF90C2
:100449000044E034FFFEC3900047E09FEE6480F86B
:10045900900046E06480985098E0FEA3E02428F5D7
:100469008274003EF583E0B47E36900046E0A3E056
:10047900242AF58274003EF583E0B41123900046E6
:10048900E0A3E0242BF58274003EF583E0FF9000A1
:1004990040E0FEEFB50609A3E4F0A304F00203FA75
:1004A900900047E004F07006900046E004F0808870
:0104B9002220
:03003B00020604B6
:10060400C0E0C083C082C0D075D000C000C002C0AA
:1006140003C004C005C006C007E5EC64807056F54D
:10062400EC7F14FE120006900015E07002A3E07047
:100634001D20971A43E98053EA7F43EB809000150D
:10064400F0A304F0900003E4F0A304F080249000ED
:1006540015E07004A3E06401701830971543E98035
:1006640043EA8053EB7F900015F0A3F0900003F071
:10067400A3F05387FDD007D006D005D004D003D013
:0C06840002D000D0D0D082D083D0E03271
:03000300020B0EDF
:100B0E00C0E0C0F0C083C082C0D075D000C000C0AD
:100B1E0001C002C003C004C005C006C0077FAA12F0
:100B2E000BB1D007D006D005D004D003D002D0012F
:0D0B3E00D000D0D0D082D083D0F0D0E032F3
:10003E0090003CE4F0A304F074FFA3F0A3F0E4F509
:10004E00B1F5B1F5B3F5B4F5ACF5AD7F807E25FD18
:10005E00FC120B4B438E027F207E0312000643B32D
:10006E008053B47FA2AF920075C7AA75C75575911C
:10007E000143B18075C7AA75C755E4F591A20092E8
:10008E00AF43E90143E98043EA8053EB7F900015CB
:10009E00F0A3F043AC0153ADFE43E90443EA015330
:1000AE00EBFE439B02D2A8D2AF7F0F1203E443872D
:1000BE000274FF900003F0A3F012070F90003EEEC3
:1000CE00F0A3EFF090003EE0B4FF0AA3E0B4FF050A
:1000DE007FCC120BB1900020E07002A3E060149070
:1000EE00003EE07004A3E0640170087F32FE12004F
:1000FE0006807090003AE07002A3E0605C7B017AAB
:10010E0000791A7D0312030A12070F90003EEEF0DB
:10011E00A3EFF090003EE07004A3E064017008903D
:10012E00003AF0A3F0802990003CE0A3E090001C80
:10013E00F090003CE475F0011201F6FEC3E5F09478
:10014E000FEE64809480400890003CE4F0A304F02D
:10015E00E4900020F0A3F0800AE4900020F0A3F0D9
:10016E00438702900003E07004A3E06401701E90C8
:10017E00001B04F0E4A3F07B017A00791A7D0312D0
:10018E00030A900020E4F0A304F00200BC900003E8
:10019E00E07002A3E060030200BC90001B04F0902C
:1001AE00003CE475F0011201F690001CE5F0F090B1
:0A01BE00003AE4F0A304F00200BCD4
:0101C8002214
:1009F7009000601202FE538EF7438901D28CE4FF08
:100A0700FEFDFC900060E0F8A3E0F9A3E0FAA3E0A4
:100A1700FBC31202DA6033758A7E758CFF308DFD59
:100A2700C28D900060E0FCA3E0FDA3E0FEA3E0FF21
:100A370074FFEF24FFFFEE34FFFEED34FFFDEC34CF
:0D0A4700FFFC9000601202FE80B4C28C2201
:100A54009000641202FE538EF7438901D28CE4FFA6
:100A6400FEFDFC900064E0F8A3E0F9A3E0FAA3E043
:100A7400FBC31202DA6033758ACA758CFA308DFDB5
:100A8400C28D900064E0FCA3E0FDA3E0FEA3E0FFC0
:100A940074FFEF24FFFFEE34FFFEED34FFFDEC3472
:0D0AA400FFFC9000641202FE80B4C28C22A0
:100AB1009000681202FE538EEF438910D28EE4FF3C
:100AC100FEFDFC900068E0F8A3E0F9A3E0FAA3E0E2
:100AD100FBC31202DA6033758BEA758DCB308FFD63
:100AE100C28F900068E0FCA3E0FDA3E0FEA3E0FF5D
:100AF10074FFEF24FFFFEE34FFFEED34FFFDEC3415
:0D0B0100FFFC9000681202FE80B4C28E223C
:1008D90090006C1202FE53C9BF53C9DF43C910D23D
:1008E900CAE4FFFEFDFC90006CE0F8A3E0F9A3E088
:1008F900FAA3E0FBC31202DA603375CC3075CDF888
:1009090030CFFDC2CF90006CE0FCA3E0FDA3E0FE78
:10091900A3E0FF74FFEF24FFFFEE34FFFEED34FF89
:10092900FDEC34FFFC90006C1202FE80B4C2CA22B6
:100939009000701202FE75C40743C408E4FFFEFD6F
:10094900FC900070E0F8A3E0F9A3E0FAA3E0FBC390
:100959001202DA603675C52C75C6CFE5C430E4FBE2
:1009690053C4EF900070E0FCA3E0FDA3E0FEA3E018
:10097900FF74FFEF24FFFFEE34FFFEED34FFFDECC3
:0F09890034FFFC9000701202FE80B153C4F722BD
:100998009000741202FE75C40743C408E4FFFEFD0C
:1009A800FC900074E0F8A3E0F9A3E0FAA3E0FBC32D
:1009B8001202DA603675C5D875C6FFE5C430E4FBA7
:1009C80053C4EF900074E0FCA3E0FDA3E0FEA3E0B5
:1009D800FF74FFEF24FFFFEE34FFFEED34FFFDEC64
:0F09E80034FFFC9000741202FE80B153C4F7225A
:100B4B0053B1BF53B2BF53B17F53B27F759850436C
:100B5B008920438780438E1053C4DFAB07AA06A9B5
:100B6B0005A8047F407E427D0F7C00120248EF04F3
:090B7B00F404F58DD28ED299220A
:100690009000781202FE53B1BF53B2BF53B17F53E3
:1006A000B27F75985043878053C4F843C4209000AC
:1006B00078E0F8A3E0F9A3E0FAA3E0FB7F407E42F4
:1006C0007D0F7C00120248C374FF9FFF74FF9EFEE3
:1006D000E49DFDE49CFC78081202EB8FC690007844
:1006E000E0F8A3E0F9A3E0FAA3E0FB7F407E427DBF
:1006F0000F7C00120248C374FF9FFF74FF9EFEE44C
:0F0700009DFDE49CFCEFE48FC543C408D2992211
:070033003098FDAF99C2985F
:01003A0022A3
:080BB100C2998F993099FD22D1
:1007890090007C1202FE53B1FB53B2FB53B3BF532B
:10079900B4BF75F85075C40853C4DF90007CE0F805
:1007A900A3E0F9A3E0FAA3E0FB7F407E427D0F7C42
:1007B90000120248C374FF9FFF74FF9EFEE49DFD73
:1007C900E49CFC78081202EB8FC690007CE0F8A349
:1007D900E0F9A3E0FAA3E0FB7F407E427D0F7C00B5
:1007E900120248C374FF9FFF74FF9EFEE49DFDE45F
:0A07F9009CFCEFE48FC543C4082206
:070BB90030F8FDAF9AC2F80D
:010BC0002212
:080BC100C2F98F9A30F9FD2200
:0300000002056A8C
:10056A00787FE4F6D8FD9000007FFF7E03E4F0A3D5
:0A057A00DFFCDEFA7581200205BFE8
:1005840002003EE493A3F8E493A34003F68001F24F
:1005940008DFF48029E493A3F85407240CC8C33378
:1005A400C4540F4420C8834004F456800146F6DF47
:1005B400E4800B010204081020408090086FE47E60
:1005C400019360BCA3FF543F30E509541FFEE4933C
:1005D400A360010ECF54C025E060A840B8E493A303
:1005E400FAE493A3F8E493A3C8C582C8CAC583CA2E
:1005F400F0A3C8C582C8CAC583CADFE9DEE780BEE6
:0108D800001F
:1001C900BB010CE58229F582E5833AF583E02250EB
:1001D90006E92582F8E622BBFE06E92582F8E22235
:0D01E900E58229F582E5833AF583E493224F
:1001F600A3F8E0C5F025F0F0E582158270021583BC
:06020600E0C838F0E82218
:10020C0075F008758200EF2FFFEE33FECD33CDCCA9
:10021C0033CCC58233C5829BED9AEC99E58298402C
:10022C000CF582EE9BFEED9AFDEC99FC0FD5F0D609
:10023C00E4CEFBE4CDFAE4CCF9A88222B800C1B933
:10024C000059BA002DEC8BF084CFCECDFCE5F0CB71
:10025C00F97818EF2FFFEE33FEED33FDEC33FCEBAA
:10026C0033FB10D703994004EB99FB0FD8E5E4F965
:10027C00FA227818EF2FFFEE33FEED33FDEC33FC52
:10028C00C933C910D7059BE99A4007EC9BFCE99A46
:10029C00F90FD8E0E4C9FAE4CCFB2275F010EF2F8B
:1002AC00FFEE33FEED33FDCC33CCC833C810D7078B
:1002BC009BEC9AE899400AED9BFDEC9AFCE899F8C6
:0E02CC000FD5F0DAE4CDFBE4CCFAE4C8F92259
:1002DA00EB9FF5F0EA9E42F0E99D42F0E89C45F07A
:0102EA0022F1
:1002EB00E8600FECC313FCED13FDEE13FEEF13FFF1
:0302FB00D8F12215
:0C02FE00ECF0A3EDF0A3EEF0A3EFF02273
:00000001FF
