:100B7D0042012B00004101370E4201353110430176
:100B8D00324201014301CD4100014100A61742004F
:100B9D00002001604000EA000C1824303B465059FB
:100BAD0062697075797C7E7F7E7C7975706962591A
:100BBD0050463B3024180C00F4E8DCD0C5BAB0A781
:100BCD009E97908B878482818284878B90979EA736
:100BDD00B0BAC5D0DCE8F4604000AA7F7E7C7975A0
:100BED007069625950463B3024180C00F4E8DCD093
:100BFD00C5BAB0A79E97908B878482818284878B9C
:100C0D0090979EA7B0BAC5D0DCE8F4000C1824303C
:100C1D003B46505962697075797C7E604001D00009
:100C2D0020103008281838042414340C2C1C3C02D5
:100C3D002212320A2A1A3A062616360E2E1E3E01A8
:100C4D0021113109291939052515350D2D1D3D03A5
:100C5D002313330B2B1B3B072717370F2F1F3F601A
:100C6D0080000300FF0000000000000000000000F5
:100C7D000000000000000000000000000000000067
:100C8D000000000000000000000000000000000057
:100C9D000000000000000000000000000000000047
:100CAD000000000000000000000000000000000037
:100CBD000000000000000000000000000000000027
:100CCD000000000000000000000000000000000017
:100CDD000000000000000000000000000000000007
:100CED000000004101310141013901410084014100
:100CFD0000A90041013800410002004100A500415A
:100D0D000210004100A8004100A7004101CC0041A4
:100D1D00012A004100830042012D000042012F00F5
:010D2D0000C5
:10136500E4900224F0A3F0A3F0A374FAF0209817F8
:1013750090022674FFF5F0120D6E45F060097F01AD
:101385007E001219E680E630985012000390022480
:10139500E475F001120D6EFC743A25F0F5827401C6
:1013A5003CF583EFF0C3900225E09412900224E00F
:1013B500648094804005E0A3E0FF22900226741F1C
:1013C500F0A37440F02098BF90022674FFF5F01248
:1013D5000D6E45F060B180ED80AD900224E0A3E094
:0113E500FF08
:0113E60022E4
:0B117B00900224EBF0A3EAF0A3E9F0DF
:10118600E4A3F0FF900237F0A3F0900227E0FE04FC
:10119600F074282EF582E43402F583747EF0ED04B3
:1011A600FE900227E0FC04F074282CF582E4340259
:1011B600F583EEF0EFC39D502A900224E0FBA3E0F6
:1011C600FAA3E0F98F82758300120D2FFE90022795
:1011D600E0FC04F074282CF582E43402F583EEF08A
:1011E6000F80D1900227E02428F582E43402F583AB
:1011F60074EFF0900227E0FFD3900238E09F7480EE
:10120600F8900237E0648098501AE475F001120DE8
:101216006EFE742825F0F58274023EF583E0FF1217
:041226001AD780CF84
:01122A0022A1
:0E0FC600900219EBF0A3EAF0A3E9F0A3EDF01E
:100FD400E4A3F0A3F0A37402F090021DE07002A356
:100FE400E060030210A190021FE0FF14F0EF700311
:100FF4000210A1900219E0FBA3E0FAA3E0F9A3E038
:10100400FD12117B121365900220E4F0A3EFF0E4CB
:10101400A3F0A3F0900221E024FDFF900220E0342D
:10102400FFFEC3900223E09FEE6480F8900222E06A
:1010340064809850A4E0FEA3E0243AF58274013E53
:10104400F583E0647E7045900222E0A3E0243BF542
:101054008274013EF583E064027031900222E0A3C1
:10106400E0243CF58274013EF583E0701F90022277
:10107400E0A3E0243DF58274013EF583E0B4EF0C77
:1010840090021DE4F0A304F0E4FEFF22900223E0AA
:1010940004F07006900222E004F00210187EFF7F34
:0110A400FF4C
:0110A5002228
:101466009002197402F0900219E0FF14F0EF606523
:101476007B017A0079A67D0112117B121365AD07F7
:101486007C00E4FBFAED24FCFFEC34FFFEC3EB9F8B
:10149600EE6480F8EA6480985032743A2BF58274D0
:1014A600013AF583E0B47E1D743C2BF58274013A53
:1014B600F583E0B4170F743E2BF58274013AF58379
:1014C600E0FF7E00220BEB70010A80B97F147E00DC
:0914D60012000E80917EFF7FFFE1
:0114DF0022EA
:1014E0009002177402F0900217E0FF14F0EF6065AD
:1014F0007B017A0079007D0212117B121365AD0722
:101500007C00E4FBFAED24FCFFEC34FFFEC3EB9F10
:10151000EE6480F8EA6480985032743A2BF5827455
:10152000013AF583E0B47E1D743C2BF58274013AD8
:10153000F583E0B4200F743E2BF58274013AF583F5
:10154000E0FF7E00220BEB70010A80B97F147E0061
:0915500012000E80917EFF7FFF66
:01155900226F
:101965001214E090012BEEF0A3EFF0D3E094009079
:10197500012BE06480948040117B017A0179327DEE
:1019850003120FC6900134E004F0900134E0FFC368
:1019950090012CE09F7480F890012BE064809850B2
:0819A500069001347401F022E8
:10169700121466900217EEF0A3EFF090012BE0FE14
:1016A700A3E0FFD3900218E09FEE6480F890021742
:1016B700E064809840387B017A0179CD7D03120F71
:1016C700C69001CFE004F090012BE0FEA3E0FFC33A
:1016D700900218E09FFF900217E09EFE9001CFE076
:0E16E700D39FEE6480F874809840037401F085
:0116F50022D2
:0810A600900217EEF0A3EFF039
:1010AE0090021774FFF5F0120D6E45F070030211E9
:1010BE0078121365900219E4F0A3EFF0E4A3F0A305
:1010CE00F090021AE024FCFF900219E034FFFEC3F8
:1010DE0090021CE09FEE6480F890021BE064809802
:1010EE0050BEE0FEA3E0243AF58274013EF583E0A3
:1010FE00B47E2990021BE0A3E0243CF58274013EED
:10110E00F583E0B43F1690021BE0A3E0243DF58288
:10111E0074013EF583E0B404037F012290021BE0CC
:10112E00FEA3E0243AF58274013EF583E0B47E29F5
:10113E0090021BE0A3E0243CF58274013EF583E0AF
:10114E00B43F1690021BE0A3E0243DF58274013EED
:10115E00F583E0B40C037F022290021CE004F070D1
:0C116E000690021BE004F00210CF7F008E
:01117A002252
:0C1ACB007B017A0179377D01120FC622E1
:101AAA00900136EFF07B017A0179357D02120FC67B
:011ABA002209
:10003E0090021C740FF0E4A3F090021704F09002EB
:10004E0017E0D39406400302047B90021A7401F069
:10005E00E0FF900217E014FEEFA806088002C333FB
:10006E00D8FC90021AF0E4900218F090021AE014F4
:10007E00FF900218E0D39F400302047290021B749B
:10008E0001F0E0FF900217E0FEC374079EFEEFA89A
:10009E0006088002C333D8FC90021BF0E0FF9002EA
:1000AE0018E0FEEF8EF0A490021BF0900218E0A371
:1000BE00F0900219E0C394404003020469E025E089
:1000CE002403F582E43400F583E0FFA3E090021EE2
:1000DE00CFF0A3EFF0900219E025E0244CF582E476
:1000EE003401F583E0FFA3E0900220CFF0A3EFF000
:1000FE0090021AE0FF900219E02F25E02403F5820A
:10010E00E43400F583E0FFA3E0900222CFF0A3EFEA
:10011E00F090021AE0FF900219E02F25E02403F57B
:10012E0082E43400F583E0FCA3E0FD90021BE024A2
:10013E00AAF582E43400F583E0FF3395E0FE120D5C
:10014E005CEF7807CEA2E713CE13D8F8FF90021912
:10015E00E025E02403F582E43400F583E0FCA3E01F
:10016E002FFBEC3EFA90021AE0FF900219E02F25C9
:10017E00E0244CF582E43401F583E0FCA3E0FD902D
:10018E00021BE024EAF582E43400F583E0FF3395A8
:10019E00E0FE120D5CEF7807CEA2E713CE13D8F86F
:1001AE002BFFEA3EFE900219E025E02403F582E4DF
:1001BE003400F583EEF0A3EFF090021AE0FF900208
:1001CE0019E02F25E02403F582E43400F583E0FCEA
:1001DE00A3E0FD90021BE024EAF582E43400F583EF
:1001EE00E0FF3395E0FE120D5CEF7807CEA2E71329
:1001FE00CE13D8F8FF900219E025E0244CF582E4E6
:10020E003401F583E0FCA3E0C39FFBEC9EFA900261
:10021E001AE0FF900219E02F25E0244CF582E43419
:10022E0001F583E0FCA3E0FD90021BE024AAF58219
:10023E00E43400F583E0FF3395E0FE120D5CEF78B9
:10024E0007CEA2E713CE13D8F82BFFEA3EFE90029C
:10025E0019E025E0244CF582E43401F583EEF0A399
:10026E00EFF090021AE0FF900219E02F25E0240330
:10027E00F582E43400F583E0FCA3E0FD90021BE080
:10028E0024AAF582E43400F583E0FF3395E0FE12F4
:10029E000D5CEF7807CEA2E713CE13D8F8FFC3900C
:1002AE00021FE09FFB90021EE09EFA90021AE0FFF2
:1002BE00900219E02F25E0244CF582E43401F583F9
:1002CE00E0FCA3E0FD90021BE024EAF582E434009A
:1002DE00F583E0FF3395E0FE120D5CEF7807CEA2BA
:1002EE00E713CE13D8F8FFC3EB9FFFEA9EFE9002F2
:1002FE001AE0FD900219E02D25E02403F582E43486
:10030E0000F583EEF0A3EFF090021BE024EAF582F5
:10031E00E43400F583E0FF3395E0FE900222E0FC2A
:10032E00A3E0FD120D5CEF7807CEA2E713CE13D833
:10033E00F8FF900221E02FFB900220E03EFA90029F
:10034E001AE0FF900219E02F25E0244CF582E434E8
:10035E0001F583E0FCA3E0FD90021BE024AAF582E8
:10036E00E43400F583E0FF3395E0FE120D5CEF7888
:10037E0007CEA2E713CE13D8F8FFC3EB9FFFEA9E7A
:10038E00FE90021AE0FD900219E02D25E0244CF5B6
:10039E0082E43401F583EEF0A3EFF0900219E0252C
:1003AE00E02403F582E43400F583C083C082E0FECE
:1003BE00A3E0FFEEA2E713FEEF13FFD082D083EE91
:1003CE00F0A3EFF0900219E025E0244CF582E4341E
:1003DE0001F583C083C082E0FEA3E0FFEEA2E71327
:1003EE00FEEF13FFD082D083EEF0A3EFF090021A4F
:1003FE00E0FF900219E02F25E02403F582E434009B
:10040E00F583C083C082E0FEA3E0FFEEA2E713FEF9
:10041E00EF13FFD082D083EEF0A3EFF090021AE03C
:10042E00FF900219E02F25E0244CF582E43401F50B
:10043E0083C083C082E0FEA3E0FFEEA2E713FEEFCF
:10044E0013FFD082D083EEF0A3EFF090021AE025D6
:10045E00E0FF900219E02FF00200BF900218E004B6
:10046E00F0020079900217E004F002004CE49001D3
:10047E004CF0A3F0900003F0A3F0900218F090025D
:10048E0018E0C3941140030207F9E025E0244CF56F
:10049E0082E43401F583E0FCA3E0FD900218E02530
:1004AE00E0244CF582E43401F583E0FEA3E0FF1274
:1004BE000D5CAA06AB07900218E025E02403F58236
:1004CE00E43400F583E0FCA3E0FD900218E025E0A3
:1004DE002403F582E43400F583E0FEA3E0FF120D61
:1004EE005CEF2BFFEE3A900224F0A3EFF0C3E09402
:1004FE0006900224E094005007E4F0A3F00207DA1D
:10050E00C3900225E0940A900224E094005008E47F
:10051E00F0A304F00207DAC3900225E094109002D3
:10052E0024E094005009E4F0A37402F00207DAC349
:10053E00900225E09419900224E094005009E4F012
:10054E00A37403F00207DAC3900225E0942490020C
:10055E0024E094005009E4F0A37404F00207DAC317
:10056E00900225E09431900224E094005009E4F0CA
:10057E00A37405F00207DAC3900225E094379002C7
:10058E0024E094005009E4F0A37406F00207DAC3E5
:10059E00900225E0943C900224E094005009E4F08F
:1005AE00A37407F00207DAC3900225E0944190028B
:1005BE0024E094005009E4F0A37408F00207DAC3B3
:1005CE00900225E09446900224E094005009E4F055
:1005DE00A37409F00207DAC3900225E0944B90024F
:1005EE0024E094005009E4F0A3740AF00207DAC381
:1005FE00900225E09450900224E094005009E4F01B
:10060E00A3740BF00207DAC3900225E09460900207
:10061E0024E094005009E4F0A3740CF00207DAC34E
:10062E00900225E0947D900224E094005009E4F0BD
:10063E00A3740DF00207DAC3900225E0949C900299
:10064E0024E094005009E4F0A3740EF00207DAC31C
:10065E00900225E094BD900224E094005009E4F04D
:10066E00A3740FF00207DAC3900225E094E0900223
:10067E0024E094005009E4F0A37410F00207DAC3EA
:10068E00900225E09405900224E094015009E4F0D4
:10069E00A37411F00207DAC3900225E0942C9002A5
:1006AE0024E094015009E4F0A37412F00207DAC3B7
:1006BE00900225E09455900224E094015009E4F054
:1006CE00A37413F00207DAC3900225E0948090021F
:1006DE0024E094015009E4F0A37414F00207DAC385
:1006EE00900225E094AD900224E094015009E4F0CC
:1006FE00A37415F00207DAC3900225E094DC900291
:10070E0024E094015009E4F0A37416F00207DAC352
:10071E00900225E0940D900224E094025009E4F03A
:10072E00A37417F00207DAC3900225E094409002FA
:10073E0024E094025009E4F0A37418F00207DAC31F
:10074E00900225E09475900224E094025008E4F0A3
:10075E00A37419F08076C3900225E094AC90022425
:10076E00E094025008E4F0A3741AF0805FC3900284
:10077E0025E094E5900224E094025008E4F0A3747E
:10078E001BF08048C3900225E09420900224E09450
:10079E00035008E4F0A3741CF08031C3900225E0EE
:1007AE00945D900224E094035008E4F0A3741DF0CD
:1007BE00801AC3900224E094045008E4F0A3741E3F
:1007CE00F08009900224E4F0A3741FF0900224E05C
:1007DE00A3E0FF900218E02485F582E43400F5834F
:0B07EE00EFF0900218E004F002048C11
:0107F90022DD
:03003B00020E8230
:100E8200C0E0C0F0C083C082C0D075D000C000C036
:100E920001C002C003C004C005C006C007E5EC30B3
:100EA200E74F75EC00539BFD7F017E0012000E9010
:100EB2000131E0701920971643E98053EA7F43EB32
:100EC2008004F0900002F0D2915387FD80209001BF
:100ED20031E0B4011930971643E98043EA8053EBBD
:100EE2007FE4F09000027402F0C2915387FD439BAD
:100EF20002E5EC30E25075EC009000A8E0700302CD
:100F02000FAB539BFD7F037E0012000E900139E070
:100F1200701620921343E91053EAFB43EB0404F0EA
:100F22009000A9F0D291801B900139E0B4011430F5
:100F3200921143E91043EA0453EBFBE4F09000A959
:100F4200F0C291439B02E5EC30E35E75EC00539BEB
:100F5200FD7F027E0012000E900084E0702120933B
:100F62001E43E92053EAF743EB0804F0900138E40A
:100F7200F0900210F09000A504F05387FD802790B6
:100F82000084E06401701F30931C43E92043EA08A7
:100F920053EBF7F090013804F09000A5E4F09002D2
:100FA2001004F05387FD439B02D007D006D005D032
:100FB20004D003D002D001D000D0D0D082D083D0D0
:040FC200F0D0E03259
:03000B0002191BBC
:10191B00C0E0C083C082C0D0C28DC28C758AA8754E
:10192B008C2FD28C90012EE02428F090012DE034E6
:10193B0000F0C3A3E094E890012DE094034012E47F
:10194B00F0A3F0900130E004F0700690012FE0045A
:0A195B00F0D0D0D082D083D0E0326B
:101A3400C2817F107E001210A69000A7EFF0A3745D
:101A440001F07FCC121AD79000A7E0FF121AD72218
:10122B00A286E433F9A287E433FEA283E433FDA262
:10123B0084E433FBA292E433FA539BFDC28CE4901B
:10124B00012FF0A3F09000A8F0D281A28333FDA26E
:10125B0084E433FBA286E433F9A287E433FEA29243
:10126B00E433FA53B1F753B2F753B1EF53B2EF5331
:10127B00B3FB53B4FBC283C284C286C287C2924300
:10128B009B02EFB40103438702539BFDEA24FF92B9
:10129B009243B30453B4FBAF05ED24FF9283AF032A
:1012AB00EB24FF9284AF01E924FF9286AF06EE2474
:0F12BB00FF9287AF02EA24FF9292D28C439B02EC
:0112CA002201
:101ABB00E4FF12122B7F0A7E0012000E121A342240
:101A6E00AD07AC06ECFF3395E08FD3EDF5DB43D637
:041A7E0002D2DE2290
:101A8200AD07AC06ECFF3395E08FD5EDF5DD43D61F
:041A920008D2DE2276
:101A9600AD07AC06ECFF3395E08FD4EDF5DC43D60D
:041AA60004D2DE2266
:1015D400A2AF9200C2AF75C7AA75C7554391014324
:1015E400C60275C7AA75C7555391FEA20092AF43B0
:1015F400DE08A2AF9200C2AF75C7AA75C755439162
:101604000143C60475C7AA75C7555391FEA200923B
:10161400AF53DF3F43DF0353DFFB75D10775D9CFEA
:10162400E4FFFE121A6EE4FF121A82E4FF121A9605
:03163400D2DF22E0
:101A1300C2EFD2EE30EFFDE5C2540FFF1313543F74
:101A2300FD7C00AFC3EF75F004A42DFFEC35F0FE91
:011A33002290
:1018CB00E4FB53E8F043E80543B11053B2EFF5F6F0
:1018DB0043F62043E101EBD394405033121A13E447
:1018EB002FFDEE34FFFC74D02BF582E43401F5832D
:1018FB00E0FF3395E0FEEF25E0FFEE33FE74032FA0
:0F190B00F58274003EF583ECF0A3EDF00B80C77E
:01191A0022AA
:1007FA00E4F5B1F5B1F5B3F5B4F5ACF5ADC2915385
:10080A00B1FD43B202D2817F2C7E0112000E7F809D
:10081A007E257D007C001219AD7FAA121AD77FAA05
:10082A00121AD7438E02121A345389F0538EF743A1
:10083A008901758AA8758C2FD2A9D2AFD28C43B3FD
:10084A008053B47FA2AF920075C7AA75C755759138
:10085A000143B18075C7AA75C755E4F591A2009204
:10086A00AF43E98043EA8053EB7F900131F043B311
:10087A000853B4F7A2AF920075C7AA75C755759108
:10088A000143B10875C7AA75C755F591A20092AF81
:10089A0043E92053EAF743EB0890008404F043B39A
:1008AA000453B4FBA2AF920075C7AA75C755F59158
:1008BA0043B10475C7AA75C755E4F591A20092AF72
:1008CA0043E91043EA0453EBFB900139F043E90191
:1008DA00439B021215D47F14121AAA900002E064F4
:1008EA0001703E900138E07038900002F09001CC1F
:1008FA00F09000A8E07008121A347F14121AAA1293
:10090A0019657F057E0012000E9000A9E0B4010B64
:10091A00E4900083F090012AF08006900083E004BE
:10092A00F0900002E0B40216900138E070109001D5
:10093A00CCE0700A900002F09001CC7402F09000B2
:10094A00A9E070379001CCE06402702F9000A8E013
:10095A00B401281216977F057E0012000E9000A996
:10096A00E0B401119001CC7401F0E490012AF090F6
:10097A000083F0800690012AE004F090012AE0C387
:10098A009402400E900083E0940240069000A57401
:0D099A0001F09000A9E064016003020A89E9
:1009A700900211F0A3F0A3F0A3F0A3F0A3F0D2DF1D
:1009B7001218CB12003E900087E0FF900086E02FD0
:1009C700FFE433FE900088E07C002FFFEC3EFEA39F
:1009D700E02FFFEC3EFEA3E02FFFEC3E900211F06C
:1009E700A3EFF090008CE0FF90008BE02FFFEC333B
:1009F700FE90008DE02FFFEC3EFEA3E02FFFEC3EC4
:100A0700FEA3E02FFFEC3E900213F0A3EFF090005F
:100A170091E0FF900090E02FFFEC33FE900092E012
:100A27002FFFEC3EFEA3E02FFFEC3EFEA3E02FFFDF
:100A3700EC3E900215F0A3EFF0900212E025E0F0F3
:100A4700900211E033F0900214E025E0F0900213D9
:100A5700E033F0A3E025E0F0900213E033F09002DA
:100A670011E0FEA3E0FF121A6EA3E0FEA3E0FF125F
:100A77001A82A3E0FEA3E0FF121A96E490012FF07A
:020A8700A3F0DA
:100A89009000A9E07012FFFE121A6EE4FF121A829A
:100A9900E4FF121A96438701D291900138E0B4011C
:100AA900077FE87E03121A6E7F0A7E0012000EE4A9
:100AB900FFFE121A82C2917F1412000E9000A5E067
:100AC900B401137F2C7E0112000E9000A5E0B40141
:100AD90005E4F0121A54900210E0B401137F647E09
:100AE9000012000E900210E0B40105E4F0121ABBE6
:100AF9009000A9E0B4010A900138E0B40103121A88
:100B0900CB9000A9E0701A900138E07014D39001DD
:100B190030E0940590012FE0940040057F01121206
:100B29002B900138E0B4011B9000A7E0B40214D364
:100B3900900130E094B090012FE0940440057F01CA
:100B490012122B900138E0640160030208E590005D
:100B5900A7E0640270030208E5D3900130E094B085
:100B690090012FE0940450030208E57F0112122B33
:040B79000208E52267
:10000E00E4FDFCC3ED9FEE6480F8EC648098501C18
:10001E00E4FBFAC3EB94D9EA6480948250070BEBAD
:0C002E0070010A80EE0DED70010C80D70F
:01003A0022A3
:1019E600E4FDFCC3ED9FEE6480F8EC648098501C27
:1019F600E4FBFAC3EB9448EA6480948050070BEB4F
:0C1A060070010A80EE0DED70010C80D71D
:011A120022B1
:1017B400900239120E76538EF7438901D28CE4FFDE
:1017C400FEFDFC900239E0F8A3E0F9A3E0FAA3E0FF
:1017D400FBC3120E526033758A7E758CFF308DFD0B
:1017E400C28D900239E0FCA3E0FDA3E0FEA3E0FF7C
:1017F40074FFEF24FFFFEE34FFFEED34FFFDEC3405
:0D180400FFFC900239120E7680B4C28C22D7
:1018110090023D120E76538EF7438901D28CE4FF7C
:10182100FEFDFC90023DE0F8A3E0F9A3E0FAA3E09D
:10183100FBC3120E526033758ACA758CFA308DFD66
:10184100C28D90023DE0FCA3E0FDA3E0FEA3E0FF1A
:1018510074FFEF24FFFFEE34FFFEED34FFFDEC34A7
:0D186100FFFC90023D120E7680B4C28C2276
:10186E00900241120E76538EEF438910D28EE4FF12
:10187E00FEFDFC900241E0F8A3E0F9A3E0FAA3E03C
:10188E00FBC3120E526033758BEA758DCB308FFD14
:10189E00C28F900241E0FCA3E0FDA3E0FEA3E0FFB7
:1018AE0074FFEF24FFFFEE34FFFEED34FFFDEC344A
:0D18BE00FFFC900241120E7680B4C28E2213
:10163700900245120E7653C9BF53C9DF43C910D272
:10164700CAE4FFFEFDFC900245E0F8A3E0F9A3E041
:10165700FAA3E0FBC3120E52603375CC3075CDF898
:1016670030CFFDC2CF900245E0FCA3E0FDA3E0FE32
:10167700A3E0FF74FFEF24FFFFEE34FFFEED34FF1E
:10168700FDEC34FFFC900245120E7680B4C2CA22EC
:1016F600900249120E7675C40743C408E4FFFEFD46
:10170600FC900249E0F8A3E0F9A3E0FAA3E0FBC3EA
:10171600120E52603675C52C75C6CFE5C430E4FB93
:1017260053C4EF900249E0FCA3E0FDA3E0FEA3E072
:10173600FF74FFEF24FFFFEE34FFFEED34FFFDECF8
:0F17460034FFFC900249120E7680B153C4F72293
:1017550090024D120E7675C40743C408E4FFFEFDE2
:10176500FC90024DE0F8A3E0F9A3E0FAA3E0FBC387
:10177500120E52603675C5D875C6FFE5C430E4FB58
:1017850053C4EF90024DE0FCA3E0FDA3E0FEA3E00F
:10179500FF74FFEF24FFFFEE34FFFEED34FFFDEC99
:0F17A50034FFFC90024D120E7680B153C4F72230
:1019AD0053B1BF53B2BF53B17F53B27F75985043FC
:1019BD008920438780438E1053C4DFAB07AA06A945
:1019CD0005A8047F407E427D0F7C00120DC0EF0400
:0919DD00F404F58DD28ED299229A
:1013E700900251120E7653B1BF53B2BF53B17F5320
:1013F700B27F75985043878053C4F843C420900246
:1014070051E0F8A3E0F9A3E0FAA3E0FB7F407E42B6
:101417007D0F7C00120DC0C374FF9FFF74FF9EFEFB
:10142700E49DFDE49CFC7808120E638FC690025180
:10143700E0F8A3E0F9A3E0FAA3E0FB7F407E427D5A
:101447000F7C00120DC0C374FF9FFF74FF9EFEE464
:0F1457009DFDE49CFCEFE48FC543C408D29922AD
:070003003098FDAF99C2988F
:01000A0022D3
:081AD700C2998F993099FD229C
:10155A00900255120E7653B1FB53B2FB53B3BF53ED
:10156A00B4BF75F85075C40853C4DF900255E0F84B
:10157A00A3E0F9A3E0FAA3E0FB7F407E427D0F7C63
:10158A0000120DC0C374FF9FFF74FF9EFEE49DFD11
:10159A00E49CFC7808120E638FC6900255E0F8A30B
:1015AA00E0F9A3E0FAA3E0FB7F407E427D0F7C00D6
:1015BA00120DC0C374FF9FFF74FF9EFEE49DFDE4FD
:0A15CA009CFCEFE48FC543C4082227
:071ADF0030F8FDAF9AC2F8D8
:011AE60022DD
:081AE700C2F98F9A30F9FD22CB
:101A540075C7AA75C755A2AF9200C2AF75C7AA755C
:0A1A6400C755439F80A20092AF22F5
:030000000212CB1E
:1012CB00787FE4F6D8FD9000007FFF7E03E4F0A367
:0A12DB00DFFCDEFA7581200213200B
:1012E5000207FAE493A3F8E493A34003F68001F21E
:1012F50008DFF48029E493A3F85407240CC8C3330A
:10130500C4540F4420C8834004F456800146F6DFD8
:10131500E4800B0102040810204080900B7DE47EE0
:10132500019360BCA3FF543F30E509541FFEE493CD
:10133500A360010ECF54C025E060A840B8E493A394
:10134500FAE493A3F8E493A3C8C582C8CAC583CABF
:10135500F0A3C8C582C8CAC583CADFE9DEE780BE77
:010D2E0000C4
:100D2F00BB010CE58229F582E5833AF583E0225079
:100D3F0006E92582F8E622BBFE06E92582F8E222C3
:0D0D4F00E58229F582E5833AF583E49322DD
:100D5C00EF8DF0A4A8F0CF8CF0A428CE8DF0A42EAB
:020D6C00FE2265
:100D6E00A3F8E0C5F025F0F0E58215827002158338
:060D7E00E0C838F0E82295
:100D840075F008758200EF2FFFEE33FECD33CDCC26
:100D940033CCC58233C5829BED9AEC99E5829840A9
:100DA4000CF582EE9BFEED9AFDEC99FC0FD5F0D686
:100DB400E4CEFBE4CDFAE4CCF9A88222B800C1B9B0
:100DC4000059BA002DEC8BF084CFCECDFCE5F0CBEE
:100DD400F97818EF2FFFEE33FEED33FDEC33FCEB27
:100DE40033FB10D703994004EB99FB0FD8E5E4F9E2
:100DF400FA227818EF2FFFEE33FEED33FDEC33FCCF
:100E0400C933C910D7059BE99A4007EC9BFCE99AC2
:100E1400F90FD8E0E4C9FAE4CCFB2275F010EF2F07
:100E2400FFEE33FEED33FDCC33CCC833C810D70707
:100E34009BEC9AE899400AED9BFDEC9AFCE899F842
:0E0E44000FD5F0DAE4CDFBE4CCFAE4C8F922D5
:100E5200EB9FF5F0EA9E42F0E99D42F0E89C45F0F6
:010E6200226D
:100E6300E8600FECC313FCED13FDEE13FEEF13FF6D
:030E7300D8F12291
:0C0E7600ECF0A3EDF0A3EEF0A3EFF022EF
:00000001FF
