:10091500410028014100350E41002F0342003331CB
:10092500104200093501420052350443002C4201B2
:1009350002430056410001430000410001430030DD
:100945004201014200143503420010350241001FE7
:100955001041000B1741002B1141005B1844004E5C
:100965007E0200EF46003A7E043E0000EF49001685
:100975007E031000EF7E0200EF42002900014200D5
:100985004000014200050001420003000042001240
:1009950000004200380000420007FFFF420059FFF7
:1009A500FF42000E000142000C000044002400003C
:1009B5000000440020000000004200360000420014
:0309C500540000DB
:100DAD00E490006DF0A3F0A3F0A374FAF02098176F
:100DBD0090006F74FFF5F012050E45F060097F018C
:100DCD007E0012113580E630983A12000390006DC6
:100DDD00E475F00112050EFC744225F0F5827400E5
:100DED003CF583EFF090006F741FF0A37440F0207A
:100DFD0098D590006F74FFF5F012050E45F060C7A1
:0B0E0D0080ED80C390006DE0A3E0FFCB
:010E180022B7
:0B09C90090006DEBF0A3EAF0A3E9F052
:1009D400E4A3F0FF900080F0A3F0900070E0FE0428
:1009E400F074712EF582E43400F583747EF0ED0426
:1009F400FE900070E0FC04F074712CF582E4340085
:100A0400F583EEF0EFC39D502A90006DE0FBA3E068
:100A1400FAA3E0F98F827583001204E1FE9000705E
:100A2400E0FC04F074712CF582E43400F583EEF0FC
:100A34000F80D1900070E02471F582E43400F583D6
:100A440074EFF0900070E0FFD3900081E09F748019
:100A5400F8900080E0648098501AE475F001120563
:100A64000EFE747125F0F58274003EF583E0FF12EA
:040A7400122880CFF5
:010A7800225B
:0E075B00900062EBF0A3EAF0A3E9F0A3EDF04A
:10076900E4A3F0A3F0A37402F0900066E07002A382
:10077900E06003020836900068E0FF14F0EF7003B0
:10078900020836900062E0FBA3E0FAA3E0F9A3E0D7
:10079900FD1209C9120DAD900069E4F0A3EFF0E470
:1007A900A3F0A3F090006AE024FDFF900069E03413
:1007B900FFFEC390006CE09FEE6480F890006BE050
:1007C90064809850A4E0FEA3E02442F58274003EC0
:1007D900F583E0647E704590006BE0A3E02443F567
:1007E9008274003EF583E06402703190006BE0A3EF
:1007F900E02444F58274003EF583E0701F90006B9D
:10080900E0A3E02445F58274003EF583E0B4EF0CE3
:10081900900066E4F0A304F0E4FEFF2290006CE08F
:1008290004F0700690006BE004F00207AD7EFF7FD4
:01083900FFBF
:01083A00229B
:100C3F009000A27402F09000A2E0FF14F0EF606544
:100C4F007B017A00791F7D011209C9120DADAD0725
:100C5F007C00E4FBFAED24FDFFEC34FFFEC3EB9FB9
:100C6F00EE6480F8EA648098503274422BF58274F7
:100C7F00003AF583E0B47E1D74442BF58274003A7C
:100C8F00F583E0B4100F74452BF58274003AF583A9
:100C9F00E0FF7E00220BEB70010A80B97F147E000B
:090CAF0012000E80917EFF7FFF10
:010CB8002219
:100CB9009000627402F0900062E0FF14F0EF60654A
:100CC9007B017A00790B7D011209C9120DADAD07BF
:100CD9007C00E4FBFAED24FCFFEC34FFFEC3EB9F40
:100CE900EE6480F8EA648098503274422BF582747D
:100CF900003AF583E0B47E1D74442BF58274003A02
:100D0900F583E0B4170F74462BF58274003AF58326
:100D1900E0FF7E00220BEB70010A80B97F147E0090
:090D290012000E80917EFF7FFF95
:010D3200229E
:101189007B017A00792C7D0312075B90002EE00425
:0B119900F0E0D3940240037401F02248
:1010B100120CB9900060EEF0A3EFF0D3E09402902F
:1010C1000060E06480948040317B017A0079567D34
:1010D1000312075B900058E004F0900061E024FEE9
:1010E100FF900060E034FFFE900058E0D39FEE6473
:0A10F10080F874809840037401F049
:0110FB0022D2
:08083B00900060EEF0A3EFF065
:1008430090006074FFF5F012050E45F07003020985
:1008530011120DAD900062E4F0A3EFF0E4A3F0A356
:10086300F0900063E024FCFF900062E034FFFEC3DD
:10087300900065E09FEE6480F8900064E0648098E7
:1008830050BEE0FEA3E02442F58274003EF583E00F
:10089300B47E2B900064E0A3E02444F58274003E10
:1008A300F583E0B43F18900064E0A3E02445F582AB
:1008B30074003EF583E0B404057E007F01229000BE
:1008C30064E0FEA3E02442F58274003EF583E0B4C5
:1008D3007E2B900064E0A3E02444F58274003EF58F
:1008E30083E0B43F18900064E0A3E02445F58274EC
:1008F300003EF583E0B40C057E007F022290006584
:10090300E004F07006900064E004F0020864E4FE82
:01091300FFE4
:0109140022C0
:0C121C007B017A0079357D0112075B220E
:1011FA00900034EFF07B017A0079337D0212075BAD
:01120A0022C1
:03003B0002035865
:10035800C0E0C0F0C083C082C0D075D000C000C06B
:1003680001C002C003C004C005C006C007E5EC30E8
:10037800E76175EC007F017E0012000E900029E015
:100388007002A3E0702220971F43E98053EA7F435D
:10039800EB80900029F0A304F0900003E4F0A3049C
:1003A800F0D2915387FD802B900029E07004A3E0E0
:1003B8006401701F30971C43E98043EA8053EB7F48
:1003C800900029F0A3F0900003F0A37402F0C2910A
:1003D8005387FDE5EC30E26675EC0090000EE070A6
:1003E80002A3E070030204C67F037E0012000E9091
:1003F8000040E07002A3E0701F20921C43E91053F4
:10040800EAFB43EB04900040F0A304F0900012E4F0
:10041800F0A304F0D2918026900040E07004A3E09D
:100428006401701A30921743E91043EA0453EBFB56
:10043800900040F0A3F0900012F0A3F0C291E5EC18
:1004480030E37B75EC007F027E0012000E90000501
:10045800E07002A3E0702F20932C43E92053EAF7C1
:1004680043EB08900005F0A304F0900038E4F0A3F3
:10047800F090005974FFF0A3F0900007E4F0A30493
:10048800F05387FD8038900005E07004A3E0640114
:10049800702C30932943E92043EA0853EBF7900086
:1004A80005F0A3F0900038F0A304F090000774FF63
:1004B800F0A3F0900059E4F0A304F05387FDD007AF
:1004C800D006D005D004D003D002D001D000D0D0BF
:0904D800D082D083D0F0D0E032D4
:03000B00020A796D
:100A7900C0E0C0F0C083C082C0D075D000C000C043
:100A890001C002C003C004C005C006C007C28DC2B0
:100A99008C758AA8758C2FD28C900020E0FCA3E07D
:100AA900FDA3E0FEA3E02428FFE43EFEE43DFDE4CF
:100AB9003CFC900020120616E47FE87E03FDFC90C2
:100AC9000020E0F8A3E0F9A3E0FAA3E0FBC31205D4
:100AD900F2402F900020120622000000009000240E
:100AE900E0FCA3E0FDA3E0FEA3E0FFE4FAF9F8EFE0
:100AF9002401FFEA3EFEE93DFDE83CFC900024129A
:100B09000616D007D006D005D004D003D002D001F4
:0D0B1900D000D0D0D082D083D0F0D0E03218
:10116200C2817F107E0012083B90000CEEF0A3EFCC
:10117200F0A3E4F0A304F07FCC12122890000CE05C
:07118200A3E0FF1212282276
:08065300900060EEF0A3EFF04F
:10065B00A286E4FF33A3CFF0A3EFF0A287E4FF332E
:10066B00A3CFF0A3EFF0A283E4FF33A3CFF0A3EF6C
:10067B00F0A284E4FF33A3CFF0A3EFF0A292E43314
:10068B00FB7A00539BFDC28C9000241206220000C3
:10069B000000E490000EF0A3F0D281A283FF339010
:1006AB000066CFF0A3EFF0A284E4FF33A3CFF0A357
:1006BB00EFF0A286E4FF33900062CFF0A3EFF0A23D
:1006CB0087E4FF33A3CFF0A3EFF0A292E433FB5305
:1006DB00B1F753B2F753B1EF53B2EF53B3FB53B47C
:1006EB00FBC283C284C286C287C292439B02900024
:1006FB0060E07004A3E064017003438702539BFD29
:10070B00EA4B24FF929243B30453B4FB900066E090
:10071B00FEA3E0FFEE4F24FF9283A3E0FEA3E0FFD6
:10072B00EE4F24FF9284900062E0FEA3E0FFEE4FB9
:10073B0024FF9286A3E0FEA3E0FFEE4F24FF9287F7
:0F074B00AE02AF03EA4B24FF9292D28C439B0283
:01075A00227C
:10120B00E4FFFE1206537F0A7E0012000E121162DB
:01121B0022B0
:1011BE00AD07AC06ECFF3395E08FD3EDF5DB43D6F0
:0411CE0002D2DE2249
:1011D200AD07AC06ECFF3395E08FD5EDF5DD43D6D8
:0411E20008D2DE222F
:1011E600AD07AC06ECFF3395E08FD4EDF5DC43D6C6
:0411F60004D2DE221F
:100E1900A2AF9200C2AF75C7AA75C75543910143E6
:100E2900C60275C7AA75C7555391FEA20092AF4372
:100E3900DE08A2AF9200C2AF75C7AA75C755439124
:100E49000143C60475C7AA75C7555391FEA20092FE
:100E5900AF53DF3F43DF0353DFFB75D10775D9CFAD
:100E6900E4FFFE1211BEE4FF1211D2E4FF1211E6F3
:030E7900D2DF22A3
:10003E0090005CE4F0A304F074FFA3F0A3F0E4F5E9
:10004E00B1F5B1F5B3F5B4F5ACF5ADC29153B1FD63
:10005E0043B202D2817F2C7E0112000E7F807E255C
:10006E007D007C001210FC7FAA1212287FAA1212A9
:10007E0028438E021211625389F0538EF743890181
:10008E00758AA8758C2FD2A9D2AFD28C43B3805368
:10009E00B47FA2AF920075C7AA75C755759101437B
:1000AE00B18075C7AA75C755E4F591A20092AF430A
:1000BE00E98043EA8053EB7F900029F0A3F043B32D
:1000CE000853B4F7A2AF920075C7AA75C7557591BC
:1000DE000143B10875C7AA75C755F591A20092AF35
:1000EE0043E92053EAF743EB08900005F0A304F030
:1000FE0043B30453B4FBA2AF920075C7AA75C7559C
:10010E00F59143B10475C7AA75C755E4F591A200E0
:10011E0092AF43E91043EA0453EBFB900040F0A387
:10012E00F043E901439B02120E197F231211FA903C
:10013E000003E07004A3E06401702B900038E070BF
:10014E0002A3E07021900003F0A3F0900054F0A3FE
:10015E00F090000EE07002A3E070081211627F238F
:10016E001211FA121189900003E07004A3E06402E8
:10017E007022900038E07002A3E07018900054E0F6
:10018E007002A3E0700E900003F0A3F0900054F004
:10019E00A37402F0900012E07002A3E0703590009C
:1001AE0054E07004A3E06402702990000EE0700425
:1001BE00A3E06401701D1210B17F0A7E0012000EC2
:1001CE00900012E07004A3E064017007900054F0F8
:1001DE00A304F0900012E07004A3E06401700D43DC
:1001EE00870190002412062200000000900012E009
:1001FE007002A3E07012FFFE1211BEE4FF1211D2C4
:10020E00E4FF1211E6438701D2917F0A7E001200AD
:10021E000EC2917F147E0012000E900007E0700453
:10022E00A3E06401701E7F2C7E0112000E90000769
:10023E00E07004A3E06401700B74FF900007F0A35C
:10024E00F01211A4900059E07004A3E06401701D37
:10025E007F64FE12000E900059E07004A3E064016A
:10026E00700B74FF900059F0A3F012120B90001255
:10027E00E07004A3E06401700F900038E07004A3F6
:10028E00E06401700312121C900012E07002A3E0F1
:10029E00702F900038E07002A3E070257F05FEFD00
:1002AE00FC900024E0F8A3E0F9A3E0FAA3E0FBD36E
:1002BE001205F2400C7FAA1212287F017E00120650
:1002CE0053900038E07004A3E06401703290000C8B
:1002DE00E07004A3E0640270267FB07E04FDFC9003
:1002EE000024E0F8A3E0F9A3E0FAA3E0FBD31205A3
:1002FE00F2400C7FBB1212287F017E001206539033
:10030E000038E07004A3E06401600302013D900038
:10031E000CE07004A3E06402700302013DE47F3C34
:10032E00FEFDFC900024E0F8A3E0F9A3E0FAA3E0C0
:10033E00FBD31205F2500302013D7FCC1212287F2F
:09034E00017E0012065302013D7C
:010357002283
:10000E00E4FDFCC3ED9FEE6480F8EC648098501C18
:10001E00E4FBFAC3EB94D9EA6480948250070BEBAD
:0C002E0070010A80EE0DED70010C80D70F
:01003A0022A3
:10113500E4FDFCC3ED9FEE6480F8EC648098501CE0
:10114500E4FBFAC3EB9448EA6480948050070BEB08
:0C11550070010A80EE0DED70010C80D7D7
:01116100226B
:100F9A00900082120616538EF7438901D28CE4FF21
:100FAA00FEFDFC900082E0F8A3E0F9A3E0FAA3E0DA
:100FBA00FBC31205F26033758A7E758CFF308DFD96
:100FCA00C28D900082E0FCA3E0FDA3E0FEA3E0FF57
:100FDA0074FFEF24FFFFEE34FFFEED34FFFDEC3427
:0D0FEA00FFFC90008212061680B4C28C221B
:100FF700900086120616538EF7438901D28CE4FFC0
:10100700FEFDFC900086E0F8A3E0F9A3E0FAA3E078
:10101700FBC31205F26033758ACA758CFA308DFDF1
:10102700C28D900086E0FCA3E0FDA3E0FEA3E0FFF5
:1010370074FFEF24FFFFEE34FFFEED34FFFDEC34C9
:0D104700FFFC90008612061680B4C28C22B9
:1010540090008A120616538EEF438910D28EE4FF55
:10106400FEFDFC90008AE0F8A3E0F9A3E0FAA3E017
:10107400FBC31205F26033758BEA758DCB308FFD9F
:10108400C28F90008AE0FCA3E0FDA3E0FEA3E0FF92
:1010940074FFEF24FFFFEE34FFFEED34FFFDEC346C
:0D10A400FFFC90008A12061680B4C28E2256
:100E7C0090008E12061653C9BF53C9DF43C910D256
:100E8C00CAE4FFFEFDFC90008EE0F8A3E0F9A3E0BD
:100E9C00FAA3E0FBC31205F2603375CC3075CDF8C4
:100EAC0030CFFDC2CF90008EE0FCA3E0FDA3E0FEAE
:100EBC00A3E0FF74FFEF24FFFFEE34FFFEED34FFE1
:100ECC00FDEC34FFFC90008E12061680B4C2CA22D0
:100EDC0090009212061675C40743C408E4FFFEFD89
:100EEC00FC900092E0F8A3E0F9A3E0FAA3E0FBC3C6
:100EFC001205F2603675C52C75C6CFE5C430E4FB1F
:100F0C0053C4EF900092E0FCA3E0FDA3E0FEA3E04D
:100F1C00FF74FFEF24FFFFEE34FFFEED34FFFDEC1A
:0F0F2C0034FFFC90009212061680B153C4F722D6
:100F3B0090009612061675C40743C408E4FFFEFD25
:100F4B00FC900096E0F8A3E0F9A3E0FAA3E0FBC362
:100F5B001205F2603675C5D875C6FFE5C430E4FBE3
:100F6B0053C4EF900096E0FCA3E0FDA3E0FEA3E0EA
:100F7B00FF74FFEF24FFFFEE34FFFEED34FFFDECBB
:0F0F8B0034FFFC90009612061680B153C4F72273
:1010FC0053B1BF53B2BF53B17F53B27F75985043B6
:10110C008920438780438E1053C4DFAB07AA06A9FE
:10111C0005A8047F407E427D0F7C00120560EF0421
:09112C00F404F58DD28ED2992253
:100BC00090009A12061653B1BF53B2BF53B17F5370
:100BD000B27F75985043878053C4F843C420900077
:100BE0009AE0F8A3E0F9A3E0FAA3E0FB7F407E429D
:100BF0007D0F7C00120560C374FF9FFF74FF9EFE93
:100C0000E49DFDE49CFC78081206038FC690009AD0
:100C1000E0F8A3E0F9A3E0FAA3E0FB7F407E427D89
:100C20000F7C00120560C374FF9FFF74FF9EFEE4FB
:0F0C30009DFDE49CFCEFE48FC543C408D29922DC
:070003003098FDAF99C2988F
:01000A0022D3
:08122800C2998F993099FD2253
:100D330090009E12061653B1FB53B2FB53B3BF533D
:100D4300B4BF75F85075C40853C4DF90009EE0F833
:100D5300A3E0F9A3E0FAA3E0FB7F407E427D0F7C92
:100D630000120560C374FF9FFF74FF9EFEE49DFDA8
:100D7300E49CFC78081206038FC690009EE0F8A35B
:100D8300E0F9A3E0FAA3E0FB7F407E427D0F7C0005
:100D9300120560C374FF9FFF74FF9EFEE49DFDE494
:0A0DA3009CFCEFE48FC543C4082256
:0712300030F8FDAF9AC2F88F
:011237002294
:08123800C2F98F9A30F9FD2282
:1011A40075C7AA75C755A2AF9200C2AF75C7AA7515
:0A11B400C755439F80A20092AF22AE
:03000000020B26CA
:100B2600787FE4F6D8FD9000007FFF7E03E4F0A313
:0A0B3600DFFCDEFA758120020B7B64
:100B400002003EE493A3F8E493A34003F68001F28D
:100B500008DFF48029E493A3F85407240CC8C333B6
:100B6000C4540F4420C8834004F456800146F6DF85
:100B7000E4800B0102040810204080900915E47EF7
:100B8000019360BCA3FF543F30E509541FFEE4937A
:100B9000A360010ECF54C025E060A840B8E493A341
:100BA000FAE493A3F8E493A3C8C582C8CAC583CA6C
:100BB000F0A3C8C582C8CAC583CADFE9DEE780BE24
:0109C800002E
:1004E100BB010CE58229F582E5833AF583E02250D0
:1004F10006E92582F8E622BBFE06E92582F8E2221A
:0D050100E58229F582E5833AF583E4932233
:10050E00A3F8E0C5F025F0F0E582158270021583A0
:06051E00E0C838F0E822FD
:1005240075F008758200EF2FFFEE33FECD33CDCC8E
:1005340033CCC58233C5829BED9AEC99E582984011
:100544000CF582EE9BFEED9AFDEC99FC0FD5F0D6EE
:10055400E4CEFBE4CDFAE4CCF9A88222B800C1B918
:100564000059BA002DEC8BF084CFCECDFCE5F0CB56
:10057400F97818EF2FFFEE33FEED33FDEC33FCEB8F
:1005840033FB10D703994004EB99FB0FD8E5E4F94A
:10059400FA227818EF2FFFEE33FEED33FDEC33FC37
:1005A400C933C910D7059BE99A4007EC9BFCE99A2B
:1005B400F90FD8E0E4C9FAE4CCFB2275F010EF2F70
:1005C400FFEE33FEED33FDCC33CCC833C810D70770
:1005D4009BEC9AE899400AED9BFDEC9AFCE899F8AB
:0E05E4000FD5F0DAE4CDFBE4CCFAE4C8F9223E
:1005F200EB9FF5F0EA9E42F0E99D42F0E89C45F05F
:0106020022D5
:10060300E8600FECC313FCED13FDEE13FEEF13FFD5
:03061300D8F122F9
:0C061600ECF0A3EDF0A3EEF0A3EFF02257
:10062200A8828583F0D083D082120639120639124D
:100632000639120639E473E493A3C583C5F0C58372
:10064200C8C582C8F0A3C583C5F0C583C8C582C822
:010652002285
:00000001FF
