:100BCF0041014E0141019C0E4101960342019A31B0
:100BDF00104200AC35014201BB3504430192420182
:100BEF0002430245410001430002410001430197C6
:100BFF0042010142013535034200B1350241014145
:100C0F00104100AE174101511141028B184401B63A
:100C1F007E0200EF4601A27E043E0000EF4901383C
:100C2F007E031000EF7E0200EF604000F5000C180D
:100C3F0024303B46505962697075797C7E7F7E7C8B
:100C4F0079757069625950463B3024180C00F4E8EE
:100C5F00DCD0C5BAB0A79E97908B8784828182849F
:100C6F00878B90979EA7B0BAC5D0DCE8F4604000A0
:100C7F00B57F7E7C79757069625950463B30241878
:100C8F000C00F4E8DCD0C5BAB0A79E97908B878490
:100C9F0082818284878B90979EA7B0BAC5D0DCE8FB
:100CAF00F4000C1824303B46505962697075797CFA
:100CBF007E604002490020103008281838042414A0
:100CCF00340C2C1C3C022212320A2A1A3A0626161F
:100CDF00360E2E1E3E012111310929193905251510
:100CEF00350D2D1D3D032313330B2B1B3B072717EF
:100CFF00370F2F1F3F4100870F41014D0041014624
:100D0F00004101370F6080000700FF000000000066
:100D1F0000000000000000000000000000000000C4
:100D2F0000000000000000000000000000000000B4
:100D3F0000000000000000000000000000000000A4
:100D4F000000000000000000000000000000000094
:100D5F000000000000000000000000000000000084
:100D6F000000000000000000000000000000000074
:100D7F000000000000000000000000000000000064
:100D8F0000000000000000000042014F000142017E
:100D9F00A800014200880001420005FFFF4200B396
:100DAF00000042019F00004200AAFFFF44014900DA
:100DBF00000000440142000000004200AF00014269
:090DCF00019D00004202420000F7
:1017CD00E49002A5F0A3F0A3F0A374FAF02098170B
:1017DD009002A774FFF5F0120E1845F060097F0115
:1017ED007E00121BA680E630983A1200039002A5E7
:1017FD00E475F001120E18FC74AA25F0F58274013F
:10180D003CF583EFF09002A7741FF0A37440F02015
:10181D0098D59002A774FFF5F0120E1845F060C729
:0B182D0080ED80C39002A5E0A3E0FF67
:01183800228D
:0B1376009002A5EBF0A3EAF0A3E9F061
:10138100E4A3F0FF9002B8F0A3F09002A8E0FE04FD
:10139100F074A92EF582E43402F583747EF0ED0435
:1013A100FE9002A8E0FC04F074A92CF582E434025A
:1013B100F583EEF0EFC39D502A9002A5E0FBA3E078
:1013C100FAA3E0F98F82758300120DD9FE9002A86D
:1013D100E0FC04F074A92CF582E43402F583EEF00C
:1013E1000F80D19002A8E024A9F582E43402F583AC
:1013F10074EFF09002A8E0FFD39002B9E09F7480EF
:10140100F89002B8E0648098501AE475F001120E69
:1014110018FE74A925F0F58274023EF583E0FF12EF
:041421001C7180CFEB
:0114250022A4
:0E11BA0090029AEBF0A3EAF0A3E9F0A3EDF0A7
:1011C800E4A3F0A3F0A37402F090029EE07002A3DF
:1011D800E060030212959002A0E0FF14F0EF7003A4
:1011E80002129590029AE0FBA3E0FAA3E0F9A3E0CB
:1011F800FD1213761217CD9002A1E4F0A3EFF0E4EC
:10120800A3F0A3F09002A2E024FDFF9002A1E03435
:10121800FFFEC39002A4E09FEE6480F89002A3E072
:1012280064809850A4E0FEA3E024AAF58274013EED
:10123800F583E0647E70459002A3E0A3E024ABF55B
:101248008274013EF583E0640270319002A3E0A34A
:10125800E024ACF58274013EF583E0701F9002A390
:10126800E0A3E024ADF58274013EF583E0B4EF0C11
:1012780090029EE4F0A304F0E4FEFF229002A4E0B2
:1012880004F070069002A3E004F002120C7EFF7FC7
:01129800FF56
:011299002232
:1015EC009002DA7402F09002DAE0FF14F0EF60651A
:1015FC007B017A0179417D011213761217CDAD076B
:10160C007C00E4FBFAED24FDFFEC34FFFEC3EB9F02
:10161C00EE6480F8EA648098503274AA2BF58274D8
:10162C00013AF583E0B47E1D74AC2BF58274013A5B
:10163C00F583E0B4100F74AD2BF58274013AF58389
:10164C00E0FF7E00220BEB70010A80B97F147E0054
:09165C0012000E80917EFF7FFF59
:011665002262
:1016660090029A7402F090029AE0FF14F0EF60651F
:101676007B017A0079AE7D011213761217CDAD0784
:101686007C00E4FBFAED24FCFFEC34FFFEC3EB9F89
:10169600EE6480F8EA648098503274AA2BF582745E
:1016A600013AF583E0B47E1D74AC2BF58274013AE1
:1016B600F583E0B4170F74AE2BF58274013AF58307
:1016C600E0FF7E00220BEB70010A80B97F147E00DA
:0916D60012000E80917EFF7FFFDF
:0116DF0022E8
:101BF4007B017A0179927D031211BA900194E00479
:0B1C0400F0E0D3940240037401F022D2
:101B2200121666900298EEF0A3EFF0D3E0940290C2
:101B32000298E06480948040317B017A0279457D8D
:101B4200031211BA900247E004F0900299E024FED9
:101B5200FF900298E034FFFE900247E0D39FEE64CC
:0A1B620080F874809840037401F0CD
:011B6C002256
:0C1C65007B017A01799C7D011211BA22EA
:05129A0090029CEFF042
:10129F00E4A3F0A3F0A37403F090029CE090019BF1
:1012AF00F090029DE07002A3E060030213719002C0
:1012BF009FE0FF14F0EF70030213717B017A017945
:1012CF009A7D021213767F0D7E0012000E7B017A3B
:1012DF000179517D011213761217CD9002A0E4F01F
:1012EF00A3EFF0E4A3F0A3F09002A1E024FDFF90A0
:1012FF0002A0E034FFFEC39002A3E09FEE6480F8EB
:10130F009002A2E06480985098E0FEA3E024AAF532
:10131F008274013EF583E0647E70379002A2E0A3F1
:10132F00E024ACF58274013EF583E0B41124900201
:10133F00A2E0A3E024ADF58274013EF583E0FF90B7
:10134F00029CE0FEEFB5060AA3E4F0A304F0E4FE6E
:10135F00FF229002A3E004F070069002A2E004F0D6
:06136F0080867EFF7FFF77
:011375002255
:10003E0090023F7401F090023FE0D3940640030219
:10004E0004739001BA7401F0E0FF90023FE014FED9
:10005E00EFA806088002C333D8FC9001BAF0E490F2
:10006E000240F09001BAE014FF900240E0D39F40AE
:10007E000302046A9002447401F0E0FF90023FE034
:10008E00FEC374079EFEEFA806088002C333D8FC99
:10009E00900244F0E0FF900240E0FEEF8EF0A4905C
:1000AE000244F0900240E0A3F0900241E0C394407D
:1000BE004003020461E025E02407F582E43400F5F4
:1000CE0083E0FFA3E0900000CFF0A3EFF090024199
:1000DE00E025E024BDF582E43401F583E0FFA3E0E2
:1000EE00900289CFF0A3EFF09001BAE0FF900241A9
:1000FE00E02F25E02407F582E43400F583E0FFA32A
:10010E00E0900147CFF0A3EFF09001BAE0FF90022C
:10011E0041E02F25E02407F582E43400F583E0FC6E
:10012E00A3E0FD900244E024B5F582E43400F583AB
:10013E00E0FF3395E0FE120E06EF7807CEA2E7132E
:10014E00CE13D8F8FF900241E025E02407F582E4B3
:10015E003400F583E0FCA3E02FFBEC3EFA9001BAED
:10016E00E0FF900241E02F25E024BDF582E434014A
:10017E00F583E0FCA3E0FD900244E024F5F582E473
:10018E003400F583E0FF3395E0FE120E06EF78079C
:10019E00CEA2E713CE13D8F82BFFEA3EFE90024113
:1001AE00E025E02407F582E43400F583EEF0A3EFBA
:1001BE00F09001BAE0FF900241E02F25E02407F510
:1001CE0082E43400F583E0FCA3E0FD900244E024D9
:1001DE00F5F582E43400F583E0FF3395E0FE120E70
:1001EE0006EF7807CEA2E713CE13D8F8FF900241A0
:1001FE00E025E024BDF582E43401F583E0FCA3E0C4
:10020E00C39FFBEC9EFA9001BAE0FF900241E02FF3
:10021E0025E024BDF582E43401F583E0FCA3E0FD86
:10022E00900244E024B5F582E43400F583E0FF3318
:10023E0095E0FE120E06EF7807CEA2E713CE13D886
:10024E00F82BFFEA3EFE900241E025E024BDF58248
:10025E00E43401F583EEF0A3EFF09001BAE0FF90E5
:10026E000241E02F25E02407F582E43400F583E017
:10027E00FCA3E0FD900244E024B5F582E43400F5E1
:10028E0083E0FF3395E0FE120E06EF7807CEA2E76D
:10029E0013CE13D8F8FFC3900001E09FFB9000002F
:1002AE00E09EFA9001BAE0FF900241E02F25E02493
:1002BE00BDF582E43401F583E0FCA3E0FD90024439
:1002CE00E024F5F582E43400F583E0FF3395E0FE9B
:1002DE00120E06EF7807CEA2E713CE13D8F8FFC39F
:1002EE00EB9FFFEA9EFE9001BAE0FD900241E02DE9
:1002FE0025E02407F582E43400F583EEF0A3EFF059
:10030E00900244E024F5F582E43400F583E0FF33F7
:10031E0095E0FE900147E0FCA3E0FD120E06EF789B
:10032E0007CEA2E713CE13D8F8FF90028AE02FFB78
:10033E00900289E03EFA9001BAE0FF900241E02F70
:10034E0025E024BDF582E43401F583E0FCA3E0FD55
:10035E00900244E024B5F582E43400F583E0FF33E7
:10036E0095E0FE120E06EF7807CEA2E713CE13D855
:10037E00F8FFC3EB9FFFEA9EFE9001BAE0FD9002EC
:10038E0041E02D25E024BDF582E43401F583EEF045
:10039E00A3EFF0900241E025E02407F582E434005B
:1003AE00F583C083C082E0FEA3E0FFEEA2E713FE5A
:1003BE00EF13FFD082D083EEF0A3EFF0900241E076
:1003CE0025E024BDF582E43401F583C083C082E0CC
:1003DE00FEA3E0FFEEA2E713FEEF13FFD082D08361
:1003EE00EEF0A3EFF09001BAE0FF900241E02F256E
:1003FE00E02407F582E43400F583C083C082E0FE7A
:10040E00A3E0FFEEA2E713FEEF13FFD082D083EE40
:10041E00F0A3EFF09001BAE0FF900241E02F25E04B
:10042E0024BDF582E43401F583C083C082E0FEA3CF
:10043E00E0FFEEA2E713FEEF13FFD082D083EEF0C3
:10044E00A3EFF09001BAE025E0FF900241E02FF01B
:10045E000200B7900240E004F002007190023FE00B
:10046E0004F0020044E49001BDF0A3F0900007F008
:10047E00A3F0900240F0900240E0C39411400302BA
:10048E000831E025E024BDF582E43401F583E0FC7B
:10049E00A3E0FD900240E025E024BDF582E43401A6
:1004AE00F583E0FEA3E0FF120E06AA06AB0790024C
:1004BE0040E025E02407F582E43400F583E0FCA358
:1004CE00E0FD900240E025E02407F582E43400F5DB
:1004DE0083E0FEA3E0FF120E06EF2BFFEE3A900232
:1004EE003DF0A3EFF0C3E0940690023DE09400507F
:1004FE0007E4F0A3F00207D2C390023EE0940A9004
:10050E00023DE094005008E4F0A304F00207D2C3C9
:10051E0090023EE0941090023DE094005009E4F009
:10052E00A37402F00207D2C390023EE09419900227
:10053E003DE094005009E4F0A37403F00207D2C327
:10054E0090023EE0942490023DE094005009E4F0C5
:10055E00A37404F00207D2C390023EE094319002DD
:10056E003DE094005009E4F0A37405F00207D2C3F5
:10057E0090023EE0943790023DE094005009E4F082
:10058E00A37406F00207D2C390023EE0943C9002A0
:10059E003DE094005009E4F0A37407F00207D2C3C3
:1005AE0090023EE0944190023DE094005009E4F048
:1005BE00A37408F00207D2C390023EE09446900264
:1005CE003DE094005009E4F0A37409F00207D2C391
:1005DE0090023EE0944B90023DE094005009E4F00E
:1005EE00A3740AF00207D2C390023EE09450900228
:1005FE003DE094005009E4F0A3740BF00207D2C35F
:10060E0090023EE0946090023DE094005009E4F0C8
:10061E00A3740CF00207D2C390023EE0947D9002C8
:10062E003DE094005009E4F0A3740DF00207D2C32C
:10063E0090023EE0949C90023DE094005009E4F05C
:10064E00A3740EF00207D2C390023EE094BD900256
:10065E003DE094005009E4F0A3740FF00207D2C3FA
:10066E0090023EE094E090023DE094005009E4F0E8
:10067E00A37410F00207D2C390023EE094059002DC
:10068E003DE094015009E4F0A37411F00207D2C3C7
:10069E0090023EE0942C90023DE094015009E4F06B
:1006AE00A37412F00207D2C390023EE0945590025A
:1006BE003DE094015009E4F0A37413F00207D2C395
:1006CE0090023EE0948090023DE094015009E4F0E7
:1006DE00A37414F00207D2C390023EE094AD9002D0
:1006EE003DE094015009E4F0A37415F00207D2C363
:1006FE0090023EE094DC90023DE094015009E4F05B
:10070E00A37416F00207D2C390023EE0940D90023D
:10071E003DE094025009E4F0A37417F00207D2C32F
:10072E0090023EE0944090023DE094025009E4F0C5
:10073E00A37418F00207D2C390023EE094759002A3
:10074E003DE094025008E4F0A37419F08076C39053
:10075E00023EE094AC90023DE094025008E4F0A317
:10076E00741AF0805FC390023EE094E590023DE083
:10077E0094025008E4F0A3741BF08048C390023E2C
:10078E00E0942090023DE094035008E4F0A3741C22
:10079E00F08031C390023EE0945D90023DE0940300
:1007AE005008E4F0A3741DF0801AC390023DE0944B
:1007BE00045008E4F0A3741EF0800990023DE4F0AA
:1007CE00A3741FF090023DE0A3E0FF900240E024EE
:1007DE008AF582E43400F583EFF0900240E0245273
:1007EE00F582E43401F583E0FFD390023EE09F9062
:1007FE00023DE094004023E0A3E0FF900240E0249D
:10080E0052F582E43401F583EFF0900240E0247259
:10081E00F582E43401F5837407F0900240E004F0B1
:04082E00020484221A
:03003B00020F5D54
:100F5D00C0E0C0F0C083C082C0D075D000C000C05A
:100F6D0001C002C003C004C005C006C007E5EC30D7
:100F7D00E75C75EC007F057E0012000E90014FE0DE
:100F8D007002A3E0701F20971C43E98053EA7F4352
:100F9D00EB8090014FF0A304F0900005E4F0A30462
:100FAD00F0D291802690014FE07004A3E0640170AF
:100FBD001A30971743E98043EA8053EB7F90014F36
:100FCD00F0A3F0900005F0A3F0C2915387FDE5EC7E
:100FDD0030E25C75EC007F037E0012000E9001A8DC
:100FED00E07002A3E0701F20921C43E91053EAFB4E
:100FFD0043EB049001A8F0A304F09000B3E4F0A338
:10100D0004F0D29180269001A8E07004A3E0640161
:10101D00701A30921743E91043EA0453EBFB900129
:10102D00A8F0A3F09000B3F0A3F0C2915387FDE5B3
:10103D00EC30E37575EC007F037E0012000E90001E
:10104D0088E07002A3E0702A20932743E92053EA39
:10105D00F743EB08900088F0A304F090019FE4F0B3
:10106D00A3F09000AAF0A304F0C2917FCC121C71E2
:10107D008034900088E07004A3E064017028309300
:10108D002543E92043EA0853EBF7900088F0A3F0DD
:10109D0090019FF0A304F09000AA74FFF0A3F0D28A
:1010AD00917FDD121C715387FDD007D006D005D07E
:1010BD0004D003D002D001D000D0D0D082D083D0C4
:0410CD00F0D0E0324D
:03000B00021426B6
:10142600C0E0C0F0C083C082C0D075D000C000C08C
:1014360001C002C003C004C005C006C007C28DC2F9
:101446008C758AA8758C2FD28C900142E0FCA3E0A3
:10145600FDA3E0FEA3E02428FFE43EFEE43DFDE418
:101466003CFC900142120F20E47FE87E03FDFC90D5
:101476000142E0F8A3E0F9A3E0FAA3E0FBC3120EF1
:10148600FC402F900142120F2C00000000900149F1
:10149600E0FCA3E0FDA3E0FEA3E0FFE4FAF9F8EF29
:1014A6002401FFEA3EFEE93DFDE83CFC90014912BD
:1014B6000F20D007D006D005D004D003D002D0012B
:0D14C600D000D0D0D082D083D0F0D0E03262
:101AD100900298E4F0A37419F074FFA3F0A3F0C28C
:101AE1008190029874FFF5F0120E1845F060229073
:101AF100029AE0B4FF1BA3E0B4FF167F147E00122C
:101B0100000E7F1C12129A90029AEEF0A3EFF08061
:101B1100D07F787E0012000E9000AFE4F0A304F0B5
:011B210022A1
:1010D100A286E4FF33900298CFF0A3EFF0A287E459
:1010E100FF33A3CFF0A3EFF0A283E4FF33A3CFF04C
:1010F100A3EFF0A284E4FF33A3CFF0A3EFF0A29219
:10110100E433FB7A00C28C900149120F2C000000DD
:1011110000D281A283E4FF3390029CCFF0A3EFF0D1
:10112100A284E4FF33A3CFF0A3EFF0A286E4FF3360
:10113100900298CFF0A3EFF0A287E4FF33A3CFF0A2
:10114100A3EFF0A292E433FB53B1F753B2F753B1DB
:10115100EF53B2EF53B3FB53B4FBC283C284C286D5
:10116100C287C292E49000AFF0A3F0438702AF03BD
:10117100EF24FF929243B30453B4FB90029CE0FE30
:10118100A3E0FFEE4F24FF9283A3E0FEA3E0FFEE76
:101191004F24FF9284900298E0FEA3E0FFEE4F24DB
:1011A100FF9286A3E0FEA3E0FFEE4F24FF9287D2D9
:0811B1008C7F027E0012000E8B
:0111B9002213
:10175A00E4900298F0A3F053E8F043E80543B1108F
:10176A0053B2EFF5F643F62043E101D3900299E034
:10177A009440900298E0648094805046121BD3E40F
:10178A002FFDEE34FFFC900298E0FEA3E02449F519
:10179A008274023EF583E0FF3395E0FEEF25E0FF19
:1017AA00EE33FE74072FF58274003EF583ECF0A346
:1017BA00EDF0900299E004F07006900298E004F0CF
:0217CA0080A9F4
:0117CC0022FA
:101C2900AD07AC06ECFF3395E08FD3EDF5DB43D67A
:041C390002D2DE22D3
:101C3D00AD07AC06ECFF3395E08FD5EDF5DD43D662
:041C4D0008D2DE22B9
:101C5100AD07AC06ECFF3395E08FD4EDF5DC43D650
:041C610004D2DE22A9
:10183900A2AF9200C2AF75C7AA75C75543910143BC
:10184900C60275C7AA75C7555391FEA20092AF4348
:10185900DE08A2AF9200C2AF75C7AA75C7554391FA
:101869000143C60475C7AA75C7555391FEA20092D4
:10187900AF53DF3F43DF0353DFFB75D10775D9CF83
:10188900E4FFFE121C29E4FF121C3DE4FF121C5167
:03189900D2DF2279
:101BD300C2EFD2EE30EFFDE5C2540FFF1313543FB3
:101BE300FD7C00AFC3EF75F004A42DFFEC35F0FED0
:011BF30022CF
:1008320090028CE4F0A304F074FFA3F0A3F0E4F5BB
:10084200B1F5B1F5B3F5B4F5ACF5ADC29153B1FD67
:1008520043B202D2817F2C7E0112000E7F807E2560
:100862007D007C00121B6D7FAA121C717FAA121CD4
:10087200717FAA121C71438E02121AD15389F0534E
:100882008EF7438901758AA8758C2FD2A9D2AFD26F
:100892008C43B38053B47FA2AF920075C7AA75C7C9
:1008A2005575910143B18075C7AA75C755E4F59195
:1008B200A20092AF43E98043EA8053EB7F90014F5D
:1008C200F0A3F043B30853B4F7A2AF920075C7AADE
:1008D20075C75575910143B10875C7AA75C755F516
:1008E20091A20092AF43E92053EAF743EB0890004C
:1008F20088F0A304F043B30453B4FBA2AF92007593
:10090200C7AA75C755F59143B10475C7AA75C755EE
:10091200E4F591A20092AF43E91043EA0453EBFBE2
:100922009001A8F0A3F043E901439B02D2A8D2AF01
:100932001218397F2312129A900005E07004A3E086
:100942006401702E90019FE07002A3E0702474FF96
:10095200900005F0A3F09000AFE07002A3E07008F1
:10096200121AD17F2312129A121BF4E4900242F05F
:10097200A3F0900005E07002A3E0701A90019FE0DE
:100982007002A3E0701074FF900005F0A3F09002D3
:1009920042E4F0A304F09000B3E07002A3E07021FF
:1009A200900242E07004A3E064017015900242F0EC
:1009B200A3F09000AFE07004A3E064017003121B87
:1009C200229000B3E07004A3E064016003020ACF46
:1009D200900290F0A3F0A3F0A3F0A3F0A3F0A3F091
:1009E200A3F0D2DF12175A12003E90008CE0FF9063
:1009F200008BE02FFFE433FE90008DE07C002FFFA0
:100A0200EC3EFEA3E02FFFEC3EFEA3E02FFFEC3E08
:100A1200900292F0A3EFF0900091E0FF900090E03E
:100A22002FFFEC33FE900092E02FFFEC3EFEA3E09E
:100A32002FFFEC3EFEA3E02FFFEC3E900294F0A3CA
:100A4200EFF0900096E0FF900095E02FFFEC33FE70
:100A5200900097E02FFFEC3EFEA3E02FFFEC3EFE5E
:100A6200A3E02FFFEC3E900296F0A3EFF0900292EB
:100A7200E0FEA3E0FF7D03120E06900292EEF0A3C9
:100A8200EFF0A3E0FEA3E0FF120E06900294EEF058
:100A9200A3EFF0900294E0FEA3E0FF120E06900294
:100AA20094EEF0A3EFF0900292E0FEA3E0FF121C9E
:100AB20029A3E0FEA3E0FF121C3DA3E0FEA3E0FF9A
:0D0AC200121C51900149120F2C0000000081
:100ACF009000B3E07004A3E06401700F90019FE009
:100ADF007004A3E064017003121C659000B3E07012
:100AEF0002A3E07012FFFE121C29E4FF121C3DE46A
:100AFF00FF121C514387019000AAE07004A3E06429
:100B0F000170289000B3E07002A3E0701E7FF47EA6
:100B1F000112000E9000AAE07004A3E06401700BB4
:100B2F0074FF9000AAF0A3F0121C0F90019FE070C9
:100B3F0004A3E06401701C9000AFE07002A3E070AA
:100B4F0012900149120F2C00000000121AD17F23BE
:100B5F0012129A9000B3E07002A3E0702B90019FE5
:100B6F00E07002A3E070217F03FEFDFC900149E0DD
:100B7F00F8A3E0F9A3E0FAA3E0FBD3120EFC4008C0
:100B8F007FAA121C711210D190019FE07004A3E094
:100B9F006401600302093A7FB07E04FDFC900149B5
:100BAF00E0F8A3E0F9A3E0FAA3E0FBD3120EFC50A8
:0F0BBF000302093A7FBB121C711210D102093ACE
:010BCE002204
:10000E00E4FDFCC3ED9FEE6480F8EC648098501C18
:10001E00E4FBFAC3EB94D9EA6480948250070BEBAD
:0C002E0070010A80EE0DED70010C80D70F
:01003A0022A3
:101BA600E4FDFCC3ED9FEE6480F8EC648098501C65
:101BB600E4FBFAC3EB9448EA6480948050070BEB8D
:0C1BC60070010A80EE0DED70010C80D75C
:011BD20022F0
:1019BA009002BA120F20538EF7438901D28CE4FFAA
:1019CA00FEFDFC9002BAE0F8A3E0F9A3E0FAA3E076
:1019DA00FBC3120EFC6033758A7E758CFF308DFD59
:1019EA00C28D9002BAE0FCA3E0FDA3E0FEA3E0FFF3
:1019FA0074FFEF24FFFFEE34FFFEED34FFFDEC34FD
:0D1A0A00FFFC9002BA120F2080B4C28C22A3
:101A17009002BE120F20538EF7438901D28CE4FF48
:101A2700FEFDFC9002BEE0F8A3E0F9A3E0FAA3E014
:101A3700FBC3120EFC6033758ACA758CFA308DFDB4
:101A4700C28D9002BEE0FCA3E0FDA3E0FEA3E0FF91
:101A570074FFEF24FFFFEE34FFFEED34FFFDEC349F
:0D1A6700FFFC9002BE120F2080B4C28C2242
:101A74009002C2120F20538EEF438910D28EE4FFDE
:101A8400FEFDFC9002C2E0F8A3E0F9A3E0FAA3E0B3
:101A9400FBC3120EFC6033758BEA758DCB308FFD62
:101AA400C28F9002C2E0FCA3E0FDA3E0FEA3E0FF2E
:101AB40074FFEF24FFFFEE34FFFEED34FFFDEC3442
:0D1AC400FFFC9002C2120F2080B4C28E22DF
:10189C009002C6120F2053C9BF53C9DF43C910D2DF
:1018AC00CAE4FFFEFDFC9002C6E0F8A3E0F9A3E059
:1018BC00FAA3E0FBC3120EFC603375CC3075CDF887
:1018CC0030CFFDC2CF9002C6E0FCA3E0FDA3E0FE4A
:1018DC00A3E0FF74FFEF24FFFFEE34FFFEED34FFB7
:1018EC00FDEC34FFFC9002C6120F2080B4C2CA2259
:1018FC009002CA120F2075C40743C408E4FFFEFD12
:10190C00FC9002CAE0F8A3E0F9A3E0FAA3E0FBC361
:10191C00120EFC603675C52C75C6CFE5C430E4FBE1
:10192C0053C4EF9002CAE0FCA3E0FDA3E0FEA3E0E9
:10193C00FF74FFEF24FFFFEE34FFFEED34FFFDECF0
:0F194C0034FFFC9002CA120F2080B153C4F7225F
:10195B009002CE120F2075C40743C408E4FFFEFDAE
:10196B00FC9002CEE0F8A3E0F9A3E0FAA3E0FBC3FE
:10197B00120EFC603675C5D875C6FFE5C430E4FBA6
:10198B0053C4EF9002CEE0FCA3E0FDA3E0FEA3E086
:10199B00FF74FFEF24FFFFEE34FFFEED34FFFDEC91
:0F19AB0034FFFC9002CE120F2080B153C4F722FC
:101B6D0053B1BF53B2BF53B17F53B27F759850433A
:101B7D008920438780438E1053C4DFAB07AA06A983
:101B8D0005A8047F407E427D0F7C00120E6AEF0493
:091B9D00F404F58DD28ED29922D8
:10156D009002D2120F2053B1BF53B2BF53B17F536C
:10157D00B27F75985043878053C4F843C4209002BE
:10158D00D2E0F8A3E0F9A3E0FAA3E0FB7F407E42AE
:10159D007D0F7C00120E6AC374FF9FFF74FF9EFEC9
:1015AD00E49DFDE49CFC7808120F0D8FC69002D2CD
:1015BD00E0F8A3E0F9A3E0FAA3E0FB7F407E427DD3
:1015CD000F7C00120E6AC374FF9FFF74FF9EFEE432
:0F15DD009DFDE49CFCEFE48FC543C408D2992226
:070003003098FDAF99C2988F
:01000A0022D3
:081C7100C2998F993099FD2200
:1016E0009002D6120F2053B1FB53B2FB53B3BF533A
:1016F000B4BF75F85075C40853C4DF9002D6E0F843
:10170000A3E0F9A3E0FAA3E0FB7F407E427D0F7CDB
:1017100000120E6AC374FF9FFF74FF9EFEE49DFDDE
:10172000E49CFC7808120F0D8FC69002D6E0F8A357
:10173000E0F9A3E0FAA3E0FB7F407E427D0F7C004E
:10174000120E6AC374FF9FFF74FF9EFEE49DFDE4CA
:0A1750009CFCEFE48FC543C408229F
:071C790030F8FDAF9AC2F83C
:011C80002241
:081C8100C2F98F9A30F9FD222F
:101C0F0075C7AA75C755A2AF9200C2AF75C7AA759F
:0A1C1F00C755439F80A20092AF2238
:030000000214D314
:1014D300787FE4F6D8FD9000007FFF7E03E4F0A35D
:0A14E300DFFCDEFA758120021528F7
:1014ED00020832E493A3F8E493A34003F68001F2DB
:1014FD0008DFF48029E493A3F85407240CC8C33300
:10150D00C4540F4420C8834004F456800146F6DFCE
:10151D00E4800B0102040810204080900BCFE47E84
:10152D00019360BCA3FF543F30E509541FFEE493C3
:10153D00A360010ECF54C025E060A840B8E493A38A
:10154D00FAE493A3F8E493A3C8C582C8CAC583CAB5
:10155D00F0A3C8C582C8CAC583CADFE9DEE780BE6D
:010DD800001A
:100DD900BB010CE58229F582E5833AF583E02250CF
:100DE90006E92582F8E622BBFE06E92582F8E22219
:0D0DF900E58229F582E5833AF583E4932233
:100E0600EF8DF0A4A8F0CF8CF0A428CE8DF0A42E00
:020E1600FE22BA
:100E1800A3F8E0C5F025F0F0E5821582700215838D
:060E2800E0C838F0E822EA
:100E2E0075F008758200EF2FFFEE33FECD33CDCC7B
:100E3E0033CCC58233C5829BED9AEC99E5829840FE
:100E4E000CF582EE9BFEED9AFDEC99FC0FD5F0D6DB
:100E5E00E4CEFBE4CDFAE4CCF9A88222B800C1B905
:100E6E000059BA002DEC8BF084CFCECDFCE5F0CB43
:100E7E00F97818EF2FFFEE33FEED33FDEC33FCEB7C
:100E8E0033FB10D703994004EB99FB0FD8E5E4F937
:100E9E00FA227818EF2FFFEE33FEED33FDEC33FC24
:100EAE00C933C910D7059BE99A4007EC9BFCE99A18
:100EBE00F90FD8E0E4C9FAE4CCFB2275F010EF2F5D
:100ECE00FFEE33FEED33FDCC33CCC833C810D7075D
:100EDE009BEC9AE899400AED9BFDEC9AFCE899F898
:0E0EEE000FD5F0DAE4CDFBE4CCFAE4C8F9222B
:100EFC00EB9FF5F0EA9E42F0E99D42F0E89C45F04C
:010F0C0022C2
:100F0D00E8600FECC313FCED13FDEE13FEEF13FFC2
:030F1D00D8F122E6
:0C0F2000ECF0A3EDF0A3EEF0A3EFF02244
:100F2C00A8828583F0D083D082120F43120F431214
:100F3C000F43120F43E473E493A3C583C5F0C58339
:100F4C00C8C582C8F0A3C583C5F0C583C8C582C80F
:010F5C002272
:00000001FF
