:10092A00410028014100350E41002F0342003331B6
:10093A00104200093501420052350443002C42019D
:10094A0002430056410001430000410001430030C8
:10095A004201014200143503420010350241001FD2
:10096A001041000B1741002B1141005B1844004E47
:10097A007E0200EF46003A7E043E0000EF49001670
:10098A007E031000EF7E0200EF42002900014200C0
:10099A00400001420005000142000300004200122B
:1009AA0000004200380000420007FFFF420059FFE2
:1009BA00FF42000E000142000C0000440024000027
:1009CA0000004400200000000042003600004200FF
:0309DA00540000C6
:100DC200E490006DF0A3F0A3F0A374FAF02098175A
:100DD20090006F74FFF5F012052345F060097F0162
:100DE2007E0012114A80E630983A12000390006D9C
:100DF200E475F001120523FC744225F0F5827400BB
:100E02003CF583EFF090006F741FF0A37440F02064
:100E120098D590006F74FFF5F012052345F060C776
:0B0E220080ED80C390006DE0A3E0FFB6
:010E2D0022A2
:0B09DE0090006DEBF0A3EAF0A3E9F03D
:1009E900E4A3F0FF900080F0A3F0900070E0FE0413
:1009F900F074712EF582E43400F583747EF0ED0411
:100A0900FE900070E0FC04F074712CF582E434006F
:100A1900F583EEF0EFC39D502A90006DE0FBA3E053
:100A2900FAA3E0F98F827583001204F6FE90007034
:100A3900E0FC04F074712CF582E43400F583EEF0E7
:100A49000F80D1900070E02471F582E43400F583C1
:100A590074EFF0900070E0FFD3900081E09F748004
:100A6900F8900080E0648098501AE475F00112054E
:100A790023FE747125F0F58274003EF583E0FF12C0
:040A8900123D80CFCB
:010A8D002246
:0E077000900062EBF0A3EAF0A3E9F0A3EDF035
:10077E00E4A3F0A3F0A37402F0900066E07002A36D
:10078E00E0600302084B900068E0FF14F0EF700386
:10079E0002084B900062E0FBA3E0FAA3E0F9A3E0AD
:1007AE00FD1209DE120DC2900069E4F0A3EFF0E431
:1007BE00A3F0A3F090006AE024FDFF900069E034FE
:1007CE00FFFEC390006CE09FEE6480F890006BE03B
:1007DE0064809850A4E0FEA3E02442F58274003EAB
:1007EE00F583E0647E704590006BE0A3E02443F552
:1007FE008274003EF583E06402703190006BE0A3DA
:10080E00E02444F58274003EF583E0701F90006B87
:10081E00E0A3E02445F58274003EF583E0B4EF0CCE
:10082E00900066E4F0A304F0E4FEFF2290006CE07A
:10083E0004F0700690006BE004F00207C27EFF7FAA
:01084E00FFAA
:01084F002286
:100C54009000A27402F09000A2E0FF14F0EF60652F
:100C64007B017A00791F7D011209DE120DC2AD07E6
:100C74007C00E4FBFAED24FDFFEC34FFFEC3EB9FA4
:100C8400EE6480F8EA648098503274422BF58274E2
:100C9400003AF583E0B47E1D74442BF58274003A67
:100CA400F583E0B4100F74452BF58274003AF58394
:100CB400E0FF7E00220BEB70010A80B97F147E00F6
:090CC40012000E80917EFF7FFFFB
:010CCD002204
:100CCE009000627402F0900062E0FF14F0EF606535
:100CDE007B017A00790B7D011209DE120DC2AD0780
:100CEE007C00E4FBFAED24FCFFEC34FFFEC3EB9F2B
:100CFE00EE6480F8EA648098503274422BF5827468
:100D0E00003AF583E0B47E1D74442BF58274003AEC
:100D1E00F583E0B4170F74462BF58274003AF58311
:100D2E00E0FF7E00220BEB70010A80B97F147E007B
:090D3E0012000E80917EFF7FFF80
:010D47002289
:10119E007B017A00792C7D0312077090002EE004FB
:0B11AE00F0E0D3940240037401F02233
:1010C600120CCE900060EEF0A3EFF0D3E094029005
:1010D6000060E06480948040317B017A0079567D1F
:1010E60003120770900058E004F0900061E024FEBF
:1010F600FF900060E034FFFE900058E0D39FEE645E
:0A11060080F874809840037401F033
:0111100022BC
:08085000900060EEF0A3EFF050
:1008580090006074FFF5F012052345F0700302095B
:1008680026120DC2900062E4F0A3EFF0E4A3F0A317
:10087800F0900063E024FCFF900062E034FFFEC3C8
:10088800900065E09FEE6480F8900064E0648098D2
:1008980050BEE0FEA3E02442F58274003EF583E0FA
:1008A800B47E2B900064E0A3E02444F58274003EFB
:1008B800F583E0B43F18900064E0A3E02445F58296
:1008C80074003EF583E0B404057E007F01229000A9
:1008D80064E0FEA3E02442F58274003EF583E0B4B0
:1008E8007E2B900064E0A3E02444F58274003EF57A
:1008F80083E0B43F18900064E0A3E02445F58274D7
:10090800003EF583E0B40C057E007F02229000656E
:10091800E004F07006900064E004F0020879E4FE58
:01092800FFCF
:0109290022AB
:0C1231007B017A0079357D0112077022E4
:10120F00900034EFF07B017A0079337D0212077082
:01121F0022AC
:03003B0002035865
:10035800C0E0C0F0C083C082C0D075D000C000C06B
:1003680001C002C003C004C005C006C007E5EC30E8
:10037800E76775EC00539BFD7F017E0012000E902D
:100388000029E07002A3E0702220971F43E9805300
:10039800EA7F43EB80900029F0A304F0900003E487
:1003A800F0A304F0D2915387FD802B900029E070D0
:1003B80004A3E06401701F30971C43E98043EA807E
:1003C80053EB7F900029F0A3F0900003F0A3740290
:1003D800F0C2915387FD439B02E5EC30E26C75EC6B
:1003E8000090000EE07002A3E070030204DB539B50
:1003F800FD7F037E0012000E900040E07002A3E033
:10040800701F20921C43E91053EAFB43EB04900051
:1004180040F0A304F0900012E4F0A304F0D291801D
:1004280026900040E07004A3E06401701A3092172F
:1004380043E91043EA0453EBFB900040F0A3F0902B
:100448000012F0A3F0C291439B02E5EC20E3030203
:1004580004DB75EC00539BFD7F027E0012000E90BA
:100468000005E07002A3E0702F20932C43E920538D
:10047800EAF743EB08900005F0A304F0900038E495
:10048800F0A3F090005974FFF0A3F0900007E4F097
:10049800A304F05387FD8038900005E07004A3E0C2
:1004A8006401702C30932943E92043EA0853EBF7A1
:1004B800900005F0A3F0900038F0A304F090000736
:1004C80074FFF0A3F0900059E4F0A304F05387FD03
:1004D800439B02D007D006D005D004D003D002D069
:0E04E80001D000D0D0D082D083D0F0D0E0324E
:03000B00020A8E58
:100A8E00C0E0C0F0C083C082C0D075D000C000C02E
:100A9E0001C002C003C004C005C006C007C28DC29B
:100AAE008C758AA8758C2FD28C900020E0FCA3E068
:100ABE00FDA3E0FEA3E02428FFE43EFEE43DFDE4BA
:100ACE003CFC90002012062BE47FE87E03FDFC9098
:100ADE000020E0F8A3E0F9A3E0FAA3E0FBC31206BE
:100AEE0007402F90002012063700000000900024CF
:100AFE00E0FCA3E0FDA3E0FEA3E0FFE4FAF9F8EFCB
:100B0E002401FFEA3EFEE93DFDE83CFC9000241284
:100B1E00062BD007D006D005D004D003D002D001CA
:0D0B2E00D000D0D0D082D083D0F0D0E03203
:10117700C2817F107E0012085090000CEEF0A3EFA2
:10118700F0A3E4F0A304F07FCC12123D90000CE032
:07119700A3E0FF12123D224C
:08066800900060EEF0A3EFF03A
:10067000A286E4FF33A3CFF0A3EFF0A287E4FF3319
:10068000A3CFF0A3EFF0A283E4FF33A3CFF0A3EF57
:10069000F0A284E4FF33A3CFF0A3EFF0A292E433FF
:1006A000FB7A00539BFDC28C900024120637000099
:1006B0000000E490000EF0A3F0D281A283FF3390FB
:1006C0000066CFF0A3EFF0A284E4FF33A3CFF0A342
:1006D000EFF0A286E4FF33900062CFF0A3EFF0A228
:1006E00087E4FF33A3CFF0A3EFF0A292E433FB53F0
:1006F000B1F753B2F753B1EF53B2EF53B3FB53B467
:10070000FBC283C284C286C287C292439B0290000E
:1007100060E07004A3E064017003438702539BFD13
:10072000EA4B24FF929243B30453B4FB900066E07B
:10073000FEA3E0FFEE4F24FF9283A3E0FEA3E0FFC1
:10074000EE4F24FF9284900062E0FEA3E0FFEE4FA4
:1007500024FF9286A3E0FEA3E0FFEE4F24FF9287E2
:0F076000AE02AF03EA4B24FF9292D28C439B026E
:01076F002267
:10122000E4FFFE1206687F0A7E0012000E1211779C
:01123000229B
:1011D300AD07AC06ECFF3395E08FD3EDF5DB43D6DB
:0411E30002D2DE2234
:1011E700AD07AC06ECFF3395E08FD5EDF5DD43D6C3
:0411F70008D2DE221A
:1011FB00AD07AC06ECFF3395E08FD4EDF5DC43D6B1
:04120B0004D2DE2209
:100E2E00A2AF9200C2AF75C7AA75C75543910143D1
:100E3E00C60275C7AA75C7555391FEA20092AF435D
:100E4E00DE08A2AF9200C2AF75C7AA75C75543910F
:100E5E000143C60475C7AA75C7555391FEA20092E9
:100E6E00AF53DF3F43DF0353DFFB75D10775D9CF98
:100E7E00E4FFFE1211D3E4FF1211E7E4FF1211FB9F
:030E8E00D2DF228E
:10003E0090005CE4F0A304F074FFA3F0A3F0E4F5E9
:10004E00B1F5B1F5B3F5B4F5ACF5ADC29153B1FD63
:10005E0043B202D2817F2C7E0112000E7F807E255C
:10006E007D007C001211117FAA12123D7FAA12127E
:10007E003D438E021211775389F0538EF743890157
:10008E00758AA8758C2FD2A9D2AFD28C43B3805368
:10009E00B47FA2AF920075C7AA75C755759101437B
:1000AE00B18075C7AA75C755E4F591A20092AF430A
:1000BE00E98043EA8053EB7F900029F0A3F043B32D
:1000CE000853B4F7A2AF920075C7AA75C7557591BC
:1000DE000143B10875C7AA75C755F591A20092AF35
:1000EE0043E92053EAF743EB08900005F0A304F030
:1000FE0043B30453B4FBA2AF920075C7AA75C7559C
:10010E00F59143B10475C7AA75C755E4F591A200E0
:10011E0092AF43E91043EA0453EBFB900040F0A387
:10012E00F043E901439B02120E2E7F2312120F9011
:10013E000003E07004A3E06401702B900038E070BF
:10014E0002A3E07021900003F0A3F0900054F0A3FE
:10015E00F090000EE07002A3E070081211777F237A
:10016E0012120F12119E900003E07004A3E06402BD
:10017E007022900038E07002A3E07018900054E0F6
:10018E007002A3E0700E900003F0A3F0900054F004
:10019E00A37402F0900012E07002A3E0703590009C
:1001AE0054E07004A3E06402702990000EE0700425
:1001BE00A3E06401701D1210C67F0A7E0012000EAD
:1001CE00900012E07004A3E064017007900054F0F8
:1001DE00A304F0900012E07004A3E06401700D43DC
:1001EE00870190002412063700000000900012E0F4
:1001FE007002A3E07012FFFE1211D3E4FF1211E79A
:10020E00E4FF1211FB438701D2917F0A7E00120098
:10021E000EC2917F147E0012000E900007E0700453
:10022E00A3E06401701E7F2C7E0112000E90000769
:10023E00E07004A3E06401700B74FF900007F0A35C
:10024E00F01211B9900059E07004A3E06401701D22
:10025E007F64FE12000E900059E07004A3E064016A
:10026E00700B74FF900059F0A3F012122090001240
:10027E00E07004A3E06401700F900038E07004A3F6
:10028E00E064017003121231900012E07002A3E0DC
:10029E00702F900038E07002A3E070257F05FEFD00
:1002AE00FC900024E0F8A3E0F9A3E0FAA3E0FBD36E
:1002BE00120607400C7FAA12123D7F017E00120625
:1002CE0068900038E07004A3E06401703290000C76
:1002DE00E07004A3E0640270267FB07E04FDFC9003
:1002EE000024E0F8A3E0F9A3E0FAA3E0FBD31206A2
:1002FE0007400C7FBB12123D7F017E0012066890F4
:10030E000038E07004A3E06401600302013D900038
:10031E000CE07004A3E06402700302013DE47F3C34
:10032E00FEFDFC900024E0F8A3E0F9A3E0FAA3E0C0
:10033E00FBD3120607500302013D7FCC12123D7F04
:09034E00017E0012066802013D67
:010357002283
:10000E00E4FDFCC3ED9FEE6480F8EC648098501C18
:10001E00E4FBFAC3EB94D9EA6480948250070BEBAD
:0C002E0070010A80EE0DED70010C80D70F
:01003A0022A3
:10114A00E4FDFCC3ED9FEE6480F8EC648098501CCB
:10115A00E4FBFAC3EB9448EA6480948050070BEBF3
:0C116A0070010A80EE0DED70010C80D7C2
:011176002256
:100FAF0090008212062B538EF7438901D28CE4FFF7
:100FBF00FEFDFC900082E0F8A3E0F9A3E0FAA3E0C5
:100FCF00FBC31206076033758A7E758CFF308DFD6B
:100FDF00C28D900082E0FCA3E0FDA3E0FEA3E0FF42
:100FEF0074FFEF24FFFFEE34FFFEED34FFFDEC3412
:0D0FFF00FFFC90008212062B80B4C28C22F1
:10100C0090008612062B538EF7438901D28CE4FF95
:10101C00FEFDFC900086E0F8A3E0F9A3E0FAA3E063
:10102C00FBC31206076033758ACA758CFA308DFDC6
:10103C00C28D900086E0FCA3E0FDA3E0FEA3E0FFE0
:10104C0074FFEF24FFFFEE34FFFEED34FFFDEC34B4
:0D105C00FFFC90008612062B80B4C28C228F
:1010690090008A12062B538EEF438910D28EE4FF2B
:10107900FEFDFC90008AE0F8A3E0F9A3E0FAA3E002
:10108900FBC31206076033758BEA758DCB308FFD74
:10109900C28F90008AE0FCA3E0FDA3E0FEA3E0FF7D
:1010A90074FFEF24FFFFEE34FFFEED34FFFDEC3457
:0D10B900FFFC90008A12062B80B4C28E222C
:100E910090008E12062B53C9BF53C9DF43C910D22C
:100EA100CAE4FFFEFDFC90008EE0F8A3E0F9A3E0A8
:100EB100FAA3E0FBC3120607603375CC3075CDF899
:100EC10030CFFDC2CF90008EE0FCA3E0FDA3E0FE99
:100ED100A3E0FF74FFEF24FFFFEE34FFFEED34FFCC
:100EE100FDEC34FFFC90008E12062B80B4C2CA22A6
:100EF10090009212062B75C40743C408E4FFFEFD5F
:100F0100FC900092E0F8A3E0F9A3E0FAA3E0FBC3B0
:100F1100120607603675C52C75C6CFE5C430E4FBF3
:100F210053C4EF900092E0FCA3E0FDA3E0FEA3E038
:100F3100FF74FFEF24FFFFEE34FFFEED34FFFDEC05
:0F0F410034FFFC90009212062B80B153C4F722AC
:100F500090009612062B75C40743C408E4FFFEFDFB
:100F6000FC900096E0F8A3E0F9A3E0FAA3E0FBC34D
:100F7000120607603675C5D875C6FFE5C430E4FBB8
:100F800053C4EF900096E0FCA3E0FDA3E0FEA3E0D5
:100F9000FF74FFEF24FFFFEE34FFFEED34FFFDECA6
:0F0FA00034FFFC90009612062B80B153C4F72249
:1011110053B1BF53B2BF53B17F53B27F75985043A0
:101121008920438780438E1053C4DFAB07AA06A9E9
:1011310005A8047F407E427D0F7C00120575EF04F7
:09114100F404F58DD28ED299223E
:100BD50090009A12062B53B1BF53B2BF53B17F5346
:100BE500B27F75985043878053C4F843C420900062
:100BF5009AE0F8A3E0F9A3E0FAA3E0FB7F407E4288
:100C05007D0F7C00120575C374FF9FFF74FF9EFE68
:100C1500E49DFDE49CFC78081206188FC690009AA6
:100C2500E0F8A3E0F9A3E0FAA3E0FB7F407E427D74
:100C35000F7C00120575C374FF9FFF74FF9EFEE4D1
:0F0C45009DFDE49CFCEFE48FC543C408D29922C7
:070003003098FDAF99C2988F
:01000A0022D3
:08123D00C2998F993099FD223E
:100D480090009E12062B53B1FB53B2FB53B3BF5313
:100D5800B4BF75F85075C40853C4DF90009EE0F81E
:100D6800A3E0F9A3E0FAA3E0FB7F407E427D0F7C7D
:100D780000120575C374FF9FFF74FF9EFEE49DFD7E
:100D8800E49CFC78081206188FC690009EE0F8A331
:100D9800E0F9A3E0FAA3E0FB7F407E427D0F7C00F0
:100DA800120575C374FF9FFF74FF9EFEE49DFDE46A
:0A0DB8009CFCEFE48FC543C4082241
:0712450030F8FDAF9AC2F87A
:01124C00227F
:08124D00C2F98F9A30F9FD226D
:1011B90075C7AA75C755A2AF9200C2AF75C7AA7500
:0A11C900C755439F80A20092AF2299
:03000000020B3BB5
:100B3B00787FE4F6D8FD9000007FFF7E03E4F0A3FE
:0A0B4B00DFFCDEFA758120020B903A
:100B550002003EE493A3F8E493A34003F68001F278
:100B650008DFF48029E493A3F85407240CC8C333A1
:100B7500C4540F4420C8834004F456800146F6DF70
:100B8500E4800B010204081020408090092AE47ECD
:100B9500019360BCA3FF543F30E509541FFEE49365
:100BA500A360010ECF54C025E060A840B8E493A32C
:100BB500FAE493A3F8E493A3C8C582C8CAC583CA57
:100BC500F0A3C8C582C8CAC583CADFE9DEE780BE0F
:0109DD000019
:1004F600BB010CE58229F582E5833AF583E02250BB
:1005060006E92582F8E622BBFE06E92582F8E22204
:0D051600E58229F582E5833AF583E493221E
:10052300A3F8E0C5F025F0F0E5821582700215838B
:06053300E0C838F0E822E8
:1005390075F008758200EF2FFFEE33FECD33CDCC79
:1005490033CCC58233C5829BED9AEC99E5829840FC
:100559000CF582EE9BFEED9AFDEC99FC0FD5F0D6D9
:10056900E4CEFBE4CDFAE4CCF9A88222B800C1B903
:100579000059BA002DEC8BF084CFCECDFCE5F0CB41
:10058900F97818EF2FFFEE33FEED33FDEC33FCEB7A
:1005990033FB10D703994004EB99FB0FD8E5E4F935
:1005A900FA227818EF2FFFEE33FEED33FDEC33FC22
:1005B900C933C910D7059BE99A4007EC9BFCE99A16
:1005C900F90FD8E0E4C9FAE4CCFB2275F010EF2F5B
:1005D900FFEE33FEED33FDCC33CCC833C810D7075B
:1005E9009BEC9AE899400AED9BFDEC9AFCE899F896
:0E05F9000FD5F0DAE4CDFBE4CCFAE4C8F92229
:10060700EB9FF5F0EA9E42F0E99D42F0E89C45F049
:0106170022C0
:10061800E8600FECC313FCED13FDEE13FEEF13FFC0
:03062800D8F122E4
:0C062B00ECF0A3EDF0A3EEF0A3EFF02242
:10063700A8828583F0D083D08212064E12064E120E
:10064700064E12064EE473E493A3C583C5F0C58333
:10065700C8C582C8F0A3C583C5F0C583C8C582C80D
:010667002270
:00000001FF
