:100CE60042014E000041015C0E42015A311043019F
:100CF600574201014301F24100014100C817420079
:100D06000020016040010D000C1824303B4650596C
:100D160062697075797C7E7F7E7C797570696259AF
:100D260050463B3024180C00F4E8DCD0C5BAB0A716
:100D36009E97908B878482818284878B90979EA7CB
:100D4600B0BAC5D0DCE8F4604000CB7F7E7C797514
:100D56007069625950463B3024180C00F4E8DCD028
:100D6600C5BAB0A79E97908B878482818284878B31
:100D760090979EA7B0BAC5D0DCE8F4000C182430D2
:100D86003B46505962697075797C7E604001F60079
:100D960020103008281838042414340C2C1C3C026B
:100DA6002212320A2A1A3A062616360E2E1E3E013E
:100DB60021113109291939052515350D2D1D3D033B
:100DC6002313330B2B1B3B072717370F2F1F3F60B0
:100DD60080000300FF00000000000000000000008B
:100DE60000000000000000000000000000000000FD
:100DF60000000000000000000000000000000000ED
:100E060000000000000000000000000000000000DC
:100E160000000000000000000000000000000000CC
:100E260000000000000000000000000000000000BC
:100E360000000000000000000000000000000000AC
:100E4600000000000000000000000000000000009C
:100E56000000004101560141015E0141008401414B
:100E660000CA0041015D00410002004100C7004187
:100E76000238004100C9004101F5004101F100417D
:100E8600014D004100830042015000004201540020
:100E96000042010B000042023600004200850000BD
:050EA6004201520000B2
:10154900E490028AF0A3F0A3F0A374FAF0209817AC
:1015590090028C74FFF5F0120B7D45F060097F0154
:101569007E00121CF880E630985012000390028A1F
:10157900E475F001120B7DFC745F25F0F5827401AE
:101589003CF583EFF0C390028BE0941290028AE05D
:10159900648094804005E0A3E0FF2290028C741FD0
:1015A900F0A37440F02098BF90028C74FFF5F012FC
:1015B9000B7D45F060B180ED80AD90028AE0A3E03B
:0115C900FF22
:0115CA0022FE
:0B135F0090028AEBF0A3EAF0A3E9F093
:10136A00E4A3F0FF90029DF0A3F090028DE0FE044A
:10137A00F0748E2EF582E43402F583747EF0ED0467
:10138A00FE90028DE0FC04F0748E2CF582E43402A7
:10139A00F583EEF0EFC39D502A90028AE0FBA3E0AA
:1013AA00FAA3E0F98F82758300120B08FE90028D72
:1013BA00E0FC04F0748E2CF582E43402F583EEF03E
:1013CA000F80D190028DE0248EF582E43402F583F9
:1013DA0074EFF090028DE0FFD390029EE09F74803C
:1013EA00F890029DE0648098501AE475F001120B9F
:1013FA007DFE748E25F0F58274023EF583E0FF12BD
:04140A001DAF80CFC3
:01140E0022BB
:0E10E80090027FEBF0A3EAF0A3E9F0A3EDF095
:1010F600E4A3F0A3F0A37402F0900283E07002A3CD
:10110600E060030211C3900285E0FF14F0EF700364
:101116000211C390027FE0FBA3E0FAA3E0F9A3E08B
:10112600FD12135F121549900286E4F0A3EFF0E476
:10113600A3F0A3F0900287E024FDFF900286E0343E
:10114600FFFEC3900289E09FEE6480F8900288E07B
:1011560064809850A4E0FEA3E0245FF58274013E0B
:10116600F583E0647E7045900288E0A3E02460F594
:101176008274013EF583E064027031900288E0A338
:10118600E02461F58274013EF583E0701F900288C9
:10119600E0A3E02462F58274013EF583E0B4EF0C2F
:1011A600900283E4F0A304F0E4FEFF22900289E0BB
:1011B60004F07006900288E004F002113A7EFF7F88
:0111C600FF29
:0111C7002205
:10164A0090027F7402F090027FE0FF14F0EF606571
:10165A007B017A0079C87D0112135F121549AD0723
:10166A007C00E4FBFAED24FCFFEC34FFFEC3EB9FA5
:10167A00EE6480F8EA6480985032745F2BF58274C5
:10168A00013AF583E0B47E1D74612BF58274013A48
:10169A00F583E0B4170F74632BF58274013AF5836E
:1016AA00E0FF7E00220BEB70010A80B97F147E00F6
:0916BA0012000E80917EFF7FFFFB
:0116C3002204
:1016C40090027D7402F090027DE0FF14F0EF6065FB
:1016D4007B017A0079007D0212135F121549AD0770
:1016E4007C00E4FBFAED24FCFFEC34FFFEC3EB9F2B
:1016F400EE6480F8EA6480985032745F2BF582744B
:10170400013AF583E0B47E1D74612BF58274013ACD
:10171400F583E0B4200F74632BF58274013AF583EA
:10172400E0FF7E00220BEB70010A80B97F147E007B
:0917340012000E80917EFF7FFF80
:01173D002289
:101C77001216C490014EEEF0A3EFF0D3E09400905B
:101C8700014EE06480948040117B017A0179577D91
:101C9700031210E8900159E004F0900159E0FFC3E6
:101CA70090014FE09F7480F890014EE06480985057
:081CB700069001597401F022AE
:1018E20012164A90027DEEF0A3EFF090014EE0FE58
:1018F200A3E0FFD390027EE09FEE6480F890027D29
:10190200E064809840387B017A0179F27D031210FD
:10191200E89001F4E004F090014EE0FEA3E0FFC382
:1019220090027EE09FFF90027DE09EFE9001F4E037
:0E193200D39FEE6480F874809840037401F037
:011940002284
:0811C80090027DEEF0A3EFF0B0
:1011D00090027D74FFF5F0120B7D45F07003021252
:1011E0009A12154990027FE4F0A3EFF0E4A3F0A374
:1011F000F0900280E024FCFF90027FE034FFFEC309
:10120000900282E09FEE6480F8900281E064809812
:1012100050BEE0FEA3E0245FF58274013EF583E05A
:10122000B47E29900281E0A3E02461F58274013E3E
:10123000F583E0B43F16900281E0A3E02462F582DA
:1012400074013EF583E0B404037F0122900281E043
:10125000FEA3E0245FF58274013EF583E0B47E29AD
:10126000900281E0A3E02461F58274013EF583E001
:10127000B43F16900281E0A3E02462F58274013E3F
:10128000F583E0B40C037F0222900282E004F07048
:0C12900006900281E004F00211F17F00E2
:01129C00222F
:0C1DA3007B017A01795C7D011210E822BE
:101D820090015BEFF07B017A01795A7D021210E833
:011D9200222E
:10003E00900282740FF0E4A3F090027D04F090021F
:10004E007DE0D39406400302047B9002807401F09D
:10005E00E0FF90027DE014FEEFA806088002C33395
:10006E00D8FC900280F0E490027EF0900280E014C2
:10007E00FF90027EE0D39F400302047290028174CF
:10008E0001F0E0FF90027DE0FEC374079EFEEFA834
:10009E0006088002C333D8FC900281F0E0FF900284
:1000AE007EE0FEEF8EF0A4900281F090027EE0A33F
:1000BE00F090027FE0C394404003020469E025E023
:1000CE002403F582E43400F583E0FFA3E09002847C
:1000DE00CFF0A3EFF090027FE025E02471F582E4EB
:1000EE003401F583E0FFA3E0900286CFF0A3EFF09A
:1000FE00900280E0FF90027FE02F25E02403F5823E
:10010E00E43400F583E0FFA3E0900288CFF0A3EF84
:10011E00F0900280E0FF90027FE02F25E02403F5AF
:10012E0082E43400F583E0FCA3E0FD900281E0243C
:10013E00CBF582E43400F583E0FF3395E0FE120B3D
:10014E0035EF7807CEA2E713CE13D8F8FF90027FD3
:10015E00E025E02403F582E43400F583E0FCA3E01F
:10016E002FFBEC3EFA900280E0FF90027FE02F25FD
:10017E00E02471F582E43401F583E0FCA3E0FD9008
:10018E000281E0240DF582E43401F583E0FF33951E
:10019E00E0FE120B35EF7807CEA2E713CE13D8F898
:1001AE002BFFEA3EFE90027FE025E02403F582E479
:1001BE003400F583EEF0A3EFF0900280E0FF9002A2
:1001CE007FE02F25E02403F582E43400F583E0FC84
:1001DE00A3E0FD900281E0240DF582E43401F58365
:1001EE00E0FF3395E0FE120B35EF7807CEA2E71352
:1001FE00CE13D8F8FF90027FE025E02471F582E45B
:10020E003401F583E0FCA3E0C39FFBEC9EFA900261
:10021E0080E0FF90027FE02F25E02471F582E43428
:10022E0001F583E0FCA3E0FD900281E024CBF58292
:10023E00E43400F583E0FF3395E0FE120B35EF78E2
:10024E0007CEA2E713CE13D8F82BFFEA3EFE90029C
:10025E007FE025E02471F582E43401F583EEF0A30E
:10026E00EFF0900280E0FF90027FE02F25E0240364
:10027E00F582E43400F583E0FCA3E0FD900281E01A
:10028E0024CBF582E43400F583E0FF3395E0FE12D3
:10029E000B35EF7807CEA2E713CE13D8F8FFC39035
:1002AE000285E09FFB900284E09EFA900280E0FFC0
:1002BE0090027FE02F25E02471F582E43401F5836E
:1002CE00E0FCA3E0FD900281E0240DF582E4340110
:1002DE00F583E0FF3395E0FE120B35EF7807CEA2E3
:1002EE00E713CE13D8F8FFC3EB9FFFEA9EFE9002F2
:1002FE0080E0FD90027FE02D25E02403F582E434BA
:10030E0000F583EEF0A3EFF0900281E0240DF5826C
:10031E00E43401F583E0FF3395E0FE900288E0FCC3
:10032E00A3E0FD120B35EF7807CEA2E713CE13D85C
:10033E00F8FF900287E02FFB900286E03EFA9002D3
:10034E0080E0FF90027FE02F25E02471F582E434F7
:10035E0001F583E0FCA3E0FD900281E024CBF58261
:10036E00E43400F583E0FF3395E0FE120B35EF78B1
:10037E0007CEA2E713CE13D8F8FFC3EB9FFFEA9E7A
:10038E00FE900280E0FD90027FE02D25E02471F5C5
:10039E0082E43401F583EEF0A3EFF090027FE025C6
:1003AE00E02403F582E43400F583C083C082E0FECE
:1003BE00A3E0FFEEA2E713FEEF13FFD082D083EE91
:1003CE00F0A3EFF090027FE025E02471F582E43493
:1003DE0001F583C083C082E0FEA3E0FFEEA2E71327
:1003EE00FEEF13FFD082D083EEF0A3EFF0900280E9
:1003FE00E0FF90027FE02F25E02403F582E4340035
:10040E00F583C083C082E0FEA3E0FFEEA2E713FEF9
:10041E00EF13FFD082D083EEF0A3EFF0900280E0D6
:10042E00FF90027FE02F25E02471F582E43401F580
:10043E0083C083C082E0FEA3E0FFEEA2E713FEEFCF
:10044E0013FFD082D083EEF0A3EFF0900280E02570
:10045E00E0FF90027FE02FF00200BF90027EE004EA
:10046E00F002007990027DE004F002004CE490016D
:10047E0071F0A3F0900003F0A3F090027EF09002D2
:10048E007EE0C3942040030207FFE025E02471F5CF
:10049E0082E43401F583E0FCA3E0FD90027EE025CA
:1004AE00E02471F582E43401F583E0FEA3E0FF124F
:1004BE000B35AA06AB0790027EE025E02403F582F9
:1004CE00E43400F583E0FCA3E0FD90027EE025E03D
:1004DE002403F582E43400F583E0FEA3E0FF120B63
:1004EE0035EF2BFFEE3A90028AF0A3EFF0C3E094C3
:1004FE000490028AE094005007E4F0A3F00207DAB9
:10050E00C390028BE0940990028AE094005008E4B4
:10051E00F0A304F00207DAC390028BE0941090026D
:10052E008AE094005009E4F0A37402F00207DAC3E3
:10053E0090028BE0941990028AE094005009E4F046
:10054E00A37403F00207DAC390028BE094249002A6
:10055E008AE094005009E4F0A37404F00207DAC3B1
:10056E0090028BE0943190028AE094005009E4F0FE
:10057E00A37405F00207DAC390028BE09437900261
:10058E008AE094005009E4F0A37406F00207DAC37F
:10059E0090028BE0943C90028AE094005009E4F0C3
:1005AE00A37407F00207DAC390028BE09441900225
:1005BE008AE094005009E4F0A37408F00207DAC34D
:1005CE0090028BE0944690028AE094005009E4F089
:1005DE00A37409F00207DAC390028BE0944B9002E9
:1005EE008AE094005009E4F0A3740AF00207DAC31B
:1005FE0090028BE0945090028AE094005009E4F04F
:10060E00A3740BF00207DAC390028BE094609002A1
:10061E008AE094005009E4F0A3740CF00207DAC3E8
:10062E0090028BE0947D90028AE094005009E4F0F1
:10063E00A3740DF00207DAC390028BE0949C900233
:10064E008AE094005009E4F0A3740EF00207DAC3B6
:10065E0090028BE094BD90028AE094005009E4F081
:10066E00A3740FF00207DAC390028BE094E09002BD
:10067E008AE094005009E4F0A37410F00207DAC384
:10068E0090028BE0940590028AE094015009E4F008
:10069E00A37411F00207DAC390028BE0942C90023F
:1006AE008AE094015009E4F0A37412F00207DAC351
:1006BE0090028BE0945590028AE094015009E4F088
:1006CE00A37413F00207DAC390028BE094809002B9
:1006DE008AE094015009E4F0A37414F00207DAC31F
:1006EE0090028BE094AD90028AE094015009E4F000
:1006FE00A37415F00207DAC390028BE094DC90022B
:10070E008AE094015009E4F0A37416F00207DAC3EC
:10071E0090028BE0940D90028AE094025009E4F06E
:10072E00A37417F00207DAC390028BE09440900294
:10073E008AE094025009E4F0A37418F00207DAC3B9
:10074E0090028BE0947590028AE094025008E4F0D7
:10075E00A37419F08076C390028BE094AC90028A59
:10076E00E094025008E4F0A3741AF0805FC3900284
:10077E008BE094E590028AE094025008E4F0A374B2
:10078E001BF08048C390028BE0942090028AE09484
:10079E00035008E4F0A3741CF08031C390028BE088
:1007AE00945D90028AE094035008E4F0A3741DF067
:1007BE00801AC390028AE094045008E4F0A3741ED9
:1007CE00F0800990028AE4F0A3741FF090028AE090
:1007DE00FEA3E0FF90027EE025E02487F582E4345C
:1007EE0000F583EEF0A3EFF090027EE004F0020439
:0107FE008C6E
:0107FF0022D7
:03003B00020EAC06
:100EAC00C0E0C0F0C083C082C0D075D000C000C00C
:100EBC0001C002C003C004C005C006C007E5EC3089
:100ECC00E74F75EC00539BFD7F017E0012000E90E6
:100EDC000156E0701920971643E98053EA7F43EBE3
:100EEC008004F0900002F0D2915387FD8020900195
:100EFC0056E0B4011930971643E98043EA8053EB6E
:100F0C007FE4F09000027402F0C2915387FD439B82
:100F1C0002E5EC30E24C75EC009000C9E070030285
:100F2C000FD1539BFD7F037E0012000E90015EE0FB
:100F3C00701420921143E91053EAFB43EB0404F0C4
:100F4C009000CAF0801990015EE0B4011230920F4B
:100F5C0043E91043EA0453EBFBE4F09000CAF0437E
:100F6C009B02E5EC30E35E75EC00539BFD7F027E4B
:100F7C000012000E900084E0702120931E43E920A3
:100F8C0053EAF743EB0804F090015DE4F09002386B
:100F9C00F09000C704F05387FD8027900084E06434
:100FAC0001701F30931C43E92043EA0853EBF7F020
:100FBC0090015D04F09000C7E4F090023804F05307
:100FCC0087FD439B02D007D006D005D004D003D0B8
:100FDC0002D001D000D0D0D082D083D0F0D0E0327B
:03000B00021C2DA7
:101C2D00C0E0C083C082C0D0C28DC28C758AA87539
:101C3D008C2FD28C900151E02428F0900150E0348B
:101C4D0000F0C3A3E094E8900150E094034012E447
:101C5D00F0A3F0900155E004F07006900154E004FB
:0A1C6D00F0D0D0D082D083D0E03256
:101D2500C2817F107E001211C89001F5EFF090007E
:101D3500C97401F07FCC121DAF9001F5E0FF121DB3
:021D4500AF22CB
:10140F00A286E433F9A287E433FEA283E433FDA27C
:10141F0084E433FBA292E433FA539BFDC28CE49035
:10142F000154F0A3F09000C9F0D281A28333FDA242
:10143F0084E433FBA286E433F9A287E433FEA2925D
:10144F00E433FA53B1F753B2F753B1EF53B2EF534B
:10145F00B3FB53B4FBC283C284C286C287C292431A
:10146F009B02EFB40103438702539BFDEA24FF92D3
:10147F009243B30453B4FBAF05ED24FF9283AF0344
:10148F00EB24FF9284AF01E924FF9286AF06EE248E
:0F149F00FF9287AF02EA24FF9292D28C439B0206
:0114AE00221B
:101D9300E4FF12140F7F0A7E0012000E121D25228B
:1019FF00AB07AA06EB4A700690010BF0A3F0D39049
:101A0F00010CE09BEA6480F890010BE06480984041
:101A1F0013A3E024F7F090010BE034FFF0E0FAA3FA
:101A2F00E0FB800890010BEAF0A3EBF07C007D5007
:101A3F00AF03AE02120B35AA06AB07EAFF3395E0F0
:0D1A4F008FD3AF03EFF5DB43D602D2DE22CA
:101A5C00AB07AA06EB4A7006900236F0A3F0D390BF
:101A6C000237E09BEA6480F8900236E0648098408C
:101A7C0013A3E024F7F0900236E034FFF0E0FAA371
:101A8C00E0FB8008900236EAF0A3EBF07C007D507E
:101A9C00AF03AE02120B35AA06AB07EAFF3395E093
:0D1AAC008FD5AF03EFF5DD43D608D2DE2263
:101AB900AB07AA06EB4A7006900085F0A3F0D39015
:101AC9000086E09BEA6480F8900085E06480984095
:101AD90013A3E024F7F0900085E034FFF0E0FAA3C7
:101AE900E0FB8008900085EAF0A3EBF07C007D50D4
:101AF900AF03AE02120B35AA06AB07EAFF3395E036
:0D1B09008FD4AF03EFF5DC43D604D2DE220B
:1017B800A2AF9200C2AF75C7AA75C755439101433E
:1017C800C60275C7AA75C7555391FEA20092AF43CA
:1017D800DE08A2AF9200C2AF75C7AA75C75543917C
:1017E8000143C60475C7AA75C7555391FEA2009256
:1017F800AF53DF3F43DF0353DFFB75D10775D9CF05
:10180800E4FFFE1219FFE4FFFE121A5CE4FFFE1269
:051818001AB9D2DF2225
:101D4700C2EFD2EE30EFFDE5C2540FFF1313543F3D
:101D5700FD7C00AFC3EF75F004A42DFFEC35F0FE5A
:011D67002259
:10181D00E4FBFA53E8F043E80543B11053B2EFF59A
:10182D00F643F62043E101EBC394405047121D47A8
:10183D00EF7802CEA2E713CE13D8F82400FDEE34D4
:10184D00FFFC74F62BF582E43401F583E0FF33954C
:10185D00E0FEEF25E0FFEE33FE74032FF5827400FA
:10186D003EF583ECF0A3EDF00BE4FAEAC3940A50D5
:04187D00B60A80F730
:011881002244
:04129D00AB07AA06EB
:1012A100E49002A9F0A37409F0E4A3F0C3EA648016
:1012B1009480500A7401F0C3E49BFBE49AFAEB4A70
:1012C10070149002AAE0FF14F0749F2FF582E434A9
:1012D10002F5837430F0D3EB9400EA64809480408B
:0112E10038D4
:1012E2007C007D0AAF03AE02120B479002ACEDF018
:1012F200E02430FF9002AAE0FE14F0749F2EF582E3
:10130200E43402F583EFF07C007D0AAF03AE0212F3
:061312000B47AA06AB0721
:1013180080BD9002ABE0B401149002AAE0FF14F083
:10132800749F2FF582E43402F583742DF09002AA9D
:10133800E0049002A9F09002A9E0C3940A5017E0D3
:10134800249FF582E43402F583E0FF121DBF90026A
:06135800A9E004F080E0B2
:01135E00226C
:060FEC009002AD120C851D
:100FF200E49002B1F0A3F053E8F043E80543B110E6
:1010020053B2EFF5F643F62043E101D2AE538EF729
:10101200438901D28CE4FFFEFDFC9002ADE0F8A30F
:10102200E0F9A3E0FAA3E0FBC3120C617003021023
:10103200D1758AEA758CCB208D6A121D47E42FFD8B
:10104200EE34FFFC900152E0FEA3E024F6F5827438
:10105200013EF583E0FF3395E0FEEF25E0FFEE333E
:10106200FE74032FF58274003EF583ECF0A3EDF0DD
:10107200900153E004F07006900152E004F0E49015
:1010820002B1F0A3F0C39002B2E0940D9002B1E07D
:101092006480948050A1A3E004F070069002B1E055
:1010A20004F080E1C28D9002ADE0FCA3E0FDA3E07C
:1010B200FEA3E0FF74FFEF24FFFFEE34FFFEED34EA
:1010C200FFFDEC34FFFC9002AD120C85021017906C
:1010D2000152E0FEA3E0FF12129DE4900152F0A340
:0510E200F0C28CC2AE5B
:0110E70022E6
:10080000E4F5B1F5B1F5B3F5B4F5ACF5ADC291537E
:10081000B1FD43B202D2817F2C7E0112000E7F8097
:100820007E257D007C00121CBF7F007EC27D017C86
:100830000012173E7FAA121DAF7FAA121DAF438E72
:1008400002121D255389F0538EF7438901758AA83A
:10085000758C2FD2A9D2AFD28C43B38053B47FA270
:10086000AF920075C7AA75C75575910143B18075E0
:10087000C7AA75C755E4F591A20092AF43E980433A
:10088000EA8053EB7F900156F043B30853B4F7A2CC
:10089000AF920075C7AA75C75575910143B1087528
:1008A000C7AA75C755F591A20092AF43E92053EA54
:1008B000F743EB0890008404F043B30453B4FBA265
:1008C000AF920075C7AA75C755F59143B10475C7B6
:1008D000AA75C755E4F591A20092AF43E91043EA27
:1008E0000453EBFB90015EF043E901439B021217B6
:1008F000B87F23121D82900002E06401703E9001D7
:100900005DE07038900002F09001F1F09000C9E0D5
:100910007008121D257F23121D82121C777F057E11
:100920000012000E9000CAE0B4010BE4900083F0C6
:1009300090014DF08006900083E004F0900002E00A
:10094000B4021690015DE070109001F1E0700A9021
:100950000002F09001F17402F09000CAE07037904C
:1009600001F1E06402702F9000C9E0B40128121870
:10097000E27F057E0012000E9000CAE0B4011190E3
:1009800001F17401F0E490014DF0900083F08006D5
:1009900090014DE004F090014DE0C39402400E90B0
:1009A0000083E0940240069000C77401F09000CAF2
:0509B000E06401706F1E
:1009B500900239F0A3F0A3F0A3F0A3F0A3F0A3F005
:1009C500A3F0D2DF12181D12003E900089E0FFA3AC
:1009D500E090023BCFF0A3EFF09000B5E0FFA3E07D
:1009E50090023DCFF0A3EFF09000BDE0FFA3E090B3
:1009F500023FCFF0A3EFF090023BE0FEA3E0FF1231
:100A050019FF90023DE0FEA3E0FF121A5C90023F41
:0F0A1500E0FEA3E0FF121AB9E4900154F0A3F041
:100A24009000CAE07014FFFE1219FFE4FFFE121AD0
:100A34005CE4FFFE121AB9438701D2917F0A7E005B
:100A440012000EC2917F147E0012000E9000C7E0C7
:100A5400B401137F2C7E0112000E9000C7E0B40194
:100A640005E4F0121D68900238E0B401137F647E3F
:100A74000012000E900238E0B40105E4F0121D9358
:100A84009000CAE0B4010A90015DE0B40103121DB4
:100A9400A39000CAE0701A90015DE07014D3900135
:100AA40055E09408900154E0940040057F0112142D
:100AB4000F90015DE0B4011B9001F5E0B40214D382
:100AC400900155E094B0900154E0940440057F01F6
:100AD40012140F90015DE0640160030208F69001B6
:100AE400F5E0640270030208F6D3900155E094B077
:100AF400900154E0940450030208F67F0112140F8D
:040B04000208F622CB
:10000E00E4FDFCC3ED9FEE6480F8EC648098501C18
:10001E00E4FBFAC3EB94D9EA6480948250070BEBAD
:0C002E0070010A80EE0DED70010C80D70F
:01003A0022A3
:101CF800E4FDFCC3ED9FEE6480F8EC648098501C12
:101D0800E4FBFAC3EB9448EA6480948050070BEB39
:0C1D180070010A80EE0DED70010C80D708
:011D2400229C
:101B16009002B3120C85538EF7438901D28CE4FFF1
:101B2600FEFDFC9002B3E0F8A3E0F9A3E0FAA3E01F
:101B3600FBC3120C616033758A7E758CFF308DFD98
:101B4600C28D9002B3E0FCA3E0FDA3E0FEA3E0FF9C
:101B560074FFEF24FFFFEE34FFFEED34FFFDEC349F
:0D1B6600FFFC9002B3120C8580B4C28C22EB
:101B73009002B7120C85538EF7438901D28CE4FF90
:101B8300FEFDFC9002B7E0F8A3E0F9A3E0FAA3E0BE
:101B9300FBC3120C616033758ACA758CFA308DFDF4
:101BA300C28D9002B7E0FCA3E0FDA3E0FEA3E0FF3B
:101BB30074FFEF24FFFFEE34FFFEED34FFFDEC3442
:0D1BC300FFFC9002B7120C8580B4C28C228A
:101BD0009002BB120C85538EEF438910D28EE4FF26
:101BE000FEFDFC9002BBE0F8A3E0F9A3E0FAA3E05D
:101BF000FBC3120C616033758BEA758DCB308FFDA2
:101C0000C28F9002BBE0FCA3E0FDA3E0FEA3E0FFD7
:101C100074FFEF24FFFFEE34FFFEED34FFFDEC34E4
:0D1C2000FFFC9002BB120C8580B4C28E2226
:101882009002BF120C8553C9BF53C9DF43C910D29E
:10189200CAE4FFFEFDFC9002BFE0F8A3E0F9A3E07A
:1018A200FAA3E0FBC3120C61603375CC3075CDF83E
:1018B20030CFFDC2CF9002BFE0FCA3E0FDA3E0FE6B
:1018C200A3E0FF74FFEF24FFFFEE34FFFEED34FFD1
:1018D200FDEC34FFFC9002BF120C8580B4C2CA2218
:101941009002C3120C8575C40743C408E4FFFEFD71
:10195100FC9002C3E0F8A3E0F9A3E0FAA3E0FBC323
:10196100120C61603675C52C75C6CFE5C430E4FB39
:1019710053C4EF9002C3E0FCA3E0FDA3E0FEA3E0AB
:10198100FF74FFEF24FFFFEE34FFFEED34FFFDECAB
:0F19910034FFFC9002C3120C8580B153C4F722BF
:1019A0009002C7120C8575C40743C408E4FFFEFD0E
:1019B000FC9002C7E0F8A3E0F9A3E0FAA3E0FBC3C0
:1019C000120C61603675C5D875C6FFE5C430E4FBFE
:1019D00053C4EF9002C7E0FCA3E0FDA3E0FEA3E048
:1019E000FF74FFEF24FFFFEE34FFFEED34FFFDEC4C
:0F19F00034FFFC9002C7120C8580B153C4F7225C
:101CBF0053B1BF53B2BF53B17F53B27F75985043E7
:101CCF008920438780438E1053C4DFAB07AA06A930
:101CDF0005A8047F407E427D0F7C00120BCFEF04DE
:091CEF00F404F58DD28ED2992285
:1015CB009002CB120C8553B1BF53B2BF53B17F53B3
:1015DB00B27F75985043878053C4F843C420900260
:1015EB00CBE0F8A3E0F9A3E0FAA3E0FB7F407E4257
:1015FB007D0F7C00120BCFC374FF9FFF74FF9EFE09
:10160B00E49DFDE49CFC7808120C728FC69002CB13
:10161B00E0F8A3E0F9A3E0FAA3E0FB7F407E427D74
:10162B000F7C00120BCFC374FF9FFF74FF9EFEE471
:0F163B009DFDE49CFCEFE48FC543C408D29922C7
:070003003098FDAF99C2988F
:01000A0022D3
:081DAF00C2998F993099FD22C1
:10173E0090027D120C8553B1FB53B2FB53B3BF53D2
:10174E00B4BF75F85075C40853C4DF90027DE0F83D
:10175E00A3E0F9A3E0FAA3E0FB7F407E427D0F7C7D
:10176E0000120BCFC374FF9FFF74FF9EFEE49DFD1E
:10177E00E49CFC7808120C728FC690027DE0F8A3F0
:10178E00E0F9A3E0FAA3E0FB7F407E427D0F7C00F0
:10179E00120BCFC374FF9FFF74FF9EFEE49DFDE40A
:0A17AE009CFCEFE48FC543C4082241
:071DB70030F8FDAF9AC2F8FD
:011DBE002202
:081DBF00C2F98F9A30F9FD22F0
:101D680075C7AA75C755A2AF9200C2AF75C7AA7545
:0A1D7800C755439F80A20092AF22DE
:030000000214AF38
:1014AF00787FE4F6D8FD9000007FFF7E03E4F0A381
:0A14BF00DFFCDEFA7581200215043F
:1014C900020800E493A3F8E493A34003F68001F231
:1014D90008DFF48029E493A3F85407240CC8C33324
:1014E900C4540F4420C8834004F456800146F6DFF3
:1014F900E4800B0102040810204080900CE6E47E91
:10150900019360BCA3FF543F30E509541FFEE493E7
:10151900A360010ECF54C025E060A840B8E493A3AE
:10152900FAE493A3F8E493A3C8C582C8CAC583CAD9
:10153900F0A3C8C582C8CAC583CADFE9DEE780BE91
:010EAB000046
:100B0800BB010CE58229F582E5833AF583E02250A2
:100B180006E92582F8E622BBFE06E92582F8E222EC
:0D0B2800E58229F582E5833AF583E4932206
:100B3500EF8DF0A4A8F0CF8CF0A428CE8DF0A42ED4
:020B4500FE228E
:100B4700C2D5EC30E709B2D5E4C39DFDE49CFCEEC9
:100B570030E715B2D5E4C39FFFE49EFE120C91C3A4
:100B6700E49DFDE49CFC8003120C9130D507C3E49F
:060B77009FFFE49EFE2238
:100B7D00A3F8E0C5F025F0F0E5821582700215832B
:060B8D00E0C838F0E82288
:100B930075F008758200EF2FFFEE33FECD33CDCC19
:100BA30033CCC58233C5829BED9AEC99E58298409C
:100BB3000CF582EE9BFEED9AFDEC99FC0FD5F0D679
:100BC300E4CEFBE4CDFAE4CCF9A88222B800C1B9A3
:100BD3000059BA002DEC8BF084CFCECDFCE5F0CBE1
:100BE300F97818EF2FFFEE33FEED33FDEC33FCEB1A
:100BF30033FB10D703994004EB99FB0FD8E5E4F9D5
:100C0300FA227818EF2FFFEE33FEED33FDEC33FCC1
:100C1300C933C910D7059BE99A4007EC9BFCE99AB5
:100C2300F90FD8E0E4C9FAE4CCFB2275F010EF2FFA
:100C3300FFEE33FEED33FDCC33CCC833C810D707FA
:100C43009BEC9AE899400AED9BFDEC9AFCE899F835
:0E0C53000FD5F0DAE4CDFBE4CCFAE4C8F922C8
:100C6100EB9FF5F0EA9E42F0E99D42F0E89C45F0E9
:010C71002260
:100C7200E8600FECC313FCED13FDEE13FEEF13FF60
:030C8200D8F12284
:0C0C8500ECF0A3EDF0A3EEF0A3EFF022E2
:100C9100BC000BBE0029EF8DF084FFADF022E4CC47
:100CA100F875F008EF2FFFEE33FEEC33FCEE9DEC10
:100CB100984005FCEE9DFE0FD5F0E9E4CEFD22ED56
:100CC100F8F5F0EE8420D21CFEADF075F008EF2FA0
:100CD100FFED33FD4007985006D5F0F222C398FD91
:050CE1000FD5F0EA222E
:00000001FF
