:1009A00041002C014100390E410033034200373130
:1009B0001042000B3501420056350443003042011D
:1009C0000243005A4100014300004100014300344A
:1009D0004201014200163503420012350241002354
:1009E0001041000D1741002F1141005F18440052C3
:1009F0007E0200EF46003E7E043E0000EF49001AF2
:100A00007E031000EF7E0200EF42002D0001420045
:100A10004400014200070001420014000042003C73
:100A200000004200030000420009FFFF42005DFF9A
:100A3000FF420010000142000E00004400280000A8
:100A400000004400240000000042003A0000420080
:0D0A500058000042001800004200050000A0
:100E4200E4900071F0A3F0A3F0A374FAF0209817D5
:100E520090007374FFF5F012059945F060097F0167
:100E62007E001211CA80E630983A12000390007197
:100E7200E475F001120599FC744625F0F5827400C0
:100E82003CF583EFF0900073741FF0A37440F020E0
:100E920098D590007374FFF5F012059945F060C77C
:0B0EA20080ED80C3900071E0A3E0FF32
:010EAD002222
:0B0A5E00900071EBF0A3EAF0A3E9F0B8
:100A6900E4A3F0FF900084F0A3F0900074E0FE048A
:100A7900F074752EF582E43400F583747EF0ED048C
:100A8900FE900074E0FC04F074752CF582E43400E7
:100A9900F583EEF0EFC39D502A900071E0FBA3E0CF
:100AA900FAA3E0F98F8275830012056CFE90007439
:100AB900E0FC04F074752CF582E43400F583EEF063
:100AC9000F80D1900074E02475F582E43400F58339
:100AD90074EFF0900074E0FFD3900085E09F74807C
:100AE900F8900084E0648098501AE475F0011205CA
:100AF90099FE747525F0F58274003EF583E0FF12C6
:040B090012BD80CFCA
:010B0D0022C5
:0E07E600900066EBF0A3EAF0A3E9F0A3EDF0BB
:1007F400E4A3F0A3F0A37402F090006AE07002A3F3
:10080400E060030208C190006CE0FF14F0EF700395
:100814000208C1900066E0FBA3E0FAA3E0F9A3E0BC
:10082400FD120A5E120E4290006DE4F0A3EFF0E4B4
:10083400A3F0A3F090006EE024FDFF90006DE0347F
:10084400FFFEC3900070E09FEE6480F890006FE0BC
:1008540064809850A4E0FEA3E02446F58274003E30
:10086400F583E0647E704590006FE0A3E02447F5D3
:100874008274003EF583E06402703190006FE0A35F
:10088400E02448F58274003EF583E0701F90006F09
:10089400E0A3E02449F58274003EF583E0B4EF0C54
:1008A40090006AE4F0A304F0E4FEFF22900070E0FC
:1008B40004F0700690006FE004F00208387EFF7FB9
:0108C400FF34
:0108C5002210
:100CD4009000A67402F09000A6E0FF14F0EF6065A7
:100CE4007B017A0079237D01120A5E120E42AD0760
:100CF4007C00E4FBFAED24FDFFEC34FFFEC3EB9F24
:100D0400EE6480F8EA648098503274462BF582745D
:100D1400003AF583E0B47E1D74482BF58274003AE2
:100D2400F583E0B4100F74492BF58274003AF5830F
:100D3400E0FF7E00220BEB70010A80B97F147E0075
:090D440012000E80917EFF7FFF7A
:010D4D002283
:100D4E009000667402F0900066E0FF14F0EF6065AC
:100D5E007B017A00790D7D01120A5E120E42AD07FB
:100D6E007C00E4FBFAED24FCFFEC34FFFEC3EB9FAA
:100D7E00EE6480F8EA648098503274462BF58274E3
:100D8E00003AF583E0B47E1D74482BF58274003A68
:100D9E00F583E0B4170F744A2BF58274003AF5838D
:100DAE00E0FF7E00220BEB70010A80B97F147E00FB
:090DBE0012000E80917EFF7FFF00
:010DC7002209
:10121E007B017A0079307D031207E6900032E004FC
:0B122E00F0E0D3940240037401F022B2
:10114600120D4E900064EEF0A3EFF0D3E0940290FF
:101156000064E06480948040317B017A00795A7D96
:10116600031207E690005CE004F0900065E024FEC0
:10117600FF900064E034FFFE90005CE0D39FEE64D5
:0A11860080F874809840037401F0B3
:01119000223C
:0808C600900064EEF0A3EFF0D6
:1008CE0090006474FFF5F012059945F0700302096B
:1008DE009C120E42900066E4F0A3EFF0E4A3F0A3A6
:1008EE00F0900067E024FCFF900066E034FFFEC34A
:1008FE00900069E09FEE6480F8900068E064809854
:10090E0050BEE0FEA3E02446F58274003EF583E07F
:10091E00B47E2B900068E0A3E02448F58274003E7C
:10092E00F583E0B43F18900068E0A3E02449F58217
:10093E0074003EF583E0B404057E007F0122900032
:10094E0068E0FEA3E02446F58274003EF583E0B431
:10095E007E2B900068E0A3E02448F58274003EF5FB
:10096E0083E0B43F18900068E0A3E02449F5827458
:10097E00003EF583E0B40C057E007F0222900069F4
:10098E00E004F07006900068E004F00208EFE4FE68
:01099E00FF59
:01099F002235
:0C12B1007B017A0079397D011207E622EA
:10128F00900038EFF07B017A0079377D021207E684
:01129F00222C
:03003B000203CEEF
:1003CE00C0E0C0F0C083C082C0D075D000C000C0F5
:1003DE0001C002C003C004C005C006C007E5EC3072
:1003EE00E76775EC00539BFD7F017E0012000E90B7
:1003FE00002DE07002A3E0702220971F43E9805386
:10040E00EA7F43EB8090002DF0A304F0900003E40C
:10041E00F0A304F0D2915387FD802B90002DE07055
:10042E0004A3E06401701F30971C43E98043EA8007
:10043E0053EB7F90002DF0A3F0900003F0A3740215
:10044E00F0C2915387FD439B02E5EC30E26C75ECF4
:10045E0000900010E07002A3E07003020551539B60
:10046E00FD7F037E0012000E900044E07002A3E0B8
:10047E00701F20921C43E91053EAFB43EB049000DB
:10048E0044F0A304F0900014E4F0A304F0D29180A1
:10049E0026900044E07004A3E06401701A309217B5
:1004AE0043E91043EA0453EBFB900044F0A3F090B1
:1004BE000014F0A3F0C291439B02E5EC20E303028B
:1004CE00055175EC00539BFD7F027E0012000E90CD
:1004DE000007E07002A3E0702F20932C43E9205315
:1004EE00EAF743EB08900007F0A304F090003CE419
:1004FE00F0A3F090005D74FFF0A3F0900009E4F01B
:10050E00A304F05387FD8038900007E07004A3E049
:10051E006401702C30932943E92043EA0853EBF72A
:10052E00900007F0A3F090003CF0A304F0900009B7
:10053E0074FFF0A3F090005DE4F0A304F05387FD88
:10054E00439B02D007D006D005D004D003D002D0F2
:0E055E0001D000D0D0D082D083D0F0D0E032D7
:03000B00020B0ED7
:100B0E00C0E0C0F0C083C082C0D075D000C000C0AD
:100B1E0001C002C003C004C005C006C007C28DC21A
:100B2E008C758AA8758C2FD28C900024E0FCA3E0E3
:100B3E00FDA3E0FEA3E02428FFE43EFEE43DFDE439
:100B4E003CFC9000241206A1E47FE87E03FDFC909D
:100B5E000024E0F8A3E0F9A3E0FAA3E0FBC3120639
:100B6E007D402F9000241206AD000000009000285A
:100B7E00E0FCA3E0FDA3E0FEA3E0FFE4FAF9F8EF4A
:100B8E002401FFEA3EFEE93DFDE83CFC9000281200
:100B9E0006A1D007D006D005D004D003D002D001D4
:0D0BAE00D000D0D0D082D083D0F0D0E03283
:1011F700C2817F107E001208C690000EEEF0A3EFAA
:10120700F0A3E4F0A304F07FCC1212BD90000EE02F
:07121700A3E0FF1212BD224B
:0806DE00900064EEF0A3EFF0C0
:1006E600A286E4FF33A3CFF0A3EFF0A287E4FF33A3
:1006F600A3CFF0A3EFF0A283E4FF33A3CFF0A3EFE1
:10070600F0A284E4FF33A3CFF0A3EFF0A292E43388
:10071600FB7A00539BFDC28C9000281206AD0000A8
:100726000000E4900010F0A3F0D281A283FF339082
:10073600006ACFF0A3EFF0A284E4FF33A3CFF0A3C7
:10074600EFF0A286E4FF33900066CFF0A3EFF0A2AD
:1007560087E4FF33A3CFF0A3EFF0A292E433FB5379
:10076600B1F753B2F753B1EF53B2EF53B3FB53B4F0
:10077600FBC283C284C286C287C292439B02900098
:1007860064E07004A3E064017003438702539BFD99
:10079600EA4B24FF929243B30453B4FB90006AE001
:1007A600FEA3E0FFEE4F24FF9283A3E0FEA3E0FF4B
:1007B600EE4F24FF9284900066E0FEA3E0FFEE4F2A
:1007C60024FF9286A3E0FEA3E0FFEE4F24FF92876C
:0F07D600AE02AF03EA4B24FF9292D28C439B02F8
:0107E50022F1
:1012A000E4FFFE1206DE7F0A7E0012000E1211F726
:0112B000221B
:10125300AD07AC06ECFF3395E08FD3EDF5DB43D65A
:0412630002D2DE22B3
:10126700AD07AC06ECFF3395E08FD5EDF5DD43D642
:0412770008D2DE2299
:10127B00AD07AC06ECFF3395E08FD4EDF5DC43D630
:04128B0004D2DE2289
:100EAE00A2AF9200C2AF75C7AA75C7554391014351
:100EBE00C60275C7AA75C7555391FEA20092AF43DD
:100ECE00DE08A2AF9200C2AF75C7AA75C75543918F
:100EDE000143C60475C7AA75C7555391FEA2009269
:100EEE00AF53DF3F43DF0353DFFB75D10775D9CF18
:100EFE00E4FFFE121253E4FF121267E4FF12127B9C
:030F0E00D2DF220D
:10003E00900060E4F0A304F074FFA3F0A3F0E4F5E5
:10004E00B1F5B1F5B3F5B4F5ACF5ADC29153B1FD63
:10005E0043B202D2817F2C7E0112000E7F807E255C
:10006E007D007C001211917FAA1212BD7FAA12127E
:10007E00BD438E021211F75389F0538EF743890157
:10008E00758AA8758C2FD2A9D2AFD28C43B3805368
:10009E00B47FA2AF920075C7AA75C755759101437B
:1000AE00B18075C7AA75C755E4F591A20092AF430A
:1000BE00E98043EA8053EB7F90002DF0A3F043B329
:1000CE000853B4F7A2AF920075C7AA75C7557591BC
:1000DE000143B10875C7AA75C755F591A20092AF35
:1000EE0043E92053EAF743EB08900007F0A304F02E
:1000FE0043B30453B4FBA2AF920075C7AA75C7559C
:10010E00F59143B10475C7AA75C755E4F591A200E0
:10011E0092AF43E91043EA0453EBFB900044F0A383
:10012E00F043E901439B02120EAE7F0F12128F9025
:10013E000003E07004A3E06401705A90003CE0708C
:10014E0002A3E07050900003F0A3F0900058F0A3CB
:10015E00F0900010E07002A3E070081211F77F0F0C
:10016E0012128F12121E7F057E0012000E900014C6
:10017E00E07004A3E06401700E900005F0A3F0900F
:10018E000018F0A3F0800E900006E004F0700690C8
:10019E000005E004F0900003E07004A3E064027038
:1001AE002290003CE07002A3E07018900058E070BE
:1001BE0002A3E0700E900003F0A3F0900058F0A39D
:1001CE007402F0900014E07002A3E0705290005898
:1001DE00E07004A3E064027046900010E07004A387
:1001EE00E06401703A1211467F057E0012000E90F7
:1001FE000014E07004A3E064017016900058F0A3A0
:10020E0004F0E4900018F0A3F0900005F0A3F08045
:10021E000E900019E004F07006900018E004F0D380
:10022E00900019E09402900018E0648094804019C8
:10023E00D3900006E09402900005E0648094804024
:10024E0008900009E4F0A304F0900014E07004A3F9
:10025E00E06401700D4387019000281206AD000086
:10026E000000900014E07002A3E07012FFFE121264
:10027E0053E4FF121267E4FF12127B438701D291FF
:10028E007F0A7E0012000EC2917F147E0012000EB5
:10029E00900009E07004A3E06401701E7F2C7E01C3
:1002AE0012000E900009E07004A3E06401700B745C
:1002BE00FF900009F0A3F012123990005DE0700477
:1002CE00A3E06401701D7F64FE12000E90005DE0DD
:1002DE007004A3E06401700B74FF90005DF0A3F056
:1002EE001212A0900014E07004A3E06401700F904D
:1002FE00003CE07004A3E0640170031212B19000A0
:10030E0014E07002A3E0702F90003CE07002A3E0B6
:10031E0070257F05FEFDFC900028E0F8A3E0F9A310
:10032E00E0FAA3E0FBD312067D400C7FAA1212BDA9
:10033E007F017E001206DE90003CE07004A3E064B4
:10034E0001703290000EE07004A3E0640270267F0C
:10035E00B07E04FDFC900028E0F8A3E0F9A3E0FADB
:10036E00A3E0FBD312067D400C7FBB1212BD7F01B2
:10037E007E001206DE90003CE07004A3E064016093
:10038E000302013D90000EE07004A3E064027003CE
:10039E0002013DE47F3CFEFDFC900028E0F8A3E066
:1003AE00F9A3E0FAA3E0FBD312067D500302013D50
:0F03BE007FCC1212BD7F017E001206DE02013DD0
:0103CD00220D
:10000E00E4FDFCC3ED9FEE6480F8EC648098501C18
:10001E00E4FBFAC3EB94D9EA6480948250070BEBAD
:0C002E0070010A80EE0DED70010C80D70F
:01003A0022A3
:1011CA00E4FDFCC3ED9FEE6480F8EC648098501C4B
:1011DA00E4FBFAC3EB9448EA6480948050070BEB73
:0C11EA0070010A80EE0DED70010C80D742
:0111F60022D6
:10102F009000861206A1538EF7438901D28CE4FFFC
:10103F00FEFDFC900086E0F8A3E0F9A3E0FAA3E040
:10104F00FBC312067D6033758A7E758CFF308DFD74
:10105F00C28D900086E0FCA3E0FDA3E0FEA3E0FFBD
:10106F0074FFEF24FFFFEE34FFFEED34FFFDEC3491
:0D107F00FFFC9000861206A180B4C28C22F6
:10108C0090008A1206A1538EF7438901D28CE4FF9B
:10109C00FEFDFC90008AE0F8A3E0F9A3E0FAA3E0DF
:1010AC00FBC312067D6033758ACA758CFA308DFDD0
:1010BC00C28D90008AE0FCA3E0FDA3E0FEA3E0FF5C
:1010CC0074FFEF24FFFFEE34FFFEED34FFFDEC3434
:0D10DC00FFFC90008A1206A180B4C28C2295
:1010E90090008E1206A1538EEF438910D28EE4FF31
:1010F900FEFDFC90008EE0F8A3E0F9A3E0FAA3E07E
:10110900FBC312067D6033758BEA758DCB308FFD7D
:10111900C28F90008EE0FCA3E0FDA3E0FEA3E0FFF8
:1011290074FFEF24FFFFEE34FFFEED34FFFDEC34D6
:0D113900FFFC90008E1206A180B4C28E2231
:100F11009000921206A153C9BF53C9DF43C910D231
:100F2100CAE4FFFEFDFC900092E0F8A3E0F9A3E023
:100F3100FAA3E0FBC312067D603375CC3075CDF8A2
:100F410030CFFDC2CF900092E0FCA3E0FDA3E0FE14
:100F5100A3E0FF74FFEF24FFFFEE34FFFEED34FF4B
:100F6100FDEC34FFFC9000921206A180B4C2CA22AB
:100F71009000961206A175C40743C408E4FFFEFD64
:100F8100FC900096E0F8A3E0F9A3E0FAA3E0FBC32C
:100F910012067D603675C52C75C6CFE5C430E4FBFD
:100FA10053C4EF900096E0FCA3E0FDA3E0FEA3E0B4
:100FB100FF74FFEF24FFFFEE34FFFEED34FFFDEC85
:0F0FC10034FFFC9000961206A180B153C4F722B2
:100FD00090009A1206A175C40743C408E4FFFEFD01
:100FE000FC90009AE0F8A3E0F9A3E0FAA3E0FBC3C9
:100FF00012067D603675C5D875C6FFE5C430E4FBC2
:1010000053C4EF90009AE0FCA3E0FDA3E0FEA3E050
:10101000FF74FFEF24FFFFEE34FFFEED34FFFDEC25
:0F10200034FFFC90009A1206A180B153C4F7224E
:1011910053B1BF53B2BF53B17F53B27F7598504320
:1011A1008920438780438E1053C4DFAB07AA06A969
:1011B10005A8047F407E427D0F7C001205EBEF0401
:0911C100F404F58DD28ED29922BE
:100C550090009E1206A153B1BF53B2BF53B17F534B
:100C6500B27F75985043878053C4F843C4209000E1
:100C75009EE0F8A3E0F9A3E0FAA3E0FB7F407E4203
:100C85007D0F7C001205EBC374FF9FFF74FF9EFE72
:100C9500E49DFDE49CFC780812068E8FC690009EAC
:100CA500E0F8A3E0F9A3E0FAA3E0FB7F407E427DF4
:100CB5000F7C001205EBC374FF9FFF74FF9EFEE4DB
:0F0CC5009DFDE49CFCEFE48FC543C408D2992247
:070003003098FDAF99C2988F
:01000A0022D3
:0812BD00C2998F993099FD22BE
:100DC8009000A21206A153B1FB53B2FB53B3BF5319
:100DD800B4BF75F85075C40853C4DF9000A2E0F89A
:100DE800A3E0F9A3E0FAA3E0FB7F407E427D0F7CFD
:100DF800001205EBC374FF9FFF74FF9EFEE49DFD88
:100E0800E49CFC780812068E8FC69000A2E0F8A336
:100E1800E0F9A3E0FAA3E0FB7F407E427D0F7C006F
:100E28001205EBC374FF9FFF74FF9EFEE49DFDE473
:0A0E38009CFCEFE48FC543C40822C0
:0712C50030F8FDAF9AC2F8FA
:0112CC0022FF
:0812CD00C2F98F9A30F9FD22ED
:1012390075C7AA75C755A2AF9200C2AF75C7AA757F
:0A124900C755439F80A20092AF2218
:03000000020BBB35
:100BBB00787FE4F6D8FD9000007FFF7E03E4F0A37E
:0A0BCB00DFFCDEFA758120020C1039
:100BD50002003EE493A3F8E493A34003F68001F2F8
:100BE50008DFF48029E493A3F85407240CC8C33321
:100BF500C4540F4420C8834004F456800146F6DFF0
:100C0500E4800B01020408102040809009A0E47ED6
:100C1500019360BCA3FF543F30E509541FFEE493E4
:100C2500A360010ECF54C025E060A840B8E493A3AB
:100C3500FAE493A3F8E493A3C8C582C8CAC583CAD6
:100C4500F0A3C8C582C8CAC583CADFE9DEE780BE8E
:010A5D000098
:10056C00BB010CE58229F582E5833AF583E0225044
:10057C0006E92582F8E622BBFE06E92582F8E2228E
:0D058C00E58229F582E5833AF583E49322A8
:10059900A3F8E0C5F025F0F0E58215827002158315
:0605A900E0C838F0E82272
:1005AF0075F008758200EF2FFFEE33FECD33CDCC03
:1005BF0033CCC58233C5829BED9AEC99E582984086
:1005CF000CF582EE9BFEED9AFDEC99FC0FD5F0D663
:1005DF00E4CEFBE4CDFAE4CCF9A88222B800C1B98D
:1005EF000059BA002DEC8BF084CFCECDFCE5F0CBCB
:1005FF00F97818EF2FFFEE33FEED33FDEC33FCEB04
:10060F0033FB10D703994004EB99FB0FD8E5E4F9BE
:10061F00FA227818EF2FFFEE33FEED33FDEC33FCAB
:10062F00C933C910D7059BE99A4007EC9BFCE99A9F
:10063F00F90FD8E0E4C9FAE4CCFB2275F010EF2FE4
:10064F00FFEE33FEED33FDCC33CCC833C810D707E4
:10065F009BEC9AE899400AED9BFDEC9AFCE899F81F
:0E066F000FD5F0DAE4CDFBE4CCFAE4C8F922B2
:10067D00EB9FF5F0EA9E42F0E99D42F0E89C45F0D3
:01068D00224A
:10068E00E8600FECC313FCED13FDEE13FEEF13FF4A
:03069E00D8F1226E
:0C06A100ECF0A3EDF0A3EEF0A3EFF022CC
:1006AD00A8828583F0D083D0821206C41206C412AC
:1006BD0006C41206C4E473E493A3C583C5F0C583D1
:1006CD00C8C582C8F0A3C583C5F0C583C8C582C897
:0106DD0022FA
:00000001FF
