:10078700410024014100310E41002B0342002F316B
:1007970010420007350142004E350443002842014C
:1007A7000143005241000143000041000143002C76
:1007B700420101420010350342000C350241001B83
:1007C7001041000917410027114100551844004AFC
:1007D7007E0200EF4600367E043E0000EF4900121D
:1007E7007E031000EF7E0200EF4200250001420069
:1007F7003C00014200050001420003FFFF42000EDA
:1008070000004200340000440020000000004400C3
:100817001C0000000042000A0001420032000042B2
:04082700005000007D
:10000E00E4FDFCC3ED9FEE6480F8EC648098501C18
:10001E00E4FBFAC3EB94D9EA6480948250070BEBAD
:0C002E0070010A80EE0DED70010C80D70F
:01003A0022A3
:100E2E00E4FDFCC3ED9FEE6480F8EC648098501CEA
:100E3E00E4FBFAC3EB9448EA6480948050070BEB12
:0C0E4E0070010A80EE0DED70010C80D7E1
:010E5A002275
:100AB300E4900067F0A3F0A3F0A374FAF020981772
:100AC30090006974FFF5F01201E245F060097F01BF
:100AD3007E00120E2E80E630983A120003900067D3
:100AE300E475F0011201E2FC743E25F0F582740016
:100AF3003CF583EFF0900069741FF0A37440F0207D
:100B030098D590006974FFF5F01201E245F060C7D3
:0B0B130080ED80C3900067E0A3E0FFCE
:010B1E0022B4
:0B062A00900067EBF0A3EAF0A3E9F0FA
:10063500E4A3F0FF90007AF0A3F090006AE0FE04D6
:10064500F0746B2EF582E43400F583747EF0ED04CE
:10065500FE90006AE0FC04F0746B2CF582E4340033
:10066500F583EEF0EFC39D502A900067E0FBA3E011
:10067500FAA3E0F98F827583001201B5FE90006A36
:10068500E0FC04F0746B2CF582E43400F583EEF0A5
:100695000F80D190006AE0246BF582E43400F58385
:1006A50074EFF090006AE0FFD390007BE09F7480C8
:1006B500F890007AE0648098501AE475F001120110
:1006C500E2FE746B25F0F58274003EF583E0FF12BF
:0406D5000E9680CF2E
:0106D90022FE
:0E046E0090005CEBF0A3EAF0A3E9F0A3EDF040
:10047C00E4A3F0A3F0A37402F0900060E07002A378
:10048C00E06003020549900062E0FF14F0EF700396
:10049C0002054990005CE0FBA3E0FAA3E0F9A3E0BD
:1004AC00FD12062A120AB3900063E4F0A3EFF0E405
:1004BC00A3F0A3F0900064E024FDFF900063E0340F
:1004CC00FFFEC3900066E09FEE6480F8900065E04C
:1004DC0064809850A4E0FEA3E0243EF58274003EB4
:1004EC00F583E0647E7045900065E0A3E0243FF561
:1004FC008274003EF583E064027031900065E0A3E5
:10050C00E02440F58274003EF583E0701F90006596
:10051C00E0A3E02441F58274003EF583E0B4EF0CD7
:10052C00900060E4F0A304F0E4FEFF22900066E08B
:10053C0004F07006900065E004F00204C07EFF7FBA
:01054C00FFAF
:01054D00228B
:1009450090009C7402F090009CE0FF14F0EF60654D
:100955007B017A00791B7D0112062A120AB3AD07C5
:100965007C00E4FBFAED24FDFFEC34FFFEC3EB9FB6
:10097500EE6480F8EA6480985032743E2BF58274F8
:10098500003AF583E0B47E1D74402BF58274003A7D
:10099500F583E0B4100F74412BF58274003AF583AA
:1009A500E0FF7E00220BEB70010A80B97F147E0008
:0909B50012000E80917EFF7FFF0D
:0109BE002216
:1009BF0090005C7402F090005CE0FF14F0EF606553
:1009CF007B017A0079097D0112062A120AB3AD075D
:1009DF007C00E4FBFAED24FCFFEC34FFFEC3EB9F3D
:1009EF00EE6480F8EA6480985032743E2BF582747E
:1009FF00003AF583E0B47E1D74402BF58274003A03
:100A0F00F583E0B4170F74422BF58274003AF58327
:100A1F00E0FF7E00220BEB70010A80B97F147E008D
:090A2F0012000E80917EFF7FFF92
:010A3800229B
:100E7B007B017A0079287D0312046E90002AE0042E
:0B0E8B00F0E0D3940240037401F02259
:100DAA001209BF90005AEEF0A3EFF0D3E09402903C
:100DBA00005AE06480948040317B017A0079527D48
:100DCA000312046E900054E004F090005BE024FEED
:100DDA00FF90005AE034FFFE900054E0D39FEE6487
:0A0DEA0080F874809840037401F053
:010DF40022DC
:05054E0090005EEFF0DB
:10055300E4A3F0A3F0A37403F090005EE0900030F6
:10056300F090005FE07002A3E060030206259000B4
:1005730061E0FF14F0EF70030206257B017A007936
:100583002F7D0212062A7F0D7E0012000E7B017A58
:100593000079277D0112062A120AB3900062E4F063
:1005A300A3EFF0E4A3F0A3F0900063E024FDFF9039
:1005B3000062E034FFFEC3900065E09FEE6480F8C4
:1005C300900064E06480985098E0FEA3E0243EF538
:1005D3008274003EF583E0647E7037900064E0A38C
:1005E300E02440F58274003EF583E0B411249000CA
:1005F30064E0A3E02441F58274003EF583E0FF90BC
:10060300005EE0FEEFB5060AA3E4F0A304F0E4FE07
:10061300FF22900065E004F07006900064E004F0AF
:0606230080867EFF7FFFD0
:0106290022AE
:03003B0002032796
:10032700C0E0C083C082C0D075D000C000C002C08A
:1003370003C004C005C006C007E5EC30E75875ECFC
:10034700007F0F7E0012000E900025E07002A3E0F0
:10035700701D20971A43E98053EA7F43EB80900092
:1003670025F0A304F0900003E4F0A304F0802490A8
:100377000025E07004A3E06401701830971543E985
:100387008043EA8053EB7F900025F0A3F0900003B1
:10039700F0A3F05387FDE5EC30E35875EC007F02DE
:1003A7007E0012000E90003CE07002A3E0701D205A
:1003B700931A43E92053EAF743EB0890003CF0A374
:1003C70004F090000EE4F0A304F0802490003CE0D9
:1003D7007004A3E06401701830931543E92043EAE1
:1003E7000853EBF790003CF0A3F090000EF0A3F059
:1003F7005387FDE5EC30E25875EC007F0A7E00126A
:10040700000E900005E07002A3E0701D20931A43D0
:10041700E91053EAFB43EB04900005F0A304F090C6
:100427000034E4F0A304F08024900005E07004A3F6
:10043700E06401701830931543E91043EA0453EB65
:10044700FB900005F0A3F0900034F0A3F05387FD74
:10045700D007D006D005D004D003D002D000D0D02A
:07046700D082D083D0E03207
:03000B000206DA10
:1006DA00C0E0C0F0C083C082C0D075D000C000C0E6
:1006EA0001C002C003C004C005C006C007C28DC253
:1006FA008C758AA8758C2FD28C90001CE0FCA3E024
:10070A00FDA3E0FEA3E02428FFE43EFEE43DFDE471
:10071A003CFC90001C1202EAE47FE87E03FDFC9098
:10072A00001CE0F8A3E0F9A3E0FAA3E0FBC312027D
:10073A00C6402F90001C1202F60000000090002014
:10074A00E0FCA3E0FDA3E0FEA3E0FFE4FAF9F8EF82
:10075A002401FFEA3EFEE93DFDE83CFC9000201240
:10076A0002EAD007D006D005D004D003D002D001C7
:0D077A00D000D0D0D082D083D0F0D0E032BB
:100D540090005AE4F0A37419F074FFA3F0A3F0D246
:100D64009190005A74FFF5F01201E245F060229070
:100D7400005CE0B4FF1BA3E0B4FF167F147E0012F6
:100D8400000E7F0F12054E90005CEEF0A3EFF08092
:100D9400D07F6E7E0012000E90000AE4F0A304F0EF
:050DA4007FAA120E966B
:010DA9002227
:100E5B00C28C9000201202F600000000C291E490B8
:100E6B00000AF0A3F07FBB120E96438702D28C22AE
:10003E00900056E4F0A304F074FFA3F0A3F0E4F5EF
:10004E00B1F5B1F5B3F5B4F5ACF5AD53B3FD43B4BD
:10005E00027F807E25FDFC120DF5438E02120D549B
:10006E005389F0538EF7438901758AA8758C2FD268
:10007E00A9D2AFD28C43B38053B47FA2AF92007596
:10008E00C7AA75C75575910143B18075C7AA75C7C3
:10009E0055E4F591A20092AF43E98043EA8053EB19
:1000AE007F900025F0A3F043B30853B4F7A2AF92AC
:1000BE000075C7AA75C75575910143B10875C7AAD2
:1000CE0075C755F591A20092AF43E92043EA085354
:1000DE00EBF790003CF0A3F043AC0153ADFE43E9C7
:1000EE000443EA0153EBFE43E901439B02D2A8D23B
:1000FE00AF7F0F12054E900003E07004A3E0640181
:10010E00701F74FF900003F0A3F090000AE07002DD
:10011E00A3E07003120D54120E7BE4900050F0A376
:10012E00F0900003E07002A3E0701074FF900003E3
:10013E00F0A3F0900050E4F0A304F090000EE070F5
:10014E0004A3E06401700D9000201202F60000007E
:10015E0000438701E47F0AFEFDFC900020E0F8A337
:10016E00E0F9A3E0FAA3E0FBD31202C64003120E9D
:10017E005B90000EE07002A3E060030201049000A9
:10018E0050E07004A3E06401600302010490000AD1
:10019E00E07004A3E064017003120DAAE490005015
:0601AE00F0A3F0020104C1
:0101B4002228
:100C3D0090007C1202EA538EF7438901D28CE4FFB7
:100C4D00FEFDFC90007CE0F8A3E0F9A3E0FAA3E040
:100C5D00FBC31202C66033758A7E758CFF308DFD25
:100C6D00C28D90007CE0FCA3E0FDA3E0FEA3E0FFBD
:100C7D0074FFEF24FFFFEE34FFFEED34FFFDEC3487
:0D0C8D00FFFC90007C1202EA80B4C28C22B1
:100C9A009000801202EA538EF7438901D28CE4FF56
:100CAA00FEFDFC900080E0F8A3E0F9A3E0FAA3E0DF
:100CBA00FBC31202C66033758ACA758CFA308DFD81
:100CCA00C28D900080E0FCA3E0FDA3E0FEA3E0FF5C
:100CDA0074FFEF24FFFFEE34FFFEED34FFFDEC342A
:0D0CEA00FFFC9000801202EA80B4C28C2250
:100CF7009000841202EA538EEF438910D28EE4FFEC
:100D0700FEFDFC900084E0F8A3E0F9A3E0FAA3E07D
:100D1700FBC31202C66033758BEA758DCB308FFD2E
:100D2700C28F900084E0FCA3E0FDA3E0FEA3E0FFF8
:100D370074FFEF24FFFFEE34FFFEED34FFFDEC34CC
:0D0D4700FFFC9000841202EA80B4C28E22EC
:100B1F009000881202EA53C9BF53C9DF43C910D2EC
:100B2F00CAE4FFFEFDFC900088E0F8A3E0F9A3E023
:100B3F00FAA3E0FBC31202C6603375CC3075CDF853
:100B4F0030CFFDC2CF900088E0FCA3E0FDA3E0FE14
:100B5F00A3E0FF74FFEF24FFFFEE34FFFEED34FF41
:100B6F00FDEC34FFFC9000881202EA80B4C2CA2266
:100B7F0090008C1202EA75C40743C408E4FFFEFD1F
:100B8F00FC90008CE0F8A3E0F9A3E0FAA3E0FBC32C
:100B9F001202C6603675C52C75C6CFE5C430E4FBAE
:100BAF0053C4EF90008CE0FCA3E0FDA3E0FEA3E0B4
:100BBF00FF74FFEF24FFFFEE34FFFEED34FFFDEC7B
:0F0BCF0034FFFC90008C1202EA80B153C4F7226D
:100BDE009000901202EA75C40743C408E4FFFEFDBC
:100BEE00FC900090E0F8A3E0F9A3E0FAA3E0FBC3C9
:100BFE001202C6603675C5D875C6FFE5C430E4FB73
:100C0E0053C4EF900090E0FCA3E0FDA3E0FEA3E050
:100C1E00FF74FFEF24FFFFEE34FFFEED34FFFDEC1B
:0F0C2E0034FFFC9000901202EA80B153C4F72209
:100DF50053B1BF53B2BF53B17F53B27F75985043C0
:100E05008920438780438E1053C4DFAB07AA06A908
:100E150005A8047F407E427D0F7C00120234EF045A
:090E2500F404F58DD28ED299225D
:1008C6009000941202EA53B1BF53B2BF53B17F53A3
:1008D600B27F75985043878053C4F843C420900074
:1008E60094E0F8A3E0F9A3E0FAA3E0FB7F407E42A0
:1008F6007D0F7C00120234C374FF9FFF74FF9EFEBF
:10090600E49DFDE49CFC78081202D78FC690009403
:10091600E0F8A3E0F9A3E0FAA3E0FB7F407E427D86
:100926000F7C00120234C374FF9FFF74FF9EFEE427
:0F0936009DFDE49CFCEFE48FC543C408D29922D9
:070003003098FDAF99C2988F
:01000A0022D3
:080E9600C2998F993099FD22E9
:100A39009000981202EA53B1FB53B2FB53B3BF5370
:100A4900B4BF75F85075C40853C4DF900098E0F836
:100A5900A3E0F9A3E0FAA3E0FB7F407E427D0F7C8F
:100A690000120234C374FF9FFF74FF9EFEE49DFDD4
:100A7900E49CFC78081202D78FC6900098E0F8A38E
:100A8900E0F9A3E0FAA3E0FB7F407E427D0F7C0002
:100A9900120234C374FF9FFF74FF9EFEE49DFDE4C0
:0A0AA9009CFCEFE48FC543C4082253
:070E9E0030F8FDAF9AC2F825
:010EA500222A
:080EA600C2F98F9A30F9FD2218
:0300000002082CC7
:10082C00787FE4F6D8FD9000007FFF7E03E4F0A310
:0A083C00DFFCDEFA7581200208815E
:1008460002003EE493A3F8E493A34003F68001F28A
:1008560008DFF48029E493A3F85407240CC8C333B3
:10086600C4540F4420C8834004F456800146F6DF82
:10087600E4800B0102040810204080900787E47E84
:10088600019360BCA3FF543F30E509541FFEE49377
:10089600A360010ECF54C025E060A840B8E493A33E
:1008A600FAE493A3F8E493A3C8C582C8CAC583CA69
:1008B600F0A3C8C582C8CAC583CADFE9DEE780BE21
:01082B0000CC
:1001B500BB010CE58229F582E5833AF583E02250FF
:1001C50006E92582F8E622BBFE06E92582F8E22249
:0D01D500E58229F582E5833AF583E4932263
:1001E200A3F8E0C5F025F0F0E582158270021583D0
:0601F200E0C838F0E8222D
:1001F80075F008758200EF2FFFEE33FECD33CDCCBE
:1002080033CCC58233C5829BED9AEC99E582984040
:100218000CF582EE9BFEED9AFDEC99FC0FD5F0D61D
:10022800E4CEFBE4CDFAE4CCF9A88222B800C1B947
:100238000059BA002DEC8BF084CFCECDFCE5F0CB85
:10024800F97818EF2FFFEE33FEED33FDEC33FCEBBE
:1002580033FB10D703994004EB99FB0FD8E5E4F979
:10026800FA227818EF2FFFEE33FEED33FDEC33FC66
:10027800C933C910D7059BE99A4007EC9BFCE99A5A
:10028800F90FD8E0E4C9FAE4CCFB2275F010EF2F9F
:10029800FFEE33FEED33FDCC33CCC833C810D7079F
:1002A8009BEC9AE899400AED9BFDEC9AFCE899F8DA
:0E02B8000FD5F0DAE4CDFBE4CCFAE4C8F9226D
:1002C600EB9FF5F0EA9E42F0E99D42F0E89C45F08E
:0102D6002205
:1002D700E8600FECC313FCED13FDEE13FEEF13FF05
:0302E700D8F12229
:0C02EA00ECF0A3EDF0A3EEF0A3EFF02287
:1002F600A8828583F0D083D08212030D12030D12DB
:10030600030D12030DE473E493A3C583C5F0C583FF
:10031600C8C582C8F0A3C583C5F0C583C8C582C851
:0103260022B4
:00000001FF
