:100B500041014E0141019C0E4101960342019A312F
:100B6000104200AC35014201BB3504430192420101
:100B70000243024541000143000241000143019745
:100B800042010142013535034200B13502410141C4
:100B9000104100AE174101511141028B184401B6BA
:100BA0007E0200EF4601A27E043E0000EF490138BC
:100BB0007E031000EF7E0200EF42014F0001420170
:100BC000A800014200880001420005FFFF4200B377
:100BD000000042019F00004200AAFFFF44014A00BA
:100BE000000000440142000000004200AF0001602C
:100BF0004000F5000C1824303B465059626970756E
:100C0000797C7E7F7E7C79757069625950463B3075
:100C100024180C00F4E8DCD0C5BAB0A79E97908BDE
:100C2000878482818284878B90979EA7B0BAC5D033
:100C3000DCE8F4604000B57F7E7C797570696259AC
:100C400050463B3024180C00F4E8DCD0C5BAB0A7FD
:100C50009E97908B878482818284878B90979EA7B2
:100C6000B0BAC5D0DCE8F4000C1824303B4650592B
:100C700062697075797C7E604002490020103008FE
:100C8000281838042414340C2C1C3C022212320A7A
:100C90002A1A3A062616360E2E1E3E012111310959
:100CA000291939052515350D2D1D3D032313330B4A
:100CB0002B1B3B072717370F2F1F3F4100870F4183
:100CC000014900410146004101370F6080000700E3
:100CD000FF00000000000000000000000000000015
:100CE0000000000000000000000000000000000004
:100CF00000000000000000000000000000000000F4
:100D000000000000000000000000000000000000E3
:100D100000000000000000000000000000000000D3
:100D200000000000000000000000000000000000C3
:100D300000000000000000000000000000000000B3
:100D40000000000000000000000000000000004261
:090D5000019D0000420242000076
:10000E00E4FDFCC3ED9FEE6480F8EC648098501C18
:10001E00E4FBFAC3EB94D9EA6480948250070BEBAD
:0C002E0070010A80EE0DED70010C80D70F
:01003A0022A3
:101A1100E4FDFCC3ED9FEE6480F8EC648098501CFB
:101A2100E4FBFAC3EB9448EA6480948050070BEB23
:0C1A310070010A80EE0DED70010C80D7F2
:011A3D002286
:10163800E49002A5F0A3F0A3F0A374FAF0209817A1
:101648009002A774FFF5F0120D9945F060097F012B
:101658007E00121A1180E630983A1200039002A513
:10166800E475F001120D99FC74AA25F0F582740155
:101678003CF583EFF09002A7741FF0A37440F020AC
:1016880098D59002A774FFF5F0120D9945F060C740
:0B16980080ED80C39002A5E0A3E0FFFE
:0116A3002224
:0B11E1009002A5EBF0A3EAF0A3E9F0F8
:1011EC00E4A3F0FF9002B8F0A3F09002A8E0FE0494
:1011FC00F074A92EF582E43402F583747EF0ED04CC
:10120C00FE9002A8E0FC04F074A92CF582E43402F0
:10121C00F583EEF0EFC39D502A9002A5E0FBA3E00E
:10122C00FAA3E0F98F82758300120D5AFE9002A882
:10123C00E0FC04F074A92CF582E43402F583EEF0A2
:10124C000F80D19002A8E024A9F582E43402F58342
:10125C0074EFF09002A8E0FFD39002B9E09F748085
:10126C00F89002B8E0648098501AE475F001120D01
:10127C0099FE74A925F0F58274023EF583E0FF1205
:04128C001AD680CF1F
:01129000223B
:0E10250090029AEBF0A3EAF0A3E9F0A3EDF03D
:10103300E4A3F0A3F0A37402F090029EE07002A375
:10104300E060030211009002A0E0FF14F0EF7003D0
:1010530002110090029AE0FBA3E0FAA3E0F9A3E0F7
:10106300FD1211E11216389002A1E4F0A3EFF0E4AF
:10107300A3F0A3F09002A2E024FDFF9002A1E034CC
:10108300FFFEC39002A4E09FEE6480F89002A3E009
:1010930064809850A4E0FEA3E024AAF58274013E84
:1010A300F583E0647E70459002A3E0A3E024ABF5F2
:1010B3008274013EF583E0640270319002A3E0A3E1
:1010C300E024ACF58274013EF583E0701F9002A327
:1010D300E0A3E024ADF58274013EF583E0B4EF0CA8
:1010E30090029EE4F0A304F0E4FEFF229002A4E049
:1010F30004F070069002A3E004F00210777EFF7FF5
:01110300FFEC
:0111040022C8
:101457009002DA7402F09002DAE0FF14F0EF6065B0
:101467007B017A0179417D011211E1121638AD072E
:101477007C00E4FBFAED24FDFFEC34FFFEC3EB9F99
:10148700EE6480F8EA648098503274AA2BF582746F
:10149700013AF583E0B47E1D74AC2BF58274013AF2
:1014A700F583E0B4100F74AD2BF58274013AF58320
:1014B700E0FF7E00220BEB70010A80B97F147E00EB
:0914C70012000E80917EFF7FFFF0
:0114D00022F9
:1014D10090029A7402F090029AE0FF14F0EF6065B6
:1014E1007B017A0079AE7D011211E1121638AD0748
:1014F1007C00E4FBFAED24FCFFEC34FFFEC3EB9F20
:10150100EE6480F8EA648098503274AA2BF58274F4
:10151100013AF583E0B47E1D74AC2BF58274013A77
:10152100F583E0B4170F74AE2BF58274013AF5839D
:10153100E0FF7E00220BEB70010A80B97F147E0070
:0915410012000E80917EFF7FFF75
:01154A00227E
:101A7F007B017A0179927D03121025900194E00485
:0B1A8F00F0E0D3940240037401F02249
:10198D001214D1900298EEF0A3EFF0D3E0940290F0
:10199D000298E06480948040317B017A0279457D24
:1019AD0003121025900247E004F0900299E024FE06
:1019BD00FF900298E034FFFE900247E0D39FEE6463
:0A19CD0080F874809840037401F064
:0119D70022ED
:0511050090029CEFF0D8
:10110A00E4A3F0A3F0A37403F090029CE090019B87
:10111A00F090029DE07002A3E060030211DC9002ED
:10112A009FE0FF14F0EF70030211DC7B017A017972
:10113A009A7D021211E17F0D7E0012000E7B017A68
:10114A000179517D011211E11216389002A0E4F0E2
:10115A00A3EFF0E4A3F0A3F09002A1E024FDFF9036
:10116A0002A0E034FFFEC39002A3E09FEE6480F881
:10117A009002A2E06480985098E0FEA3E024AAF5C9
:10118A008274013EF583E0647E70379002A2E0A388
:10119A00E024ACF58274013EF583E0B41124900298
:1011AA00A2E0A3E024ADF58274013EF583E0FF904E
:1011BA00029CE0FEEFB5060AA3E4F0A304F0E4FE05
:1011CA00FF229002A3E004F070069002A2E004F06D
:0611DA0080867EFF7FFF0E
:0111E00022EC
:03003B00020EDED4
:100EDE00C0E0C083C082C0D075D000C000C002C0C8
:100EEE0003C004C005C006C007E5EC30E75875EC3A
:100EFE00007F0F7E0012000E90014FE07002A3E003
:100F0E00701D20971A43E98053EA7F43EB809001CE
:100F1E004FF0A304F0900005E4F0A304F0802490B9
:100F2E00014FE07004A3E06401701830971543E997
:100F3E008043EA8053EB7F90014FF0A3F0900005C1
:100F4E00F0A3F05387FDE5EC30E25875EC007F021C
:100F5E007E0012000E9001A8E07002A3E0701D202A
:100F6E00921A43E91053EAFB43EB049001A8F0A355
:100F7E0004F09000B3E4F0A304F080249001A8E004
:100F8E007004A3E06401701830921543E91043EA2F
:100F9E000453EBFB9001A8F0A3F09000B3F0A3F084
:100FAE005387FDE5EC30E35875EC007F0A7E0012A6
:100FBE00000E900088E07002A3E0701D20931A438B
:100FCE00E92053EAF743EB08900088F0A304F09071
:100FDE00019FE4F0A304F08024900088E07004A345
:100FEE00E06401701830931543E92043EA0853EB8F
:100FFE00F7900088F0A3F090019FF0A3F05387FDC7
:10100E00D007D006D005D004D003D002D000D0D067
:07101E00D082D083D0E03244
:03000B000212914D
:10129100C0E0C0F0C083C082C0D075D000C000C023
:1012A10001C002C003C004C005C006C007C28DC290
:1012B1008C758AA8758C2FD28C900142E0FCA3E03A
:1012C100FDA3E0FEA3E02428FFE43EFEE43DFDE4AF
:1012D1003CFC900142120EA1E47FE87E03FDFC90EC
:1012E1000142E0F8A3E0F9A3E0FAA3E0FBC3120E88
:1012F1007D402F900142120EAD0000000090014A86
:10130100E0FCA3E0FDA3E0FEA3E0FFE4FAF9F8EFBF
:101311002401FFEA3EFEE93DFDE83CFC90014A1252
:101321000EA1D007D006D005D004D003D002D00141
:0D133100D000D0D0D082D083D0F0D0E032F8
:10193C00900298E4F0A37419F074FFA3F0A3F0D212
:10194C008190029874FFF5F0120D9945F060229089
:10195C00029AE0B4FF1BA3E0B4FF167F147E0012C2
:10196C00000E7F1C12110590029AEEF0A3EFF0808E
:10197C00D07F6E7E0012000E9000AFE4F0A304F056
:01198C002238
:101A5F00C28C90014A120EAD00000000C281E490CA
:101A6F0000AFF0A3F07FBB121AD6438702D28C22AD
:10003E0090023F7401F090023FE0D3940640030219
:10004E0004739001BA7401F0E0FF90023FE014FED9
:10005E00EFA806088002C333D8FC9001BAF0E490F2
:10006E000240F09001BAE014FF900240E0D39F40AE
:10007E000302046A9002447401F0E0FF90023FE034
:10008E00FEC374079EFEEFA806088002C333D8FC99
:10009E00900244F0E0FF900240E0FEEF8EF0A4905C
:1000AE000244F0900240E0A3F0900241E0C394407D
:1000BE004003020461E025E02407F582E43400F5F4
:1000CE0083E0FFA3E0900000CFF0A3EFF090024199
:1000DE00E025E024BDF582E43401F583E0FFA3E0E2
:1000EE00900289CFF0A3EFF09001BAE0FF900241A9
:1000FE00E02F25E02407F582E43400F583E0FFA32A
:10010E00E0900147CFF0A3EFF09001BAE0FF90022C
:10011E0041E02F25E02407F582E43400F583E0FC6E
:10012E00A3E0FD900244E024B5F582E43400F583AB
:10013E00E0FF3395E0FE120D87EF7807CEA2E713AE
:10014E00CE13D8F8FF900241E025E02407F582E4B3
:10015E003400F583E0FCA3E02FFBEC3EFA9001BAED
:10016E00E0FF900241E02F25E024BDF582E434014A
:10017E00F583E0FCA3E0FD900244E024F5F582E473
:10018E003400F583E0FF3395E0FE120D87EF78071C
:10019E00CEA2E713CE13D8F82BFFEA3EFE90024113
:1001AE00E025E02407F582E43400F583EEF0A3EFBA
:1001BE00F09001BAE0FF900241E02F25E02407F510
:1001CE0082E43400F583E0FCA3E0FD900244E024D9
:1001DE00F5F582E43400F583E0FF3395E0FE120D71
:1001EE0087EF7807CEA2E713CE13D8F8FF9002411F
:1001FE00E025E024BDF582E43401F583E0FCA3E0C4
:10020E00C39FFBEC9EFA9001BAE0FF900241E02FF3
:10021E0025E024BDF582E43401F583E0FCA3E0FD86
:10022E00900244E024B5F582E43400F583E0FF3318
:10023E0095E0FE120D87EF7807CEA2E713CE13D806
:10024E00F82BFFEA3EFE900241E025E024BDF58248
:10025E00E43401F583EEF0A3EFF09001BAE0FF90E5
:10026E000241E02F25E02407F582E43400F583E017
:10027E00FCA3E0FD900244E024B5F582E43400F5E1
:10028E0083E0FF3395E0FE120D87EF7807CEA2E7ED
:10029E0013CE13D8F8FFC3900001E09FFB9000002F
:1002AE00E09EFA9001BAE0FF900241E02F25E02493
:1002BE00BDF582E43401F583E0FCA3E0FD90024439
:1002CE00E024F5F582E43400F583E0FF3395E0FE9B
:1002DE00120D87EF7807CEA2E713CE13D8F8FFC31F
:1002EE00EB9FFFEA9EFE9001BAE0FD900241E02DE9
:1002FE0025E02407F582E43400F583EEF0A3EFF059
:10030E00900244E024F5F582E43400F583E0FF33F7
:10031E0095E0FE900147E0FCA3E0FD120D87EF781B
:10032E0007CEA2E713CE13D8F8FF90028AE02FFB78
:10033E00900289E03EFA9001BAE0FF900241E02F70
:10034E0025E024BDF582E43401F583E0FCA3E0FD55
:10035E00900244E024B5F582E43400F583E0FF33E7
:10036E0095E0FE120D87EF7807CEA2E713CE13D8D5
:10037E00F8FFC3EB9FFFEA9EFE9001BAE0FD9002EC
:10038E0041E02D25E024BDF582E43401F583EEF045
:10039E00A3EFF0900241E025E02407F582E434005B
:1003AE00F583C083C082E0FEA3E0FFEEA2E713FE5A
:1003BE00EF13FFD082D083EEF0A3EFF0900241E076
:1003CE0025E024BDF582E43401F583C083C082E0CC
:1003DE00FEA3E0FFEEA2E713FEEF13FFD082D08361
:1003EE00EEF0A3EFF09001BAE0FF900241E02F256E
:1003FE00E02407F582E43400F583C083C082E0FE7A
:10040E00A3E0FFEEA2E713FEEF13FFD082D083EE40
:10041E00F0A3EFF09001BAE0FF900241E02F25E04B
:10042E0024BDF582E43401F583C083C082E0FEA3CF
:10043E00E0FFEEA2E713FEEF13FFD082D083EEF0C3
:10044E00A3EFF09001BAE025E0FF900241E02FF01B
:10045E000200B7900240E004F002007190023FE00B
:10046E0004F0020044E49001BDF0A3F0900007F008
:10047E00A3F0900240F0900240E0C39411400302BA
:10048E000831E025E024BDF582E43401F583E0FC7B
:10049E00A3E0FD900240E025E024BDF582E43401A6
:1004AE00F583E0FEA3E0FF120D87AA06AB079002CC
:1004BE0040E025E02407F582E43400F583E0FCA358
:1004CE00E0FD900240E025E02407F582E43400F5DB
:1004DE0083E0FEA3E0FF120D87EF2BFFEE3A9002B2
:1004EE003DF0A3EFF0C3E0940690023DE09400507F
:1004FE0007E4F0A3F00207D2C390023EE0940A9004
:10050E00023DE094005008E4F0A304F00207D2C3C9
:10051E0090023EE0941090023DE094005009E4F009
:10052E00A37402F00207D2C390023EE09419900227
:10053E003DE094005009E4F0A37403F00207D2C327
:10054E0090023EE0942490023DE094005009E4F0C5
:10055E00A37404F00207D2C390023EE094319002DD
:10056E003DE094005009E4F0A37405F00207D2C3F5
:10057E0090023EE0943790023DE094005009E4F082
:10058E00A37406F00207D2C390023EE0943C9002A0
:10059E003DE094005009E4F0A37407F00207D2C3C3
:1005AE0090023EE0944190023DE094005009E4F048
:1005BE00A37408F00207D2C390023EE09446900264
:1005CE003DE094005009E4F0A37409F00207D2C391
:1005DE0090023EE0944B90023DE094005009E4F00E
:1005EE00A3740AF00207D2C390023EE09450900228
:1005FE003DE094005009E4F0A3740BF00207D2C35F
:10060E0090023EE0946090023DE094005009E4F0C8
:10061E00A3740CF00207D2C390023EE0947D9002C8
:10062E003DE094005009E4F0A3740DF00207D2C32C
:10063E0090023EE0949C90023DE094005009E4F05C
:10064E00A3740EF00207D2C390023EE094BD900256
:10065E003DE094005009E4F0A3740FF00207D2C3FA
:10066E0090023EE094E090023DE094005009E4F0E8
:10067E00A37410F00207D2C390023EE094059002DC
:10068E003DE094015009E4F0A37411F00207D2C3C7
:10069E0090023EE0942C90023DE094015009E4F06B
:1006AE00A37412F00207D2C390023EE0945590025A
:1006BE003DE094015009E4F0A37413F00207D2C395
:1006CE0090023EE0948090023DE094015009E4F0E7
:1006DE00A37414F00207D2C390023EE094AD9002D0
:1006EE003DE094015009E4F0A37415F00207D2C363
:1006FE0090023EE094DC90023DE094015009E4F05B
:10070E00A37416F00207D2C390023EE0940D90023D
:10071E003DE094025009E4F0A37417F00207D2C32F
:10072E0090023EE0944090023DE094025009E4F0C5
:10073E00A37418F00207D2C390023EE094759002A3
:10074E003DE094025008E4F0A37419F08076C39053
:10075E00023EE094AC90023DE094025008E4F0A317
:10076E00741AF0805FC390023EE094E590023DE083
:10077E0094025008E4F0A3741BF08048C390023E2C
:10078E00E0942090023DE094035008E4F0A3741C22
:10079E00F08031C390023EE0945D90023DE0940300
:1007AE005008E4F0A3741DF0801AC390023DE0944B
:1007BE00045008E4F0A3741EF0800990023DE4F0AA
:1007CE00A3741FF090023DE0A3E0FF900240E024EE
:1007DE008AF582E43400F583EFF0900240E0245273
:1007EE00F582E43401F583E0FFD390023EE09F9062
:1007FE00023DE094004023E0A3E0FF900240E0249D
:10080E0052F582E43401F583EFF0900240E0247259
:10081E00F582E43401F5837407F0900240E004F0B1
:04082E00020484221A
:1015C500E4900298F0A3F053E8F043E80543B11026
:1015D50053B2EFF5F643F62043E101D3900299E0CB
:1015E5009440900298E0648094805046121A3EE43C
:1015F5002FFDEE34FFFC900298E0FEA3E02449F5B0
:101605008274023EF583E0FF3395E0FEEF25E0FFAF
:10161500EE33FE74072FF58274003EF583ECF0A3DC
:10162500EDF0900299E004F07006900298E004F065
:0216350080A98A
:011637002290
:101A9A00AD07AC06ECFF3395E08FD3EDF5DB43D60B
:041AAA0002D2DE2264
:101AAE00AD07AC06ECFF3395E08FD5EDF5DD43D6F3
:041ABE0008D2DE224A
:101AC200AD07AC06ECFF3395E08FD4EDF5DC43D6E1
:041AD20004D2DE223A
:1016A400A2AF9200C2AF75C7AA75C7554391014353
:1016B400C60275C7AA75C7555391FEA20092AF43DF
:1016C400DE08A2AF9200C2AF75C7AA75C755439191
:1016D4000143C60475C7AA75C7555391FEA200926B
:1016E400AF53DF3F43DF0353DFFB75D10775D9CF1A
:1016F400E4FFFE121A9AE4FF121AAEE4FF121AC2B1
:03170400D2DF220F
:101A3E00C2EFD2EE30EFFDE5C2540FFF1313543F49
:101A4E00FD7C00AFC3EF75F004A42DFFEC35F0FE66
:011A5E002265
:1008320090028CE4F0A304F074FFA3F0A3F0E4F5BB
:10084200B1F5B1F5B3F5B4F5ACF5AD53B1FD43B2C5
:1008520002C2817FF47E0112000ED2817F807E254A
:100862007D007C001219D8438E0212193C5389F084
:10087200538EF7438901758AA8758C2FD2A9D2AFFE
:10088200D28C43B38053B47FA2AF920075C7AA75CE
:10089200C75575910143B18075C7AA75C755E4F56F
:1008A20091A20092AF43E98043EA8053EB7F90012B
:1008B2004FF0A3F043B30853B4F7A2AF920075C749
:1008C200AA75C75575910143B10875C7AA75C75571
:1008D200F591A20092AF43E92043EA0853EBF79067
:1008E2000088F0A3F043B30453B4FBA2AF920075A7
:1008F200C7AA75C75575910143B10475C7AA75C7D3
:1009020055F591A20092AF43E91043EA0453EBFB81
:100912009001A8F0A3F043E901439B02D2A8D2AF11
:100922001216A47F14121105900005E07004A3E0D2
:100932006401701F74FF900005F0A3F09000AFE017
:100942007002A3E0700312193C121A7FE490024273
:10095200F0A3F0900005E07002A3E0701074FF9025
:100962000005F0A3F0900242E4F0A304F09000B37B
:10097200E07004A3E06401600F90019FE07004A3A3
:08098200E064016003020A8E2B
:10098A00E4900290F0A3F0A3F0A3F0A3F0A3F0A3E5
:10099A00F0A3F0D2DF1215C512003E90008CE0FFE2
:1009AA0090008BE02FFFE433FE90008DE07C002F57
:1009BA00FFEC3EFEA3E02FFFEC3EFEA3E02FFFEC90
:1009CA003E900292F0A3EFF0900091E0FF90009029
:1009DA00E02FFFEC33FE900092E02FFFEC3EFEA3E7
:1009EA00E02FFFEC3EFEA3E02FFFEC3E900294F0D6
:1009FA00A3EFF0900096E0FF900095E02FFFEC3314
:100A0A00FE900097E02FFFEC3EFEA3E02FFFEC3EA6
:100A1A00FEA3E02FFFEC3E900296F0A3EFF09002C7
:100A2A0092E0FEA3E07802C333CE33CED8F9F0EEDB
:100A3A00900292F0900294E0FEA3E07802C333CED3
:100A4A0033CED8F9F0EE900294F0E0FEA3E07802FB
:100A5A00C333CE33CED8F9F0EE900294F0900292DE
:100A6A00E0FEA3E0FF121A9AA3E0FEA3E0FF121A27
:100A7A00AEA3E0FEA3E0FF121AC290014A120EAD25
:040A8A000000000068
:100A8E009000B3E07002A3E07012FFFE121A9AE417
:100A9E00FF121AAEE4FF121AC24387019000AAE0B9
:100AAE007004A3E06401701B74FF9000AAF0A3F021
:100ABE00A2AF9200C2AF75C7AA75C755439F80A259
:100ACE000092AF90019FE07004A3E06401700D905E
:100ADE0000AFE07002A3E0700312193C9000B3E087
:100AEE007002A3E0702690019FE07002A3E0701CDC
:100AFE007F05FEFDFC90014AE0F8A3E0F9A3E0FAC1
:100B0E00A3E0FBD3120E7D4003121A5F9000B3E0F8
:100B1E007002A3E0600302092A900242E07004A36F
:100B2E00E06401600302092A9000AFE07004A3E0C4
:100B3E006401700312198DE4900242F0A3F00209D1
:010B4E002A7C
:010B4F002283
:101825009002BA120EA1538EF7438901D28CE4FFC0
:10183500FEFDFC9002BAE0F8A3E0F9A3E0FAA3E00C
:10184500FBC3120E7D6033758A7E758CFF308DFD6E
:10185500C28D9002BAE0FCA3E0FDA3E0FEA3E0FF89
:1018650074FFEF24FFFFEE34FFFEED34FFFDEC3493
:0D187500FFFC9002BA120EA180B4C28C22BA
:101882009002BE120EA1538EF7438901D28CE4FF5F
:10189200FEFDFC9002BEE0F8A3E0F9A3E0FAA3E0AB
:1018A200FBC3120E7D6033758ACA758CFA308DFDCA
:1018B200C28D9002BEE0FCA3E0FDA3E0FEA3E0FF28
:1018C20074FFEF24FFFFEE34FFFEED34FFFDEC3436
:0D18D200FFFC9002BE120EA180B4C28C2259
:1018DF009002C2120EA1538EEF438910D28EE4FFF5
:1018EF00FEFDFC9002C2E0F8A3E0F9A3E0FAA3E04A
:1018FF00FBC3120E7D6033758BEA758DCB308FFD78
:10190F00C28F9002C2E0FCA3E0FDA3E0FEA3E0FFC4
:10191F0074FFEF24FFFFEE34FFFEED34FFFDEC34D8
:0D192F00FFFC9002C2120EA180B4C28E22F5
:101707009002C6120EA153C9BF53C9DF43C910D2F5
:10171700CAE4FFFEFDFC9002C6E0F8A3E0F9A3E0EF
:10172700FAA3E0FBC3120E7D603375CC3075CDF89C
:1017370030CFFDC2CF9002C6E0FCA3E0FDA3E0FEE0
:10174700A3E0FF74FFEF24FFFFEE34FFFEED34FF4D
:10175700FDEC34FFFC9002C6120EA180B4C2CA226F
:101767009002CA120EA175C40743C408E4FFFEFD28
:10177700FC9002CAE0F8A3E0F9A3E0FAA3E0FBC3F8
:10178700120E7D603675C52C75C6CFE5C430E4FBF7
:1017970053C4EF9002CAE0FCA3E0FDA3E0FEA3E080
:1017A700FF74FFEF24FFFFEE34FFFEED34FFFDEC87
:0F17B70034FFFC9002CA120EA180B153C4F72276
:1017C6009002CE120EA175C40743C408E4FFFEFDC5
:1017D600FC9002CEE0F8A3E0F9A3E0FAA3E0FBC395
:1017E600120E7D603675C5D875C6FFE5C430E4FBBC
:1017F60053C4EF9002CEE0FCA3E0FDA3E0FEA3E01D
:10180600FF74FFEF24FFFFEE34FFFEED34FFFDEC27
:0F18160034FFFC9002CE120EA180B153C4F72212
:1019D80053B1BF53B2BF53B17F53B27F75985043D1
:1019E8008920438780438E1053C4DFAB07AA06A91A
:1019F80005A8047F407E427D0F7C00120DEBEF04AA
:091A0800F404F58DD28ED299226E
:1013D8009002D2120EA153B1BF53B2BF53B17F5383
:1013E800B27F75985043878053C4F843C420900255
:1013F800D2E0F8A3E0F9A3E0FAA3E0FB7F407E4245
:101408007D0F7C00120DEBC374FF9FFF74FF9EFEDF
:10141800E49DFDE49CFC7808120E8E8FC69002D2E3
:10142800E0F8A3E0F9A3E0FAA3E0FB7F407E427D69
:101438000F7C00120DEBC374FF9FFF74FF9EFEE448
:0F1448009DFDE49CFCEFE48FC543C408D29922BC
:070003003098FDAF99C2988F
:01000A0022D3
:081AD600C2998F993099FD229D
:10154B009002D6120EA153B1FB53B2FB53B3BF5350
:10155B00B4BF75F85075C40853C4DF9002D6E0F8D9
:10156B00A3E0F9A3E0FAA3E0FB7F407E427D0F7C72
:10157B0000120DEBC374FF9FFF74FF9EFEE49DFDF5
:10158B00E49CFC7808120E8E8FC69002D6E0F8A36E
:10159B00E0F9A3E0FAA3E0FB7F407E427D0F7C00E5
:1015AB00120DEBC374FF9FFF74FF9EFEE49DFDE4E1
:0A15BB009CFCEFE48FC543C4082236
:071ADE0030F8FDAF9AC2F8D9
:011AE50022DE
:081AE600C2F98F9A30F9FD22CC
:0300000002133EAA
:10133E00787FE4F6D8FD9000007FFF7E03E4F0A3F3
:0A134E00DFFCDEFA75812002139324
:10135800020832E493A3F8E493A34003F68001F271
:1013680008DFF48029E493A3F85407240CC8C33396
:10137800C4540F4420C8834004F456800146F6DF65
:10138800E4800B0102040810204080900B50E47E9A
:10139800019360BCA3FF543F30E509541FFEE4935A
:1013A800A360010ECF54C025E060A840B8E493A321
:1013B800FAE493A3F8E493A3C8C582C8CAC583CA4C
:1013C800F0A3C8C582C8CAC583CADFE9DEE780BE04
:010D59000099
:100D5A00BB010CE58229F582E5833AF583E022504E
:100D6A0006E92582F8E622BBFE06E92582F8E22298
:0D0D7A00E58229F582E5833AF583E49322B2
:100D8700EF8DF0A4A8F0CF8CF0A428CE8DF0A42E80
:020D9700FE223A
:100D9900A3F8E0C5F025F0F0E5821582700215830D
:060DA900E0C838F0E8226A
:100DAF0075F008758200EF2FFFEE33FECD33CDCCFB
:100DBF0033CCC58233C5829BED9AEC99E58298407E
:100DCF000CF582EE9BFEED9AFDEC99FC0FD5F0D65B
:100DDF00E4CEFBE4CDFAE4CCF9A88222B800C1B985
:100DEF000059BA002DEC8BF084CFCECDFCE5F0CBC3
:100DFF00F97818EF2FFFEE33FEED33FDEC33FCEBFC
:100E0F0033FB10D703994004EB99FB0FD8E5E4F9B6
:100E1F00FA227818EF2FFFEE33FEED33FDEC33FCA3
:100E2F00C933C910D7059BE99A4007EC9BFCE99A97
:100E3F00F90FD8E0E4C9FAE4CCFB2275F010EF2FDC
:100E4F00FFEE33FEED33FDCC33CCC833C810D707DC
:100E5F009BEC9AE899400AED9BFDEC9AFCE899F817
:0E0E6F000FD5F0DAE4CDFBE4CCFAE4C8F922AA
:100E7D00EB9FF5F0EA9E42F0E99D42F0E89C45F0CB
:010E8D002242
:100E8E00E8600FECC313FCED13FDEE13FEEF13FF42
:030E9E00D8F12266
:0C0EA100ECF0A3EDF0A3EEF0A3EFF022C4
:100EAD00A8828583F0D083D082120EC4120EC41294
:100EBD000EC4120EC4E473E493A3C583C5F0C583B9
:100ECD00C8C582C8F0A3C583C5F0C583C8C582C88F
:010EDD0022F2
:00000001FF
