:10086C004100170141001F0E4100190342001D31C8
:10087C0010420005350142003835044300003403B2
:10088C000143001A420101420009350342000735B9
:10089C000241001410410018114400347E0200EF94
:1008AC004600227E043E0000EF49000B7E03100040
:1008BC00EF7E0200EF4200150001420003FFFF42F1
:0908CC000020000042003A000087
:10000600E4FDFCC3ED9FEE6480F8EC648098501C20
:10001600E4FBFAC3EB94D9EA6480948250070BEBB5
:0C00260070010A80EE0DED70010C80D717
:0100320022AB
:100B8100E4FDFCC3ED9FEE6480F8EC648098501C9A
:100B9100E4FBFAC3EB9448EA6480948050070BEBC2
:0C0BA10070010A80EE0DED70010C80D791
:010BAD002225
:10080000E490004BF0A3F0A3F0A374FAF020981743
:1008100090004D74FFF5F01201F345F060097F017F
:100820007E00120B8180E630983A12003390004B24
:10083000E475F0011201F3FC742825F0F5827400D0
:100840003CF583EFF090004D741FF0A37440F0204E
:1008500098D590004D74FFF5F01201F345F060C794
:0B08600080ED80C390004BE0A3E0FFA0
:01086B00226A
:0B04B70090004BEBF0A3EAF0A3E9F08B
:1004C200E4A3F0FF90005EF0A3F090004EE0FE0483
:1004D200F0744F2EF582E43400F583747EF0ED045F
:1004E200FE90004EE0FC04F0744F2CF582E43400E0
:1004F200F583EEF0EFC39D502A90004BE0FBA3E0A2
:10050200FAA3E0F98F827583001201C6FE90004EB5
:10051200E0FC04F0744F2CF582E43400F583EEF035
:100522000F80D190004EE0244FF582E43400F58331
:1005320074EFF090004EE0FFD390005FE09F748074
:10054200F890005EE0648098501AE475F0011201A0
:10055200F3FE744F25F0F58274003EF583E0FF123E
:040562000BAE80CF8D
:010566002272
:0E030700900040EBF0A3EAF0A3E9F0A3EDF0C4
:10031500E4A3F0A3F0A37402F0900044E07002A3FC
:10032500E060030203E0900046E0FF14F0EF700385
:100335000203E0900040E0FBA3E0FAA3E0F9A3E0AC
:10034500FD1204B7120800900047E4F0A3EFF0E4B3
:10035500A3F0A3F0900048E024FDFF900047E034AF
:10036500FFFEC390004AE09FEE6480F8900049E0EC
:1003750064809850A4E0FEA3E02428F58274003E32
:10038500F583E0647E7043900049E0A3E02429F5FD
:100395008274003EF583E0B40230900049E0A3E0AA
:1003A500242AF58274003EF583E0701E900049E032
:1003B500A3E0242BF58274003EF583E0B4EF0B90A7
:1003C5000044E4F0A304F002031E90004AE004F0A8
:0B03D5007006900049E004F00203599C
:0103E00022FA
:10070C009000407402F0900040E0FF14F0EF606540
:10071C007B017A0079147D011204B7120800AD0731
:10072C007C00E4FBFAED24FDFFEC34FFFEC3EB9FF1
:10073C00EE6480F8EA648098503274282BF5827449
:10074C00003AF583E0B47E1D742A2BF58274003ACE
:10075C00F583E0B4100F742B2BF58274003AF583FB
:10076C00E0FF7E00220BEB70010A80B97F147E0043
:09077C0012000680917EFF7FFF50
:010785002251
:0503E100900040EFF068
:1003E600E4A3F0A3F0A37403F0900040E090001E95
:1003F600F0900041E07002A3E060030204B69000B2
:1004060043E0FF14F0EF70030204B67B017A007933
:100416001D7D021204B77F0D7E001200067B017A55
:100426000079187D011204B7120800900044E4F028
:10043600A3EFF0E4A3F0A3F0900045E024FDFF90C5
:100446000044E034FFFEC3900047E09FEE6480F86E
:10045600900046E06480985098E0FEA3E02428F5DA
:100466008274003EF583E0B47E36900046E0A3E059
:10047600242AF58274003EF583E0B41123900046E9
:10048600E0A3E0242BF58274003EF583E0FF9000A4
:1004960040E0FEEFB50609A3E4F0A304F00203F77B
:1004A600900047E004F07006900046E004F0808873
:0104B6002223
:03003B00020601B9
:10060100C0E0C083C082C0D075D000C000C002C0AD
:1006110003C004C005C006C007E5EC64807056F550
:10062100EC7F14FE120006900015E07002A3E0704A
:100631001D20971A43E98053EA7F43EB8090001510
:10064100F0A304F0900003E4F0A304F080249000F0
:1006510015E07004A3E06401701830971543E98038
:1006610043EA8053EB7F900015F0A3F0900003F074
:10067100A3F05387FDD007D006D005D004D003D016
:0C06810002D000D0D0D082D083D0E03274
:03000300020B0BE2
:100B0B00C0E0C0F0C083C082C0D075D000C000C0B0
:100B1B0001C002C003C004C005C006C0077FAA12F3
:100B2B000BAED007D006D005D004D003D002D00135
:0D0B3B00D000D0D0D082D083D0F0D0E032F6
:10003E0090003CE4F0A304F074FFA3F0A3F0E4F509
:10004E00B1F5B1F5B3F5B4F5ACF5AD7F807E25FD18
:10005E00FC120B48438E027F207E0312000643B330
:10006E008053B47FA2AF920075C7AA75C75575911C
:10007E000143B18075C7AA75C755E4F591A20092E8
:10008E00AF43E90143E98043EA8053EB7F900015CB
:10009E00F0A3F043AC0153ADFE43E90443EA015330
:1000AE00EBFE439B02D2A8D2AF7F0F1203E174FF87
:1000BE00900003F0A3F012070C90003EEEF0A3EFB9
:1000CE00F090003EE0B4FF0AA3E0B4FF057FCC122F
:1000DE000BAE900020E07002A3E0601490003EE0B2
:1000EE007004A3E0640170087F32FE120006807077
:1000FE0090003AE07002A3E0605C7B017A00791A0E
:10010E007D0312030712070C90003EEEF0A3EFF0F2
:10011E0090003EE07004A3E06401700890003AF095
:10012E00A3F0802990003CE0A3E090001CF090002A
:10013E003CE475F0011201F3FEC3E5F0940FEE649A
:10014E00809480400890003CE4F0A304F0E490001A
:10015E0020F0A3F0800AE4900020F0A3F043870281
:10016E00900003E07004A3E06401701E90001B0475
:10017E00F0E4A3F07B017A00791A7D031203079055
:10018E000020E4F0A304F00200BC900003E0700233
:10019E00A3E060030200BC90001B04F090003CE45E
:1001AE0075F0011201F390001CE5F0F090003AE4B6
:0701BE00F0A304F00200BCF5
:0101C5002217
:1009F4009000601202FB538EF7438901D28CE4FF0E
:100A0400FEFDFC900060E0F8A3E0F9A3E0FAA3E0A7
:100A1400FBC31202D76033758A7E758CFF308DFD5F
:100A2400C28D900060E0FCA3E0FDA3E0FEA3E0FF24
:100A340074FFEF24FFFFEE34FFFEED34FFFDEC34D2
:0D0A4400FFFC9000601202FB80B4C28C2207
:100A51009000641202FB538EF7438901D28CE4FFAC
:100A6100FEFDFC900064E0F8A3E0F9A3E0FAA3E046
:100A7100FBC31202D76033758ACA758CFA308DFDBB
:100A8100C28D900064E0FCA3E0FDA3E0FEA3E0FFC3
:100A910074FFEF24FFFFEE34FFFEED34FFFDEC3475
:0D0AA100FFFC9000641202FB80B4C28C22A6
:100AAE009000681202FB538EEF438910D28EE4FF42
:100ABE00FEFDFC900068E0F8A3E0F9A3E0FAA3E0E5
:100ACE00FBC31202D76033758BEA758DCB308FFD69
:100ADE00C28F900068E0FCA3E0FDA3E0FEA3E0FF60
:100AEE0074FFEF24FFFFEE34FFFEED34FFFDEC3418
:0D0AFE00FFFC9000681202FB80B4C28E2243
:1008D60090006C1202FB53C9BF53C9DF43C910D243
:1008E600CAE4FFFEFDFC90006CE0F8A3E0F9A3E08B
:1008F600FAA3E0FBC31202D7603375CC3075CDF88E
:1009060030CFFDC2CF90006CE0FCA3E0FDA3E0FE7B
:10091600A3E0FF74FFEF24FFFFEE34FFFEED34FF8C
:10092600FDEC34FFFC90006C1202FB80B4C2CA22BC
:100936009000701202FB75C40743C408E4FFFEFD75
:10094600FC900070E0F8A3E0F9A3E0FAA3E0FBC393
:100956001202D7603675C52C75C6CFE5C430E4FBE8
:1009660053C4EF900070E0FCA3E0FDA3E0FEA3E01B
:10097600FF74FFEF24FFFFEE34FFFEED34FFFDECC6
:0F09860034FFFC9000701202FB80B153C4F722C3
:100995009000741202FB75C40743C408E4FFFEFD12
:1009A500FC900074E0F8A3E0F9A3E0FAA3E0FBC330
:1009B5001202D7603675C5D875C6FFE5C430E4FBAD
:1009C50053C4EF900074E0FCA3E0FDA3E0FEA3E0B8
:1009D500FF74FFEF24FFFFEE34FFFEED34FFFDEC67
:0F09E50034FFFC9000741202FB80B153C4F72260
:100B480053B1BF53B2BF53B17F53B27F759850436F
:100B58008920438780438E1053C4DFAB07AA06A9B8
:100B680005A8047F407E427D0F7C00120245EF04F9
:090B7800F404F58DD28ED299220D
:10068D009000781202FB53B1BF53B2BF53B17F53E9
:10069D00B27F75985043878053C4F843C4209000AF
:1006AD0078E0F8A3E0F9A3E0FAA3E0FB7F407E42F7
:1006BD007D0F7C00120245C374FF9FFF74FF9EFEE9
:1006CD00E49DFDE49CFC78081202E88FC69000784A
:1006DD00E0F8A3E0F9A3E0FAA3E0FB7F407E427DC2
:1006ED000F7C00120245C374FF9FFF74FF9EFEE452
:0F06FD009DFDE49CFCEFE48FC543C408D2992215
:070033003098FDAF99C2985F
:01003A0022A3
:080BAE00C2998F993099FD22D4
:1007860090007C1202FB53B1FB53B2FB53B3BF5331
:10079600B4BF75F85075C40853C4DF90007CE0F808
:1007A600A3E0F9A3E0FAA3E0FB7F407E427D0F7C45
:1007B60000120245C374FF9FFF74FF9EFEE49DFD79
:1007C600E49CFC78081202E88FC690007CE0F8A34F
:1007D600E0F9A3E0FAA3E0FB7F407E427D0F7C00B8
:1007E600120245C374FF9FFF74FF9EFEE49DFDE465
:0A07F6009CFCEFE48FC543C4082209
:070BB60030F8FDAF9AC2F810
:010BBD002215
:080BBE00C2F98F9A30F9FD2203
:030000000205678F
:10056700787FE4F6D8FD9000007FFF7E03E4F0A3D8
:0A057700DFFCDEFA7581200205BCEE
:1005810002003EE493A3F8E493A34003F68001F252
:1005910008DFF48029E493A3F85407240CC8C3337B
:1005A100C4540F4420C8834004F456800146F6DF4A
:1005B100E4800B010204081020408090086CE47E66
:1005C100019360BCA3FF543F30E509541FFEE4933F
:1005D100A360010ECF54C025E060A840B8E493A306
:1005E100FAE493A3F8E493A3C8C582C8CAC583CA31
:1005F100F0A3C8C582C8CAC583CADFE9DEE780BEE9
:0108D5000022
:1001C600BB010CE58229F582E5833AF583E02250EE
:1001D60006E92582F8E622BBFE06E92582F8E22238
:0D01E600E58229F582E5833AF583E4932252
:1001F300A3F8E0C5F025F0F0E582158270021583BF
:06020300E0C838F0E8221B
:1002090075F008758200EF2FFFEE33FECD33CDCCAC
:1002190033CCC58233C5829BED9AEC99E58298402F
:100229000CF582EE9BFEED9AFDEC99FC0FD5F0D60C
:10023900E4CEFBE4CDFAE4CCF9A88222B800C1B936
:100249000059BA002DEC8BF084CFCECDFCE5F0CB74
:10025900F97818EF2FFFEE33FEED33FDEC33FCEBAD
:1002690033FB10D703994004EB99FB0FD8E5E4F968
:10027900FA227818EF2FFFEE33FEED33FDEC33FC55
:10028900C933C910D7059BE99A4007EC9BFCE99A49
:10029900F90FD8E0E4C9FAE4CCFB2275F010EF2F8E
:1002A900FFEE33FEED33FDCC33CCC833C810D7078E
:1002B9009BEC9AE899400AED9BFDEC9AFCE899F8C9
:0E02C9000FD5F0DAE4CDFBE4CCFAE4C8F9225C
:1002D700EB9FF5F0EA9E42F0E99D42F0E89C45F07D
:0102E70022F4
:1002E800E8600FECC313FCED13FDEE13FEEF13FFF4
:0302F800D8F12218
:0C02FB00ECF0A3EDF0A3EEF0A3EFF02276
:00000001FF
