:10081D004100170141001F0E4100190342001D3117
:10082D001042000535014200383504430000340301
:10083D000143001A42020142000935034200073507
:10084D000241001410410018114400347E0200EFE3
:10085D004600227E043E0000EF49000B7E0310008F
:10086D00EF7E0200EF4200150001420003FFFF4240
:09087D000020000042003A0000D6
:10000600E4FDFCC3ED9FEE6480F8EC648098501C20
:10001600E4FBFAC3EB94D9EA6480948250070BEBB5
:0C00260070010A80EE0DED70010C80D717
:0100320022AB
:100B3200E4FDFCC3ED9FEE6480F8EC648098501CE9
:100B4200E4FBFAC3EB9448EA6480948050070BEB11
:0C0B520070010A80EE0DED70010C80D7E0
:010B5E002274
:1007B100E4900049F0A3F0A3F0A374FAF020981795
:1007C10090004B74FFF5F012006B45F060097F015A
:1007D1007E00120B3280E630983A120033900049C5
:1007E100E475F00112006BFC742825F0F5827400A9
:1007F1003CF583EFF090004B741FF0A37440F020A0
:1008010098D590004B74FFF5F012006B45F060C76E
:0B08110080ED80C3900049E0A3E0FFF1
:01081C0022B9
:0B046800900049EBF0A3EAF0A3E9F0DC
:10047300E4A3F0FF90005CF0A3F090004CE0FE04D6
:10048300F0744D2EF582E43400F583747EF0ED04B0
:10049300FE90004CE0FC04F0744D2CF582E4340033
:1004A300F583EEF0EFC39D502A900049E0FBA3E0F3
:1004B300FAA3E0F98F8275830012003EFE90004C90
:1004C300E0FC04F0744D2CF582E43400F583EEF087
:1004D3000F80D190004CE0244DF582E43400F58385
:1004E30074EFF090004CE0FFD390005DE09F7480C8
:1004F300F890005CE0648098501AE475F0011200F3
:100503006BFE744D25F0F58274003EF583E0FF1217
:040513000B5F80CF2B
:0105170022C1
:0E02B80090003EEBF0A3EAF0A3E9F0A3EDF016
:1002C600E4A3F0A3F0A37403F0900042E07002A34D
:1002D600E06003020391900044E0FF14F0EF700326
:1002E60002039190003EE0FBA3E0FAA3E0F9A3E04D
:1002F600FD1204681207B1900045E4F0A3EFF0E4A4
:10030600A3F0A3F0900046E024FDFF900045E03402
:10031600FFFEC3900048E09FEE6480F8900047E03F
:1003260064809850A4E0FEA3E02428F58274003E81
:10033600F583E0647E7043900047E0A3E02429F54E
:100346008274003EF583E0B40230900047E0A3E0FB
:10035600242AF58274003EF583E0701E900047E083
:10036600A3E0242BF58274003EF583E0B4EF0B90F6
:100376000042E4F0A304F00202CF900048E004F04B
:0B0386007006900047E004F002030A3C
:010391002249
:1006BD0090003E7403F090003EE0FF14F0EF606593
:1006CD007B017A0079147D011204681207B1AD0720
:1006DD007C00E4FBFAED24FDFFEC34FFFEC3EB9F41
:1006ED00EE6480F8EA648098503274282BF5827499
:1006FD00003AF583E0B47E1D742A2BF58274003A1E
:10070D00F583E0B4100F742B2BF58274003AF5834A
:10071D00E0FF7E00220BEB70010A80B97F147E0092
:09072D0012000680917EFF7FFF9F
:0107360022A0
:0503920090003EEFF0B9
:10039700E4A3F0A3F0A37403F090003EE090001EE6
:1003A700F090003FE07002A3E06003020467900052
:1003B70041E0FF14F0EF70030204677B017A0079D4
:1003C7001D7D021204687F0D7E001200067B017AF4
:1003D7000079187D011204681207B1900042E4F019
:1003E700A3EFF0E4A3F0A3F0900043E024FDFF9017
:1003F7000042E034FFFEC3900045E09FEE6480F8C2
:10040700900044E06480985098E0FEA3E02428F52B
:100417008274003EF583E0B47E36900044E0A3E0AA
:10042700242AF58274003EF583E0B411239000443A
:10043700E0A3E0242BF58274003EF583E0FF9000F3
:100447003EE0FEEFB50609A3E4F0A304F00203A81B
:10045700900045E004F07006900044E004F08088C6
:010467002272
:03003B000205B209
:1005B200C0E0C083C082C0D075D000C000C002C0FD
:1005C20003C004C005C006C007E5EC64807056F5A0
:1005D200EC7F14FE120006900015E07002A3E0709A
:1005E2001D20971A43E98053EA7F43EB8090001560
:1005F200F0A304F0900003E4F0A304F08024900040
:1006020015E07004A3E06401701830971543E98087
:1006120043EA8053EB7F900015F0A3F0900003F0C3
:10062200A3F05387FDD007D006D005D004D003D065
:0C06320002D000D0D0D082D083D0E032C3
:03000300020ABC32
:100ABC00C0E0C0F0C083C082C0D075D000C000C000
:100ACC0001C002C003C004C005C006C0077FAA1243
:100ADC000B5FD007D006D005D004D003D002D001D4
:0D0AEC00D000D0D0D082D083D0F0D0E03246
:10017F0090003CE4F0A304F0E4F5B1F5B1F5B3F56C
:10018F00B4F5ACF5AD7F807E25FDFC120AF9438EE8
:10019F00027F327E0012000643B38053B47FA2AFBA
:1001AF00920075C7AA75C75575910143B18075C780
:1001BF00AA75C755E4F591A20092AF43E90143E94F
:1001CF008043EA8053EB7F900015F0A3F043AC011E
:1001DF0053ADFE43E90443EA0153EBFE439B02D2C6
:1001EF00A8D2AF7F0F12039274FF900003F0A3F019
:1001FF00900020E07002A3E060111206BDEF6401D1
:10020F004E70087F32FE120006802E90003AE0708A
:10021F0002A3E0601A7B017A00791A7D031202B8FB
:10022F00E4900020F0A3F090003AF0A3F0800AE4ED
:10023F00900020F0A3F0438702900003E07004A326
:10024F00E06401701D90001B04F0E4A3F07B017AC1
:10025F0000791A7D031202B8900020E4F0A304F095
:10026F008086900003E07002A3E060030201F79024
:10027F00001B04F090003CE475F00112006B90003D
:10028F001CE5F0F090003AE4F0A304F0D390003DA9
:10029F00E0940C90003CE06480948050030201F7DE
:0802AF00E4F0A304F00201F7E2
:0102B7002224
:1009A50090005E120173538EF7438901D28CE4FFE8
:1009B500FEFDFC90005EE0F8A3E0F9A3E0FAA3E0F9
:1009C500FBC312014F6033758A7E758CFF308DFD38
:1009D500C28D90005EE0FCA3E0FDA3E0FEA3E0FF76
:1009E50074FFEF24FFFFEE34FFFEED34FFFDEC3422
:0D09F500FFFC90005E12017380B4C28C22E2
:100A0200900062120173538EF7438901D28CE4FF86
:100A1200FEFDFC900062E0F8A3E0F9A3E0FAA3E097
:100A2200FBC312014F6033758ACA758CFA308DFD93
:100A3200C28D900062E0FCA3E0FDA3E0FEA3E0FF14
:100A420074FFEF24FFFFEE34FFFEED34FFFDEC34C4
:0D0A5200FFFC90006212017380B4C28C2280
:100A5F00900066120173538EEF438910D28EE4FF1C
:100A6F00FEFDFC900066E0F8A3E0F9A3E0FAA3E036
:100A7F00FBC312014F6033758BEA758DCB308FFD41
:100A8F00C28F900066E0FCA3E0FDA3E0FEA3E0FFB1
:100A9F0074FFEF24FFFFEE34FFFEED34FFFDEC3467
:0D0AAF00FFFC90006612017380B4C28E221D
:1008870090006A12017353C9BF53C9DF43C910D21D
:10089700CAE4FFFEFDFC90006AE0F8A3E0F9A3E0DC
:1008A700FAA3E0FBC312014F603375CC3075CDF866
:1008B70030CFFDC2CF90006AE0FCA3E0FDA3E0FECD
:1008C700A3E0FF74FFEF24FFFFEE34FFFEED34FFDC
:1008D700FDEC34FFFC90006A12017380B4C2CA2297
:1008E70090006E12017375C40743C408E4FFFEFD50
:1008F700FC90006EE0F8A3E0F9A3E0FAA3E0FBC3E5
:1009070012014F603675C52C75C6CFE5C430E4FBC0
:1009170053C4EF90006EE0FCA3E0FDA3E0FEA3E06C
:10092700FF74FFEF24FFFFEE34FFFEED34FFFDEC15
:0F09370034FFFC90006E12017380B153C4F7229D
:1009460090007212017375C40743C408E4FFFEFDEC
:10095600FC900072E0F8A3E0F9A3E0FAA3E0FBC381
:1009660012014F603675C5D875C6FFE5C430E4FB85
:1009760053C4EF900072E0FCA3E0FDA3E0FEA3E009
:10098600FF74FFEF24FFFFEE34FFFEED34FFFDECB6
:0F09960034FFFC90007212017380B153C4F7223A
:100AF90053B1BF53B2BF53B17F53B27F75985043BF
:100B09008920438780438E1053C4DFAB07AA06A907
:100B190005A8047F407E427D0F7C001200BDEF04D2
:090B2900F404F58DD28ED299225C
:10063E0090007612017353B1BF53B2BF53B17F53C3
:10064E00B27F75985043878053C4F843C4209000FE
:10065E0076E0F8A3E0F9A3E0FAA3E0FB7F407E4248
:10066E007D0F7C001200BDC374FF9FFF74FF9EFEC2
:10067E00E49DFDE49CFC78081201608FC690007624
:10068E00E0F8A3E0F9A3E0FAA3E0FB7F407E427D11
:10069E000F7C001200BDC374FF9FFF74FF9EFEE42B
:0F06AE009DFDE49CFCEFE48FC543C408D2992264
:070033003098FDAF99C2985F
:01003A0022A3
:080B5F00C2998F993099FD2223
:1007370090007A12017353B1FB53B2FB53B3BF530B
:10074700B4BF75F85075C40853C4DF90007AE0F859
:10075700A3E0F9A3E0FAA3E0FB7F407E427D0F7C94
:10076700001200BDC374FF9FFF74FF9EFEE49DFD52
:10077700E49CFC78081201608FC690007AE0F8A329
:10078700E0F9A3E0FAA3E0FB7F407E427D0F7C0007
:100797001200BDC374FF9FFF74FF9EFEE49DFDE43E
:0A07A7009CFCEFE48FC543C4082258
:070B670030F8FDAF9AC2F85F
:010B6E002264
:080B6F00C2F98F9A30F9FD2252
:03000000020518DE
:10051800787FE4F6D8FD9000007FFF7E03E4F0A327
:0A052800DFFCDEFA75812002056D8C
:1005320002017FE493A3F8E493A34003F68001F25F
:1005420008DFF48029E493A3F85407240CC8C333CA
:10055200C4540F4420C8834004F456800146F6DF99
:10056200E4800B010204081020408090081DE47E04
:10057200019360BCA3FF543F30E509541FFEE4938E
:10058200A360010ECF54C025E060A840B8E493A355
:10059200FAE493A3F8E493A3C8C582C8CAC583CA80
:1005A200F0A3C8C582C8CAC583CADFE9DEE780BE38
:010886000071
:10003E00BB010CE58229F582E5833AF583E0225077
:10004E0006E92582F8E622BBFE06E92582F8E222C1
:0D005E00E58229F582E5833AF583E49322DB
:10006B00A3F8E0C5F025F0F0E58215827002158348
:06007B00E0C838F0E822A5
:1000810075F008758200EF2FFFEE33FECD33CDCC36
:1000910033CCC58233C5829BED9AEC99E5829840B9
:1000A1000CF582EE9BFEED9AFDEC99FC0FD5F0D696
:1000B100E4CEFBE4CDFAE4CCF9A88222B800C1B9C0
:1000C1000059BA002DEC8BF084CFCECDFCE5F0CBFE
:1000D100F97818EF2FFFEE33FEED33FDEC33FCEB37
:1000E10033FB10D703994004EB99FB0FD8E5E4F9F2
:1000F100FA227818EF2FFFEE33FEED33FDEC33FCDF
:10010100C933C910D7059BE99A4007EC9BFCE99AD2
:10011100F90FD8E0E4C9FAE4CCFB2275F010EF2F17
:10012100FFEE33FEED33FDCC33CCC833C810D70717
:100131009BEC9AE899400AED9BFDEC9AFCE899F852
:0E0141000FD5F0DAE4CDFBE4CCFAE4C8F922E5
:10014F00EB9FF5F0EA9E42F0E99D42F0E89C45F006
:01015F00227D
:10016000E8600FECC313FCED13FDEE13FEEF13FF7D
:03017000D8F122A1
:0C017300ECF0A3EDF0A3EEF0A3EFF022FF
:00000001FF
