:1009AE004100130141001B0E410015034200193195
:1009BE001042000535014200323504430000340375
:1009CE00014300164202014100101041001411446F
:1009DE00002E7E0200EF46001C7E043E0000EF4912
:1009EE0000077E031000EF7E0200EF4200110001AF
:0509FE00420003FFFFB1
:100A3D00E4FDFCC3ED9FEE6480F8EC648098501CDF
:100A4D00E4FBFAC3EB94D9EA6480948250070BEB74
:0C0A5D0070010A80EE0DED70010C80D7D6
:010A6900226A
:100A6A00E4FDFCC3ED9FEE6480F8EC648098501CB2
:100A7A00E4FBFAC3EB9448EA6480948050070BEBDA
:0C0A8A0070010A80EE0DED70010C80D7A9
:010A9600223D
:10070D00E4900043F0A3F0A3F0A374FAF02098173F
:10071D0090004574FFF5F012006B45F060097F0104
:10072D007E00120A6A80E630983A120A97900043CA
:10073D00E475F00112006BFC742225F0F582740053
:10074D003CF583EFF0900045741FF0A37440F0204A
:10075D0098D590004574FFF5F012006B45F060C719
:0B076D0080ED80C3900043E0A3E0FF9C
:01077800225E
:0B044000900043EBF0A3EAF0A3E9F00A
:10044B00E4A3F0FF900056F0A3F0900046E0FE040A
:10045B00F074472EF582E43400F583747EF0ED04DE
:10046B00FE900046E0FC04F074472CF582E4340067
:10047B00F583EEF0EFC39D502A900043E0FBA3E021
:10048B00FAA3E0F98F8275830012003EFE900046BE
:10049B00E0FC04F074472CF582E43400F583EEF0B5
:1004AB000F80D1900046E02447F582E43400F583B9
:1004BB0074EFF0900046E0FFD3900057E09F7480FC
:1004CB00F8900056E0648098501AE475F001120021
:1004DB006BFE744725F0F58274003EF583E0FF1246
:0404EB000A9F80CF15
:0104EF0022EA
:0E029000900038EBF0A3EAF0A3E9F0A3EDF044
:10029E00E4A3F0A3F0A37403F090003CE07002A37B
:1002AE00E0600302036990003EE0FF14F0EF70037C
:1002BE00020369900038E0FBA3E0FAA3E0F9A3E0A3
:1002CE00FD12044012070D90003FE4F0A3EFF0E49E
:1002DE00A3F0A3F0900040E024FDFF90003FE03437
:1002EE00FFFEC3900042E09FEE6480F8900041E074
:1002FE0064809850A4E0FEA3E02422F58274003EB0
:10030E00F583E0647E7043900041E0A3E02423F582
:10031E008274003EF583E0B40230900041E0A3E029
:10032E002424F58274003EF583E0701E900041E0B7
:10033E00A3E02425F58274003EF583E0B4EF0B9024
:10034E00003CE4F0A304F00202A7900042E004F0A7
:0B035E007006900041E004F00202E293
:010369002271
:05036A00900038EFF0E7
:10036F00E4A3F0A3F0A37403F0900038E090001A18
:10037F00F0900039E07002A3E0600302043F9000A8
:10038F003BE0FF14F0EF700302043F7B017A00792A
:10039F00197D021204407F0C7E00120A3D7B017A08
:1003AF000079147D0112044012070D90003CE4F017
:1003BF00A3EFF0E4A3F0A3F090003DE024FDFF9045
:1003CF00003CE034FFFEC390003FE09FEE6480F8F6
:1003DF0090003EE06480985098E0FEA3E02422F560
:1003EF008274003EF583E0B47E3690003EE0A3E0D9
:1003FF002424F58274003EF583E0B4112390003E6F
:10040F00E0A3E02425F58274003EF583E0FF900021
:10041F0038E0FEEFB50609A3E4F0A304F002038071
:10042F0090003FE004F0700690003EE004F08088FA
:01043F00229A
:10000300900011E07002A3E0701153E97F53EA7F7F
:1000130043EB80900011F0A304F022900011E070F4
:1000230004A3E06401700F53E97F43EA8053EB7F3D
:07003300900011F0A3F02280
:03003B0002058A31
:10058A00C0E0C083C082C0D075D000C000C002C025
:10059A0003C004C005C006C007E5EC64807054F5CA
:1005AA00EC7F0FFE120A3D900011E07002A3E0708A
:1005BA001B20971843E98053EA7F43EB8090001190
:1005CA00F0A304F0900003E4F0A304F0900011E01B
:1005DA007004A3E06401701830971543E98043EA78
:1005EA008053EB7F900011F0A3F0900003F0A3F08A
:1005FA005387FDD007D006D005D004D003D002D04F
:0A060A0000D0D0D082D083D0E032BF
:10017F00E4F5B1F5B1F5B3F5B4F5ACF5AD7F807E2F
:10018F0025FDFC120A04438E027F327E00120A3DC7
:10019F0043B38053B47FA2AF920075C7AA75C755FA
:1001AF0075910143B18075C7AA75C755E4F591A242
:1001BF000092AF43E90143E98043EA8053EB7F901C
:1001CF000011F0A3F0439B02D2A8D2AFA29733FF46
:1001DF00900034EEF0A3EFF0A3E4F0A3740AF07FE5
:1001EF000F7E00120A3DA297E433FF120A9FA297D7
:1001FF00E4FF33900034CFF0A3EFF074FF900003CF
:10020F00F0A3F0438702900003E07004A3E06401C1
:10021F00702390001704F0A37404F07B017A007927
:10022F00167D03120290900036E475F00112006BF8
:10023F00AFF012036A900003E07002A3E070249005
:10024F0000177402F0A37404F07B017A0079167D15
:10025F0003120290900036E475F00112006BAFF0BC
:10026F0012036AD3900037E09419900036E064804F
:10027F00948050030201EEE4F0A3740AF00201EE41
:01028F00224C
:10089700900058120173538EF7438901D28CE4FFFD
:1008A700FEFDFC900058E0F8A3E0F9A3E0FAA3E00E
:1008B700FBC312014F6033758A7E758CFF308DFD47
:1008C700C28D900058E0FCA3E0FDA3E0FEA3E0FF8B
:1008D70074FFEF24FFFFEE34FFFEED34FFFDEC3431
:0D08E700FFFC90005812017380B4C28C22F7
:1008F40090005C120173538EF7438901D28CE4FF9C
:10090400FEFDFC90005CE0F8A3E0F9A3E0FAA3E0AC
:10091400FBC312014F6033758ACA758CFA308DFDA2
:10092400C28D90005CE0FCA3E0FDA3E0FEA3E0FF29
:1009340074FFEF24FFFFEE34FFFEED34FFFDEC34D3
:0D094400FFFC90005C12017380B4C28C2295
:10095100900060120173538EEF438910D28EE4FF31
:10096100FEFDFC900060E0F8A3E0F9A3E0FAA3E04B
:10097100FBC312014F6033758BEA758DCB308FFD50
:10098100C28F900060E0FCA3E0FDA3E0FEA3E0FFC6
:1009910074FFEF24FFFFEE34FFFEED34FFFDEC3476
:0D09A100FFFC90006012017380B4C28E2232
:1007790090006412017353C9BF53C9DF43C910D232
:10078900CAE4FFFEFDFC900064E0F8A3E0F9A3E0F1
:10079900FAA3E0FBC312014F603375CC3075CDF875
:1007A90030CFFDC2CF900064E0FCA3E0FDA3E0FEE2
:1007B900A3E0FF74FFEF24FFFFEE34FFFEED34FFEB
:1007C900FDEC34FFFC90006412017380B4C2CA22AC
:1007D90090006812017375C40743C408E4FFFEFD65
:1007E900FC900068E0F8A3E0F9A3E0FAA3E0FBC3FA
:1007F90012014F603675C52C75C6CFE5C430E4FBD0
:1008090053C4EF900068E0FCA3E0FDA3E0FEA3E081
:10081900FF74FFEF24FFFFEE34FFFEED34FFFDEC24
:0F08290034FFFC90006812017380B153C4F722B2
:1008380090006C12017375C40743C408E4FFFEFD01
:10084800FC90006CE0F8A3E0F9A3E0FAA3E0FBC396
:1008580012014F603675C5D875C6FFE5C430E4FB94
:1008680053C4EF90006CE0FCA3E0FDA3E0FEA3E01E
:10087800FF74FFEF24FFFFEE34FFFEED34FFFDECC5
:0F08880034FFFC90006C12017380B153C4F7224F
:100A040053B1BF53B2BF53B17F53B27F75985043B4
:100A14008920438780438E1053C4DFAB07AA06A9FD
:100A240005A8047F407E427D0F7C001200BDEF04C8
:090A3400F404F58DD28ED2992252
:1006140090007012017353B1BF53B2BF53B17F53F3
:10062400B27F75985043878053C4F843C420900028
:1006340070E0F8A3E0F9A3E0FAA3E0FB7F407E4278
:100644007D0F7C001200BDC374FF9FFF74FF9EFEEC
:10065400E49DFDE49CFC78081201608FC690007054
:10066400E0F8A3E0F9A3E0FAA3E0FB7F407E427D3B
:100674000F7C001200BDC374FF9FFF74FF9EFEE455
:0F0684009DFDE49CFCEFE48FC543C408D299228E
:070A97003098FDAF99C298F1
:010A9E002235
:080A9F00C2998F993099FD22E4
:1006930090007412017353B1FB53B2FB53B3BF53B6
:1006A300B4BF75F85075C40853C4DF900074E0F804
:1006B300A3E0F9A3E0FAA3E0FB7F407E427D0F7C39
:1006C300001200BDC374FF9FFF74FF9EFEE49DFDF7
:1006D300E49CFC78081201608FC6900074E0F8A3D4
:1006E300E0F9A3E0FAA3E0FB7F407E427D0F7C00AC
:1006F3001200BDC374FF9FFF74FF9EFEE49DFDE4E3
:0A0703009CFCEFE48FC543C40822FC
:070AA70030F8FDAF9AC2F820
:010AAE002225
:080AAF00C2F98F9A30F9FD2213
:030000000204F007
:1004F000787FE4F6D8FD9000007FFF7E03E4F0A350
:0A050000DFFCDEFA758120020545DC
:10050A0002017FE493A3F8E493A34003F68001F287
:10051A0008DFF48029E493A3F85407240CC8C333F2
:10052A00C4540F4420C8834004F456800146F6DFC1
:10053A00E4800B01020408102040809009AEE47E9A
:10054A00019360BCA3FF543F30E509541FFEE493B6
:10055A00A360010ECF54C025E060A840B8E493A37D
:10056A00FAE493A3F8E493A3C8C582C8CAC583CAA8
:10057A00F0A3C8C582C8CAC583CADFE9DEE780BE60
:010A030000F2
:10003E00BB010CE58229F582E5833AF583E0225077
:10004E0006E92582F8E622BBFE06E92582F8E222C1
:0D005E00E58229F582E5833AF583E49322DB
:10006B00A3F8E0C5F025F0F0E58215827002158348
:06007B00E0C838F0E822A5
:1000810075F008758200EF2FFFEE33FECD33CDCC36
:1000910033CCC58233C5829BED9AEC99E5829840B9
:1000A1000CF582EE9BFEED9AFDEC99FC0FD5F0D696
:1000B100E4CEFBE4CDFAE4CCF9A88222B800C1B9C0
:1000C1000059BA002DEC8BF084CFCECDFCE5F0CBFE
:1000D100F97818EF2FFFEE33FEED33FDEC33FCEB37
:1000E10033FB10D703994004EB99FB0FD8E5E4F9F2
:1000F100FA227818EF2FFFEE33FEED33FDEC33FCDF
:10010100C933C910D7059BE99A4007EC9BFCE99AD2
:10011100F90FD8E0E4C9FAE4CCFB2275F010EF2F17
:10012100FFEE33FEED33FDCC33CCC833C810D70717
:100131009BEC9AE899400AED9BFDEC9AFCE899F852
:0E0141000FD5F0DAE4CDFBE4CCFAE4C8F922E5
:10014F00EB9FF5F0EA9E42F0E99D42F0E89C45F006
:01015F00227D
:10016000E8600FECC313FCED13FDEE13FEEF13FF7D
:03017000D8F122A1
:0C017300ECF0A3EDF0A3EEF0A3EFF022FF
:00000001FF
