:100C16004101500141019E0E4101980342019C3160
:100C2600104200AC35014201BD3504430194420136
:100C3600024302474100014300024100014301997A
:100C460042010142013735034200B33502410143F7
:100C5600104100AE174101531141028F184401B8EB
:100C66007E0200EF4601A47E043E0000EF49013AF1
:100C76007E031000EF7E0200EF604000F7000C18C4
:100C860024303B46505962697075797C7E7F7E7C44
:100C960079757069625950463B3024180C00F4E8A7
:100CA600DCD0C5BAB0A79E97908B87848281828458
:100CB600878B90979EA7B0BAC5D0DCE8F460400059
:100CC600B77F7E7C79757069625950463B3024182F
:100CD6000C00F4E8DCD0C5BAB0A79E97908B878449
:100CE60082818284878B90979EA7B0BAC5D0DCE8B4
:100CF600F4000C1824303B46505962697075797CB3
:100D06007E6040024B002010300828183804241456
:100D1600340C2C1C3C022212320A2A1A3A062616D7
:100D2600360E2E1E3E0121113109291939052515C8
:100D3600350D2D1D3D032313330B2B1B3B072717A7
:100D4600370F2F1F3F4100870F41014F00410148D8
:100D5600004101390F6080000700FF00000000001D
:100D6600000000000000000000000000000000007D
:100D7600000000000000000000000000000000006D
:100D8600000000000000000000000000000000005D
:100D9600000000000000000000000000000000004D
:100DA600000000000000000000000000000000003D
:100DB600000000000000000000000000000000002D
:100DC600000000000000000000000000000000001D
:100DD6000000000000000000004201510001420135
:100DE600AA00014200880001420005FFFF4200B54B
:100DF60000004201A100004200AAFFFF42028DFF4F
:100E0600FF4200B100014200AF000044014B000068
:100E160000004401440000000042019F000042021D
:030E260044000085
:10183E00E49002A9F0A3F0A3F0A374FAF020981795
:10184E009002AB74FFF5F0120E6945F060097F014E
:10185E007E00121BC680E630983A1200039002A951
:10186E00E475F001120E69FC74AC25F0F58274017A
:10187E003CF583EFF09002AB741FF0A37440F020A0
:10188E0098D59002AB74FFF5F0120E6945F060C763
:0B189E0080ED80C39002A9E0A3E0FFF2
:0118A900221C
:0B13E7009002A9EBF0A3EAF0A3E9F0EC
:1013F200E4A3F0FF9002BCF0A3F09002ACE0FE0484
:10140200F074AD2EF582E43402F583747EF0ED04BF
:10141200FE9002ACE0FC04F074AD2CF582E43402E0
:10142200F583EEF0EFC39D502A9002A9E0FBA3E002
:10143200FAA3E0F98F82758300120E2AFE9002ACA5
:10144200E0FC04F074AD2CF582E43402F583EEF096
:101452000F80D19002ACE024ADF582E43402F58332
:1014620074EFF09002ACE0FFD39002BDE09F748075
:10147200F89002BCE0648098501AE475F001120EF4
:1014820069FE74AD25F0F58274023EF583E0FF1229
:041492001CDA80CF11
:011496002233
:0E122D0090029EEBF0A3EAF0A3E9F0A3EDF02F
:10123B00E4A3F0A3F0A37402F09002A2E07002A367
:10124B00E060030213089002A4E0FF14F0EF7003B8
:10125B0002130890029EE0FBA3E0FAA3E0F9A3E0DF
:10126B00FD1213E712183E9002A5E4F0A3EFF0E491
:10127B00A3F0A3F09002A6E024FDFF9002A5E034BA
:10128B00FFFEC39002A8E09FEE6480F89002A7E0F7
:10129B0064809850A4E0FEA3E024ACF58274013E78
:1012AB00F583E0647E70459002A7E0A3E024ADF5E2
:1012BB008274013EF583E0640270319002A7E0A3D3
:1012CB00E024AEF58274013EF583E0701F9002A717
:1012DB00E0A3E024AFF58274013EF583E0B4EF0C9C
:1012EB009002A2E4F0A304F0E4FEFF229002A8E037
:1012FB0004F070069002A7E004F002127F7EFF7FDD
:01130B00FFE2
:01130C0022BE
:10165D009002DE7402F09002DEE0FF14F0EF6065A0
:10166D007B017A0179437D011213E712183EAD0714
:10167D007C00E4FBFAED24FDFFEC34FFFEC3EB9F91
:10168D00EE6480F8EA648098503274AC2BF5827465
:10169D00013AF583E0B47E1D74AE2BF58274013AE8
:1016AD00F583E0B4100F74AF2BF58274013AF58316
:1016BD00E0FF7E00220BEB70010A80B97F147E00E3
:0916CD0012000E80917EFF7FFFE8
:0116D60022F1
:1016D70090029E7402F090029EE0FF14F0EF6065A6
:1016E7007B017A0079AE7D011213E712183EAD0730
:1016F7007C00E4FBFAED24FCFFEC34FFFEC3EB9F18
:10170700EE6480F8EA648098503274AC2BF58274EA
:10171700013AF583E0B47E1D74AE2BF58274013A6D
:10172700F583E0B4170F74B02BF58274013AF58393
:10173700E0FF7E00220BEB70010A80B97F147E0068
:0917470012000E80917EFF7FFF6D
:011750002276
:101C3B007B017A0179947D0312122D900196E004B9
:0B1C4B00F0E0D3940240037401F0228B
:101B42001216D790029CEEF0A3EFF0D3E09402902D
:101B5200029CE06480948040317B017A0279477D67
:101B62000312122D900249E004F090029DE024FE3F
:101B7200FF90029CE034FFFE900249E0D39FEE64A6
:0A1B820080F874809840037401F0AD
:011B8C002236
:08130D0090029CEEF0A3EFF04A
:1013150090029C74FFF5F0120E6945F070030213FC
:10132500E312183E90029EE4F0A3EFF0E4A3F0A3CD
:10133500F090029FE024FCFF90029EE034FFFEC384
:101345009002A1E09FEE6480F89002A0E06480988E
:1013550050BEE0FEA3E024ACF58274013EF583E0C7
:10136500B47E2B9002A0E0A3E024AEF58274013E8A
:10137500F583E0B43F189002A0E0A3E024AFF58226
:1013850074013EF583E0B404057E007F01229002DE
:10139500A0E0FEA3E024ACF58274013EF583E0B441
:1013A5007E2B9002A0E0A3E024AEF58274013EF509
:1013B50083E0B43F189002A0E0A3E024AFF5827467
:1013C500013EF583E0B40C057E007F02229002A168
:1013D500E004F070069002A0E004F0021336E4FE8B
:0113E500FF08
:0113E60022E4
:0C1CCE007B017A01799E7D0112122D220B
:101CAC0090019DEFF07B017A01799C7D0212122D3F
:011CBC002205
:10003E009002417401F0900241E0D3940640030215
:10004E0004739001BC7401F0E0FF900241E014FED5
:10005E00EFA806088002C333D8FC9001BCF0E490F0
:10006E000242F09001BCE014FF900242E0D39F40A8
:10007E000302046A9002467401F0E0FF900241E030
:10008E00FEC374079EFEEFA806088002C333D8FC99
:10009E00900246F0E0FF900242E0FEEF8EF0A49058
:1000AE000246F0900242E0A3F0900243E0C3944077
:1000BE004003020461E025E02407F582E43400F5F4
:1000CE0083E0FFA3E0900000CFF0A3EFF090024397
:1000DE00E025E024BFF582E43401F583E0FFA3E0E0
:1000EE0090028BCFF0A3EFF09001BCE0FF900243A3
:1000FE00E02F25E02407F582E43400F583E0FFA32A
:10010E00E0900149CFF0A3EFF09001BCE0FF900228
:10011E0043E02F25E02407F582E43400F583E0FC6C
:10012E00A3E0FD900246E024B7F582E43400F583A7
:10013E00E0FF3395E0FE120E57EF7807CEA2E713DD
:10014E00CE13D8F8FF900243E025E02407F582E4B1
:10015E003400F583E0FCA3E02FFBEC3EFA9001BCEB
:10016E00E0FF900243E02F25E024BFF582E4340146
:10017E00F583E0FCA3E0FD900246E024F7F582E46F
:10018E003400F583E0FF3395E0FE120E57EF78074B
:10019E00CEA2E713CE13D8F82BFFEA3EFE90024311
:1001AE00E025E02407F582E43400F583EEF0A3EFBA
:1001BE00F09001BCE0FF900243E02F25E02407F50C
:1001CE0082E43400F583E0FCA3E0FD900246E024D7
:1001DE00F7F582E43400F583E0FF3395E0FE120E6E
:1001EE0057EF7807CEA2E713CE13D8F8FF9002434D
:1001FE00E025E024BFF582E43401F583E0FCA3E0C2
:10020E00C39FFBEC9EFA9001BCE0FF900243E02FEF
:10021E0025E024BFF582E43401F583E0FCA3E0FD84
:10022E00900246E024B7F582E43400F583E0FF3314
:10023E0095E0FE120E57EF7807CEA2E713CE13D835
:10024E00F82BFFEA3EFE900243E025E024BFF58244
:10025E00E43401F583EEF0A3EFF09001BCE0FF90E3
:10026E000243E02F25E02407F582E43400F583E015
:10027E00FCA3E0FD900246E024B7F582E43400F5DD
:10028E0083E0FF3395E0FE120E57EF7807CEA2E71C
:10029E0013CE13D8F8FFC3900001E09FFB9000002F
:1002AE00E09EFA9001BCE0FF900243E02F25E0248F
:1002BE00BFF582E43401F583E0FCA3E0FD90024635
:1002CE00E024F7F582E43400F583E0FF3395E0FE99
:1002DE00120E57EF7807CEA2E713CE13D8F8FFC34E
:1002EE00EB9FFFEA9EFE9001BCE0FD900243E02DE5
:1002FE0025E02407F582E43400F583EEF0A3EFF059
:10030E00900246E024F7F582E43400F583E0FF33F3
:10031E0095E0FE900149E0FCA3E0FD120E57EF7848
:10032E0007CEA2E713CE13D8F8FF90028CE02FFB76
:10033E0090028BE03EFA9001BCE0FF900243E02F6A
:10034E0025E024BFF582E43401F583E0FCA3E0FD53
:10035E00900246E024B7F582E43400F583E0FF33E3
:10036E0095E0FE120E57EF7807CEA2E713CE13D804
:10037E00F8FFC3EB9FFFEA9EFE9001BCE0FD9002EA
:10038E0043E02D25E024BFF582E43401F583EEF041
:10039E00A3EFF0900243E025E02407F582E4340059
:1003AE00F583C083C082E0FEA3E0FFEEA2E713FE5A
:1003BE00EF13FFD082D083EEF0A3EFF0900243E074
:1003CE0025E024BFF582E43401F583C083C082E0CA
:1003DE00FEA3E0FFEEA2E713FEEF13FFD082D08361
:1003EE00EEF0A3EFF09001BCE0FF900243E02F256A
:1003FE00E02407F582E43400F583C083C082E0FE7A
:10040E00A3E0FFEEA2E713FEEF13FFD082D083EE40
:10041E00F0A3EFF09001BCE0FF900243E02F25E047
:10042E0024BFF582E43401F583C083C082E0FEA3CD
:10043E00E0FFEEA2E713FEEF13FFD082D083EEF0C3
:10044E00A3EFF09001BCE025E0FF900243E02FF017
:10045E000200B7900242E004F0020071900241E007
:10046E0004F0020044E49001BFF0A3F0900007F006
:10047E00A3F0900242F0900242E0C39411400302B6
:10048E000831E025E024BFF582E43401F583E0FC79
:10049E00A3E0FD900242E025E024BFF582E43401A2
:1004AE00F583E0FEA3E0FF120E57AA06AB079002FB
:1004BE0042E025E02407F582E43400F583E0FCA356
:1004CE00E0FD900242E025E02407F582E43400F5D9
:1004DE0083E0FEA3E0FF120E57EF2BFFEE3A9002E1
:1004EE003FF0A3EFF0C3E0940690023FE09400507B
:1004FE0007E4F0A3F00207D2C3900240E0940A9002
:10050E00023FE094005008E4F0A304F00207D2C3C7
:10051E00900240E0941090023FE094005009E4F005
:10052E00A37402F00207D2C3900240E09419900225
:10053E003FE094005009E4F0A37403F00207D2C325
:10054E00900240E0942490023FE094005009E4F0C1
:10055E00A37404F00207D2C3900240E094319002DB
:10056E003FE094005009E4F0A37405F00207D2C3F3
:10057E00900240E0943790023FE094005009E4F07E
:10058E00A37406F00207D2C3900240E0943C90029E
:10059E003FE094005009E4F0A37407F00207D2C3C1
:1005AE00900240E0944190023FE094005009E4F044
:1005BE00A37408F00207D2C3900240E09446900262
:1005CE003FE094005009E4F0A37409F00207D2C38F
:1005DE00900240E0944B90023FE094005009E4F00A
:1005EE00A3740AF00207D2C3900240E09450900226
:1005FE003FE094005009E4F0A3740BF00207D2C35D
:10060E00900240E0946090023FE094005009E4F0C4
:10061E00A3740CF00207D2C3900240E0947D9002C6
:10062E003FE094005009E4F0A3740DF00207D2C32A
:10063E00900240E0949C90023FE094005009E4F058
:10064E00A3740EF00207D2C3900240E094BD900254
:10065E003FE094005009E4F0A3740FF00207D2C3F8
:10066E00900240E094E090023FE094005009E4F0E4
:10067E00A37410F00207D2C3900240E094059002DA
:10068E003FE094015009E4F0A37411F00207D2C3C5
:10069E00900240E0942C90023FE094015009E4F067
:1006AE00A37412F00207D2C3900240E09455900258
:1006BE003FE094015009E4F0A37413F00207D2C393
:1006CE00900240E0948090023FE094015009E4F0E3
:1006DE00A37414F00207D2C3900240E094AD9002CE
:1006EE003FE094015009E4F0A37415F00207D2C361
:1006FE00900240E094DC90023FE094015009E4F057
:10070E00A37416F00207D2C3900240E0940D90023B
:10071E003FE094025009E4F0A37417F00207D2C32D
:10072E00900240E0944090023FE094025009E4F0C1
:10073E00A37418F00207D2C3900240E094759002A1
:10074E003FE094025008E4F0A37419F08076C39051
:10075E000240E094AC90023FE094025008E4F0A313
:10076E00741AF0805FC3900240E094E590023FE07F
:10077E0094025008E4F0A3741BF08048C39002402A
:10078E00E0942090023FE094035008E4F0A3741C20
:10079E00F08031C3900240E0945D90023FE09403FC
:1007AE005008E4F0A3741DF0801AC390023FE09449
:1007BE00045008E4F0A3741EF0800990023FE4F0A8
:1007CE00A3741FF090023FE0A3E0FF900242E024EA
:1007DE008AF582E43400F583EFF0900242E024546F
:1007EE00F582E43401F583E0FFD3900240E09F9060
:1007FE00023FE094004023E0A3E0FF900242E02499
:10080E0054F582E43401F583EFF0900242E0247453
:10081E00F582E43401F5837407F0900242E004F0AF
:04082E00020484221A
:03003B00020FAE03
:100FAE00C0E0C0F0C083C082C0D075D000C000C009
:100FBE0001C002C003C004C005C006C007E5EC3086
:100FCE00E75B75EC007F057E0012000E900151E08C
:100FDE007002A3E0702020971D43E98053EA7F43FF
:100FEE00EB80900151F0A304F0900005E4F0A3040F
:100FFE00F05387FD8027900151E07004A3E0640157
:10100E00701B30971843E98043EA8053EB7F9001C1
:10101E0051F0A3F0900005F0A3F05387FDE5EC30FE
:10102E00E26675EC009000B1E07002A3E07003027E
:10103E0011167F037E0012000E9001AAE07002A32B
:10104E00E0701F20921C43E91053EAFB43EB04901F
:10105E0001AAF0A304F09000B5E4F0A304F0D2913D
:10106E0080269001AAE07004A3E06401701A309209
:10107E001743E91043EA0453EBFB9001AAF0A3F0E7
:10108E009000B5F0A3F0C291E5EC30E37B75EC0077
:10109E007F027E0012000E900088E07002A3E070C6
:1010AE002F20932C43E92053EAF743EB0890008856
:1010BE00F0A304F09001A1E4F0A3F090028D74FF70
:1010CE00F0A3F09000AAE4F0A304F05387FD80385B
:1010DE00900088E07004A3E06401702C30932943E3
:1010EE00E92043EA0853EBF7900088F0A3F0900153
:1010FE00A1F0A304F09000AA74FFF0A3F090028D6B
:10110E00E4F0A304F05387FDD007D006D005D00439
:10111E00D003D002D001D000D0D0D082D083D0F076
:03112E00D0E032DC
:03000B0002149745
:10149700C0E0C0F0C083C082C0D075D000C000C01B
:1014A70001C002C003C004C005C006C007C28DC288
:1014B7008C758AA8758C2FD28C900144E0FCA3E030
:1014C700FDA3E0FEA3E02428FFE43EFEE43DFDE4A7
:1014D7003CFC900144120F71E47FE87E03FDFC9011
:1014E7000144E0F8A3E0F9A3E0FAA3E0FBC3120F7D
:1014F7004D402F900144120F7D0000000090014BDA
:10150700E0FCA3E0FDA3E0FEA3E0FFE4FAF9F8EFB7
:101517002401FFEA3EFEE93DFDE83CFC90014B1249
:101527000F71D007D006D005D004D003D002D00168
:0D153700D000D0D0D082D083D0F0D0E032F0
:101BF300C2817F107E0012130D9000AFEEF0A3EFB1
:101C0300F0A3E4F0A304F07FCC121CDA9000AFE061
:071C1300A3E0FF121CDA221E
:0811310090029CEEF0A3EFF028
:10113900A286E4FF33A3CFF0A3EFF0A287E4FF3345
:10114900A3CFF0A3EFF0A283E4FF33A3CFF0A3EF83
:10115900F0A284E4FF33A3CFF0A3EFF0A292E4332B
:10116900FB7A00C28C90014B120F7D00000000E455
:101179009000B1F0A3F0D281A283FF339002A2CFF5
:10118900F0A3EFF0A284E4FF33A3CFF0A3EFF0A222
:1011990086E4FF3390029ECFF0A3EFF0A287E4FF2D
:1011A90033A3CFF0A3EFF0A292E433FB53B1F7538B
:1011B900B2F753B1EF53B2EF53B3FB53B4FBC2834E
:1011C900C284C286C287C29290029CE07004A3E0E6
:1011D90064017003438702EA4B24FF929243B304EC
:1011E90053B4FB9002A2E0FEA3E0FFEE4F24FF926E
:1011F90083A3E0FEA3E0FFEE4F24FF928490029EBA
:10120900E0FEA3E0FFEE4F24FF9286A3E0FEA3E0F9
:10121900FFEE4F24FF9287AE02AF03EA4B24FF9201
:0312290092D28CD2
:01122C00229F
:101CBD00E4FFFE1211317F0A7E0012000E121BF39B
:011CCD0022F4
:1017CB00E490029CF0A3F053E8F043E80543B1101A
:1017DB0053B2EFF5F643F62043E101D390029DE0BF
:1017EB00944090029CE0648094805046121C1AE452
:1017FB002FFDEE34FFFC90029CE0FEA3E0244BF5A2
:10180B008274023EF583E0FF3395E0FEEF25E0FFA7
:10181B00EE33FE74072FF58274003EF583ECF0A3D4
:10182B00EDF090029DE004F0700690029CE004F055
:02183B0080A982
:01183D002288
:101C7000AD07AC06ECFF3395E08FD3EDF5DB43D633
:041C800002D2DE228C
:101C8400AD07AC06ECFF3395E08FD5EDF5DD43D61B
:041C940008D2DE2272
:101C9800AD07AC06ECFF3395E08FD4EDF5DC43D609
:041CA80004D2DE2262
:1018AA00A2AF9200C2AF75C7AA75C755439101434B
:1018BA00C60275C7AA75C7555391FEA20092AF43D7
:1018CA00DE08A2AF9200C2AF75C7AA75C755439189
:1018DA000143C60475C7AA75C7555391FEA2009263
:1018EA00AF53DF3F43DF0353DFFB75D10775D9CF12
:1018FA00E4FFFE121C70E4FF121C84E4FF121C9821
:03190A00D2DF2207
:101C1A00C2EFD2EE30EFFDE5C2540FFF1313543F6B
:101C2A00FD7C00AFC3EF75F004A42DFFEC35F0FE88
:011C3A002287
:10083200900290E4F0A304F074FFA3F0A3F0E4F5B7
:10084200B1F5B1F5B3F5B4F5ACF5ADC29153B1FD67
:1008520043B202D2817F2C7E0112000E7F807E2560
:100862007D007C00121B8D7FAA121CDA7FAA121C4B
:10087200DA438E02121BF35389F0538EF743890138
:10088200758AA8758C2FD2A9D2AFD28C43B380536C
:10089200B47FA2AF920075C7AA75C755759101437F
:1008A200B18075C7AA75C755E4F591A20092AF430E
:1008B200E98043EA8053EB7F900151F0A3F043B308
:1008C2000853B4F7A2AF920075C7AA75C7557591C0
:1008D2000143B10875C7AA75C755F591A20092AF39
:1008E20043E92053EAF743EB08900088F0A304F0B1
:1008F20043B30453B4FBA2AF920075C7AA75C755A0
:10090200F59143B10475C7AA75C755E4F591A200E4
:1009120092AF43E91043EA0453EBFB9001AAF0A320
:10092200F043E901439B02D2A8D2AF1218AA7F2357
:10093200121CAC900005E07004A3E06401702E90DC
:1009420001A1E07002A3E0702474FF900005F0A3FF
:10095200F0E4900244F0A3F09000B1E07002A3E052
:100962007008121BF37F23121CAC121C3B90000573
:10097200E07002A3E0701A9001A1E07002A3E0709F
:100982001074FF900005F0A3F0900244E4F0A30479
:10099200F09000B5E07002A3E07021900244E07094
:1009A20004A3E064017015900244F0A3F09000B13A
:1009B200E07004A3E064017003121B429000B5E0F2
:0B09C2007004A3E064016003020ACA95
:1009CD00900294F0A3F0A3F0A3F0A3F0A3F0A3F092
:1009DD00A3F0D2DF1217CB12003E90008CE0FF90F7
:1009ED00008BE02FFFE433FE90008DE07C002FFFA5
:1009FD00EC3EFEA3E02FFFEC3EFEA3E02FFFEC3E0E
:100A0D00900296F0A3EFF0900091E0FF900090E03F
:100A1D002FFFEC33FE900092E02FFFEC3EFEA3E0A3
:100A2D002FFFEC3EFEA3E02FFFEC3E900298F0A3CB
:100A3D00EFF0900096E0FF900095E02FFFEC33FE75
:100A4D00900097E02FFFEC3EFEA3E02FFFEC3EFE63
:100A5D00A3E02FFFEC3E90029AF0A3EFF0900296E8
:100A6D00E0FEA3E0FF7D03120E57900296EEF0A379
:100A7D00EFF0A3E0FEA3E0FF120E57900298EEF008
:100A8D00A3EFF0900298E0FEA3E0FF120E57900244
:100A9D0098EEF0A3EFF0900296E0FEA3E0FF121C9B
:100AAD0070A3E0FEA3E0FF121C84A3E0FEA3E0FF11
:0D0ABD00121C9890014B120F7D00000000EC
:100ACA009000B5E07004A3E06401700F9001A1E00A
:100ADA007004A3E064017003121CCE9000B5E070AC
:100AEA0002A3E07012FFFE121C70E4FF121C84E4E1
:100AFA00FF121C984387019000AAE07004A3E064E7
:100B0A0001701E7F2C7E0112000E9000AAE0700474
:100B1A00A3E06401700B74FF9000AAF0A3F0121C0A
:100B2A005690028DE07004A3E06401701D7F64FE9C
:100B3A0012000E90028DE07004A3E06401700B7441
:100B4A00FF90028DF0A3F0121CBD9000B5E0700278
:100B5A00A3E0702F9001A1E07002A3E070257F1E30
:100B6A00FEFDFC90014BE0F8A3E0F9A3E0FAA3E054
:100B7A00FBD3120F4D400C7FAA121CDA7F017E00B4
:100B8A001211319001A1E07004A3E0640170329067
:100B9A0000AFE07004A3E0640270267FB07E04FD1B
:100BAA00FC90014BE0F8A3E0F9A3E0FAA3E0FBD341
:100BBA00120F4D400C7FBB121CDA7F017E0012110E
:100BCA00319001A1E07004A3E064016003020935D9
:100BDA009000AFE07004A3E064027003020935E4F8
:100BEA007F3CFEFDFC90014BE0F8A3E0F9A3E0FA9C
:100BFA00A3E0FBD3120F4D50030209357FCC121C20
:0B0C0A00DA7F017E0012113102093573
:010C150022BC
:10000E00E4FDFCC3ED9FEE6480F8EC648098501C18
:10001E00E4FBFAC3EB94D9EA6480948250070BEBAD
:0C002E0070010A80EE0DED70010C80D70F
:01003A0022A3
:101BC600E4FDFCC3ED9FEE6480F8EC648098501C45
:101BD600E4FBFAC3EB9448EA6480948050070BEB6D
:0C1BE60070010A80EE0DED70010C80D73C
:011BF20022D0
:101A2B009002BE120F71538EF7438901D28CE4FFE3
:101A3B00FEFDFC9002BEE0F8A3E0F9A3E0FAA3E000
:101A4B00FBC3120F4D6033758A7E758CFF308DFD95
:101A5B00C28D9002BEE0FCA3E0FDA3E0FEA3E0FF7D
:101A6B0074FFEF24FFFFEE34FFFEED34FFFDEC348B
:0D1A7B00FFFC9002BE120F7180B4C28C22DD
:101A88009002C2120F71538EF7438901D28CE4FF82
:101A9800FEFDFC9002C2E0F8A3E0F9A3E0FAA3E09F
:101AA800FBC3120F4D6033758ACA758CFA308DFDF1
:101AB800C28D9002C2E0FCA3E0FDA3E0FEA3E0FF1C
:101AC80074FFEF24FFFFEE34FFFEED34FFFDEC342E
:0D1AD800FFFC9002C2120F7180B4C28C227C
:101AE5009002C6120F71538EEF438910D28EE4FF18
:101AF500FEFDFC9002C6E0F8A3E0F9A3E0FAA3E03E
:101B0500FBC3120F4D6033758BEA758DCB308FFD9E
:101B1500C28F9002C6E0FCA3E0FDA3E0FEA3E0FFB8
:101B250074FFEF24FFFFEE34FFFEED34FFFDEC34D0
:0D1B3500FFFC9002C6120F7180B4C28E2218
:10190D009002CA120F7153C9BF53C9DF43C910D218
:10191D00CAE4FFFEFDFC9002CAE0F8A3E0F9A3E0E3
:10192D00FAA3E0FBC3120F4D603375CC3075CDF8C3
:10193D0030CFFDC2CF9002CAE0FCA3E0FDA3E0FED4
:10194D00A3E0FF74FFEF24FFFFEE34FFFEED34FF45
:10195D00FDEC34FFFC9002CA120F7180B4C2CA2292
:10196D009002CE120F7175C40743C408E4FFFEFD4B
:10197D00FC9002CEE0F8A3E0F9A3E0FAA3E0FBC3EC
:10198D00120F4D603675C52C75C6CFE5C430E4FB1E
:10199D0053C4EF9002CEE0FCA3E0FDA3E0FEA3E074
:1019AD00FF74FFEF24FFFFEE34FFFEED34FFFDEC7F
:0F19BD0034FFFC9002CE120F7180B153C4F72299
:1019CC009002D2120F7175C40743C408E4FFFEFDE8
:1019DC00FC9002D2E0F8A3E0F9A3E0FAA3E0FBC389
:1019EC00120F4D603675C5D875C6FFE5C430E4FBE3
:1019FC0053C4EF9002D2E0FCA3E0FDA3E0FEA3E011
:101A0C00FF74FFEF24FFFFEE34FFFEED34FFFDEC1F
:0F1A1C0034FFFC9002D2120F7180B153C4F72235
:101B8D0053B1BF53B2BF53B17F53B27F759850431A
:101B9D008920438780438E1053C4DFAB07AA06A963
:101BAD0005A8047F407E427D0F7C00120EBBEF0422
:091BBD00F404F58DD28ED29922B8
:1015DE009002D6120F7153B1BF53B2BF53B17F53A6
:1015EE00B27F75985043878053C4F843C42090024D
:1015FE00D6E0F8A3E0F9A3E0FAA3E0FB7F407E4239
:10160E007D0F7C00120EBBC374FF9FFF74FF9EFE06
:10161E00E49DFDE49CFC7808120F5E8FC69002D606
:10162E00E0F8A3E0F9A3E0FAA3E0FB7F407E427D61
:10163E000F7C00120EBBC374FF9FFF74FF9EFEE46F
:0F164E009DFDE49CFCEFE48FC543C408D29922B4
:070003003098FDAF99C2988F
:01000A0022D3
:081CDA00C2998F993099FD2297
:101751009002DA120F7153B1FB53B2FB53B3BF5373
:10176100B4BF75F85075C40853C4DF9002DAE0F8CD
:10177100A3E0F9A3E0FAA3E0FB7F407E427D0F7C6A
:1017810000120EBBC374FF9FFF74FF9EFEE49DFD1C
:10179100E49CFC7808120F5E8FC69002DAE0F8A391
:1017A100E0F9A3E0FAA3E0FB7F407E427D0F7C00DD
:1017B100120EBBC374FF9FFF74FF9EFEE49DFDE408
:0A17C1009CFCEFE48FC543C408222E
:071CE20030F8FDAF9AC2F8D3
:011CE90022D8
:081CEA00C2F98F9A30F9FD22C6
:101C560075C7AA75C755A2AF9200C2AF75C7AA7558
:0A1C6600C755439F80A20092AF22F1
:03000000021544A2
:10154400787FE4F6D8FD9000007FFF7E03E4F0A3EB
:0A155400DFFCDEFA75812002159914
:10155E00020832E493A3F8E493A34003F68001F269
:10156E0008DFF48029E493A3F85407240CC8C3338E
:10157E00C4540F4420C8834004F456800146F6DF5D
:10158E00E4800B0102040810204080900C16E47ECB
:10159E00019360BCA3FF543F30E509541FFEE49352
:1015AE00A360010ECF54C025E060A840B8E493A319
:1015BE00FAE493A3F8E493A3C8C582C8CAC583CA44
:1015CE00F0A3C8C582C8CAC583CADFE9DEE780BEFC
:010E290000C8
:100E2A00BB010CE58229F582E5833AF583E022507D
:100E3A0006E92582F8E622BBFE06E92582F8E222C7
:0D0E4A00E58229F582E5833AF583E49322E1
:100E5700EF8DF0A4A8F0CF8CF0A428CE8DF0A42EAF
:020E6700FE2269
:100E6900A3F8E0C5F025F0F0E5821582700215833C
:060E7900E0C838F0E82299
:100E7F0075F008758200EF2FFFEE33FECD33CDCC2A
:100E8F0033CCC58233C5829BED9AEC99E5829840AD
:100E9F000CF582EE9BFEED9AFDEC99FC0FD5F0D68A
:100EAF00E4CEFBE4CDFAE4CCF9A88222B800C1B9B4
:100EBF000059BA002DEC8BF084CFCECDFCE5F0CBF2
:100ECF00F97818EF2FFFEE33FEED33FDEC33FCEB2B
:100EDF0033FB10D703994004EB99FB0FD8E5E4F9E6
:100EEF00FA227818EF2FFFEE33FEED33FDEC33FCD3
:100EFF00C933C910D7059BE99A4007EC9BFCE99AC7
:100F0F00F90FD8E0E4C9FAE4CCFB2275F010EF2F0B
:100F1F00FFEE33FEED33FDCC33CCC833C810D7070B
:100F2F009BEC9AE899400AED9BFDEC9AFCE899F846
:0E0F3F000FD5F0DAE4CDFBE4CCFAE4C8F922D9
:100F4D00EB9FF5F0EA9E42F0E99D42F0E89C45F0FA
:010F5D002271
:100F5E00E8600FECC313FCED13FDEE13FEEF13FF71
:030F6E00D8F12295
:0C0F7100ECF0A3EDF0A3EEF0A3EFF022F3
:100F7D00A8828583F0D083D082120F94120F941221
:100F8D000F94120F94E473E493A3C583C5F0C58346
:100F9D00C8C582C8F0A3C583C5F0C583C8C582C8BE
:010FAD002221
:00000001FF
