:100BC50042000A00004100160E4200143110430095
:100BD5001142010143002C4100014100061742006A
:100BE50000200141001001410018014100040141AC
:100BF50000080041001700410002004100050041C6
:100C05000030004100070041002F0041002B00414A
:100C15000009004100030042000C000042000E00E4
:010C250000CE
:1008F300E490003EF0A3F0A3F0A374FAF02098175D
:1009030090004074FFF5F012030045F060097F0189
:100913007E00120F8680E630985012000390003E4E
:10092300E475F001120300FC741925F0F5827400DC
:100933003CF583EFF0C390003FE0941290003EE05B
:10094300648094804005E0A3E0FF22900040741F80
:10095300F0A37440F02098BF90004074FFF5F012AC
:10096300030045F060B180ED80AD90003EE0A3E070
:01097300FF84
:010974002260
:0B07090090003EEBF0A3EAF0A3E9F043
:10071400E4A3F0FF900051F0A3F0900041E0FE0448
:10072400F074422EF582E43400F583747EF0ED0417
:10073400FE900041E0FC04F074422CF582E43400A5
:10074400F583EEF0EFC39D502A90003EE0FBA3E05A
:10075400FAA3E0F98F827583001202D3FE90004160
:10076400E0FC04F074422CF582E43400F583EEF0EE
:100774000F80D1900041E02442F582E43400F583F7
:1007840074EFF0900041E0FFD3900052E09F74803A
:10079400F8900051E0648098501AE475F001120357
:1007A40000FE744225F0F58274003EF583E0FF12EA
:0407B400105880CF8A
:0107B800221E
:0E055400900033EBF0A3EAF0A3E9F0A3EDF082
:10056200E4A3F0A3F0A37402F0900037E07002A3BA
:10057200E0600302062F900039E0FF14F0EF7003F1
:1005820002062F900033E0FBA3E0FAA3E0F9A3E018
:10059200FD1207091208F390003AE4F0A3EFF0E429
:1005A200A3F0A3F090003BE024FDFF90003AE0347A
:1005B200FFFEC390003DE09FEE6480F890003CE0B7
:1005C20064809850A4E0FEA3E02419F58274003EF2
:1005D200F583E0647E704590003CE0A3E0241AF5C8
:1005E2008274003EF583E06402703190003CE0A327
:1005F200E0241BF58274003EF583E0701F90003CFE
:10060200E0A3E0241CF58274003EF583E0B4EF0C15
:10061200900037E4F0A304F0E4FEFF2290003DE0F6
:1006220004F0700690003CE004F00205A67EFF7F15
:01063200FFC8
:0106330022A4
:1009F4009000337402F0900033E0FF14F0EF606570
:100A04007B017A0079067D011207091208F3AD070C
:100A14007C00E4FBFAED24FCFFEC34FFFEC3EB9F07
:100A2400EE6480F8EA648098503274192BF582746D
:100A3400003AF583E0B47E1D741B2BF58274003AF2
:100A4400F583E0B4170F741D2BF58274003AF58317
:100A5400E0FF7E00220BEB70010A80B97F147E0058
:090A640012000E80917EFF7FFF5D
:010A6D002266
:100A6E009000317402F0900031E0FF14F0EF6065F9
:100A7E007B017A0079007D021207091208F3AD0797
:100A8E007C00E4FBFAED24FCFFEC34FFFEC3EB9F8D
:100A9E00EE6480F8EA648098503274192BF58274F3
:100AAE00003AF583E0B47E1D741B2BF58274003A78
:100ABE00F583E0B4200F741D2BF58274003AF58394
:100ACE00E0FF7E00220BEB70010A80B97F147E00DE
:090ADE0012000E80917EFF7FFFE3
:010AE70022EC
:100F0500120A6E90000AEEF0A3EFF0D3E094009081
:100F1500000AE06480948040117B017A0079117D9C
:100F250003120554900013E004F0900013E0FFC392
:100F350090000BE09F7480F890000AE06480985060
:080F4500069000137401F02274
:100C87001209F4900031EEF0A3EFF090000AE0FEB5
:100C9700A3E0FFD3900032E09FEE6480F89000312C
:100CA700E064809840387B017A00792C7D03120537
:100CB7005490002EE004F090000AE0FEA3E0FFC38A
:100CC700900032E09FFF900031E09EFE90002EE002
:0E0CD700D39FEE6480F874809840037401F09F
:010CE50022EC
:08063400900031EEF0A3EFF09D
:10063C0090003174FFF5F012030045F070030207CF
:10064C00061208F3900033E4F0A3EFF0E4A3F0A358
:10065C00F0900034E024FCFF900033E034FFFEC344
:10066C00900036E09FEE6480F8900035E06480984E
:10067C0050BEE0FEA3E02419F58274003EF583E041
:10068C00B47E29900035E0A3E0241BF58274003E73
:10069C00F583E0B43F16900035E0A3E0241CF5820E
:1006AC0074003EF583E0B404037F0122900035E032
:1006BC00FEA3E02419F58274003EF583E0B47E2994
:1006CC00900035E0A3E0241BF58274003EF583E036
:1006DC00B43F16900035E0A3E0241CF58274003E74
:1006EC00F583E0B40C037F0222900036E004F07036
:0C06FC0006900035E004F002065D7F006F
:0107080022CE
:0C104C007B017A0079167D011205542208
:10102B00900015EFF07B017A0079147D02120554C4
:01103B002292
:03003B00020414A8
:10041400C0E0C0F0C083C082C0D075D000C000C0AE
:1004240001C002C003C004C005C006C007E5EC302B
:10043400E74F75EC00539BFD7F017E0012000E9088
:100444000010E0701920971643E98053EA7F43EBCC
:100454008004F0900002F0D2915387FD8020900038
:1004640010E0B4011930971643E98043EA8053EB56
:100474007FE4F09000027402F0C2915387FD439B25
:1004840002E5EC30E24C75EC00900007E0700302EA
:100494000539539BFD7F037E0012000E900018E087
:1004A400701420921143E91053EAFB43EB0404F067
:1004B400900008F08019900018E0B4011230920FF7
:1004C40043E91043EA0453EBFBE4F0900008F043E3
:1004D4009B02E5EC30E35E75EC00539BFD7F027EEE
:1004E4000012000E900004E0702120931E43E920C6
:1004F40053EAF743EB0804F0900017E4F09000305F
:10050400F090000504F05387FD8027900004E06418
:1005140001701F30931C43E92043EA0853EBF7F0C2
:1005240090001704F0900005E4F090003004F053BC
:1005340087FD439B02D007D006D005D004D003D05A
:1005440002D001D000D0D0D082D083D0F0D0E0321D
:03000B00020EBB27
:100EBB00C0E0C083C082C0D0C28DC28C758AA875B9
:100ECB008C2FD28C90000DE02428F090000CE03495
:100EDB0000F0C3A3E094E890000CE094034012E40C
:100EEB00F0A3F090000FE004F0700690000EE00409
:0A0EFB00F0D0D0D082D083D0E032D6
:100FB300C2817F107E0012063490002FEFF0900064
:100FC300077401F07FCC12105890002FE0FF12102D
:020FD3005822A2
:1007B900A286E433F9A287E433FEA283E433FDA2DF
:1007C90084E433FBA292E433FA539BFDC28CE49098
:1007D900000EF0A3F0900007F0D281A28333FDA2AE
:1007E90084E433FBA286E433F9A287E433FEA292C0
:1007F900E433FA53B1F753B2F753B1EF53B2EF53AE
:10080900B3FB53B4FBC283C284C286C287C292437C
:100819009B02EFB40103438702539BFDEA24FF9235
:100829009243B30453B4FBAF05ED24FF9283AF03A6
:10083900EB24FF9284AF01E924FF9286AF06EE24F0
:0F084900FF9287AF02EA24FF9292D28C439B0268
:01085800227D
:10103C00E4FF1207B97F0A7E0012000E120FB322D2
:100FEF00AD07AC06ECFF3395E08FD3EDF5DB43D6C1
:040FFF0002D2DE221A
:10100300AD07AC06ECFF3395E08FD5EDF5DD43D6A8
:0410130008D2DE22FF
:10101700AD07AC06ECFF3395E08FD4EDF5DC43D696
:0410270004D2DE22EF
:100B6200A2AF9200C2AF75C7AA75C75543910143A0
:100B7200C60275C7AA75C7555391FEA20092AF432C
:100B8200DE08A2AF9200C2AF75C7AA75C7554391DE
:100B92000143C60475C7AA75C7555391FEA20092B8
:100BA200AF53DF3F43DF0353DFFB75D10775D9CF67
:100BB200E4FFFE120FEFE4FF121003E4FF1210171E
:030BC200D2DF225D
:10003E00E4F5B1F5B1F5B3F5B4F5ACF5ADC2915348
:10004E00B1FD43B202D2817F2C7E0112000E7F8061
:10005E007E257D007C00120F4D7FAA1210587FAABC
:10006E00121058438E02120FB35389F0538EF7437A
:10007E008901758AA8758C2FD2A9D2AFD28C43B3C1
:10008E008053B47FA2AF920075C7AA75C7557591FC
:10009E000143B18075C7AA75C755E4F591A20092C8
:1000AE00AF43E98043EA8053EB7F900010F043B3F7
:1000BE000853B4F7A2AF920075C7AA75C7557591CC
:1000CE000143B10875C7AA75C755F591A20092AF45
:1000DE0043E92053EAF743EB0890000404F043B3DE
:1000EE000453B4FBA2AF920075C7AA75C755F5911C
:1000FE0043B10475C7AA75C755E4F591A20092AF36
:10010E0043E91043EA0453EBFB900018F043E90176
:10011E00439B02120B627F2312102B900002E064AD
:10012E0001703E900017E07038900002F090002BA6
:10013E00F0900007E07008120FB37F2312102B12FD
:10014E000F057F057E0012000E900008E0B4010B33
:10015E00E4900003F0900009F08006900003E004A4
:10016E00F0900002E0B40216900017E070109000BC
:10017E002BE0700A900002F090002B7402F09000B9
:10018E0008E0703790002BE06402702F900007E0BB
:10019E00B40128120C877F057E0012000E90000815
:1001AE00E0B4011190002B7401F0E4900009F0907E
:1001BE000003F08006900009E004F0900009E0C30F
:1001CE009402400E900003E09402400690000574E5
:1001DE0001F0900008E0B4010A438701E490000E9C
:1001EE00F0A3F0900008E07012FFFE120FEFE4FF94
:1001FE00121003E4FF121017438701D2917F0A7E7B
:10020E000012000EC2917F147E0012000E900005A7
:10021E00E0B401137F2C7E0112000E900005E0B4B5
:10022E000105E4F0120FD5900030E0B401137F64A5
:10023E007E0012000E900030E0B40105E4F01210C2
:10024E003C900008E0B4010A900017E0B4010312DC
:10025E00104C900008E0701A900017E07014D390C4
:10026E00000FE0940890000EE0940040057F01120C
:10027E0007B9900017E0B4011B90002FE0B40214F0
:10028E00D390000FE094B090000EE0940440057FF0
:10029E00011207B9900017E0640160030201299072
:1002AE00002FE064027003020129D390000FE09446
:1002BE00B090000EE0940450030201297F01120752
:0502CE00B90201292224
:10000E00E4FDFCC3ED9FEE6480F8EC648098501C18
:10001E00E4FBFAC3EB94D9EA6480948250070BEBAD
:0C002E0070010A80EE0DED70010C80D70F
:01003A0022A3
:100F8600E4FDFCC3ED9FEE6480F8EC648098501C91
:100F9600E4FBFAC3EB9448EA6480948050070BEBB9
:0C0FA60070010A80EE0DED70010C80D788
:010FB200221C
:100DA400900053120408538EF7438901D28CE4FF58
:100DB400FEFDFC900053E0F8A3E0F9A3E0FAA3E001
:100DC400FBC31203E46033758A7E758CFF308DFD9E
:100DD400C28D900053E0FCA3E0FDA3E0FEA3E0FF7E
:100DE40074FFEF24FFFFEE34FFFEED34FFFDEC341F
:0D0DF400FFFC90005312040880B4C28C2252
:100E0100900057120408538EF7438901D28CE4FFF6
:100E1100FEFDFC900057E0F8A3E0F9A3E0FAA3E09F
:100E2100FBC31203E46033758ACA758CFA308DFDF9
:100E3100C28D900057E0FCA3E0FDA3E0FEA3E0FF1C
:100E410074FFEF24FFFFEE34FFFEED34FFFDEC34C1
:0D0E5100FFFC90005712040880B4C28C22F0
:100E5E0090005B120408538EEF438910D28EE4FF8C
:100E6E00FEFDFC90005BE0F8A3E0F9A3E0FAA3E03E
:100E7E00FBC31203E46033758BEA758DCB308FFDA7
:100E8E00C28F90005BE0FCA3E0FDA3E0FEA3E0FFB9
:100E9E0074FFEF24FFFFEE34FFFEED34FFFDEC3464
:0D0EAE00FFFC90005B12040880B4C28E228D
:100C270090005F12040853C9BF53C9DF43C910D2EC
:100C3700CAE4FFFEFDFC90005FE0F8A3E0F9A3E043
:100C4700FAA3E0FBC31203E4603375CC3075CDF82B
:100C570030CFFDC2CF90005FE0FCA3E0FDA3E0FE34
:100C6700A3E0FF74FFEF24FFFFEE34FFFEED34FF38
:100C7700FDEC34FFFC90005F12040880B4C2CA2266
:100CE60090006312040875C40743C408E4FFFEFDC0
:100CF600FC900063E0F8A3E0F9A3E0FAA3E0FBC3ED
:100D06001203E4603675C52C75C6CFE5C430E4FB26
:100D160053C4EF900063E0FCA3E0FDA3E0FEA3E074
:100D2600FF74FFEF24FFFFEE34FFFEED34FFFDEC12
:0F0D360034FFFC90006312040880B153C4F7220D
:100D450090006712040875C40743C408E4FFFEFD5C
:100D5500FC900067E0F8A3E0F9A3E0FAA3E0FBC389
:100D65001203E4603675C5D875C6FFE5C430E4FBEB
:100D750053C4EF900067E0FCA3E0FDA3E0FEA3E011
:100D8500FF74FFEF24FFFFEE34FFFEED34FFFDECB3
:0F0D950034FFFC90006712040880B153C4F722AA
:100F4D0053B1BF53B2BF53B17F53B27F7598504366
:100F5D008920438780438E1053C4DFAB07AA06A9AF
:100F6D0005A8047F407E427D0F7C00120352EF04E2
:090F7D00F404F58DD28ED2992204
:1009750090006B12040853B1BF53B2BF53B17F53FC
:10098500B27F75985043878053C4F843C4209000C4
:100995006BE0F8A3E0F9A3E0FAA3E0FB7F407E4219
:1009A5007D0F7C00120352C374FF9FFF74FF9EFEF0
:1009B500E49DFDE49CFC78081203F58FC690006B5E
:1009C500E0F8A3E0F9A3E0FAA3E0FB7F407E427DD7
:1009D5000F7C00120352C374FF9FFF74FF9EFEE459
:0F09E5009DFDE49CFCEFE48FC543C408D299222A
:070003003098FDAF99C2988F
:01000A0022D3
:08105800C2998F993099FD2225
:100AE80090006F12040853B1FB53B2FB53B3BF53CA
:100AF800B4BF75F85075C40853C4DF90006FE0F8B0
:100B0800A3E0F9A3E0FAA3E0FB7F407E427D0F7CDF
:100B180000120352C374FF9FFF74FF9EFEE49DFD05
:100B2800E49CFC78081203F58FC690006FE0F8A3E8
:100B3800E0F9A3E0FAA3E0FB7F407E427D0F7C0052
:100B4800120352C374FF9FFF74FF9EFEE49DFDE4F1
:0A0B58009CFCEFE48FC543C40822A3
:0710600030F8FDAF9AC2F861
:011067002266
:08106800C2F98F9A30F9FD2254
:100FD50075C7AA75C755A2AF9200C2AF75C7AA75E6
:0A0FE500C755439F80A20092AF227F
:030000000208599A
:10085900787FE4F6D8FD9000007FFF7E03E4F0A3E3
:0A086900DFFCDEFA7581200208AE04
:1008730002003EE493A3F8E493A34003F68001F25D
:1008830008DFF48029E493A3F85407240CC8C33386
:10089300C4540F4420C8834004F456800146F6DF55
:1008A300E4800B0102040810204080900BC5E47E15
:1008B300019360BCA3FF543F30E509541FFEE4934A
:1008C300A360010ECF54C025E060A840B8E493A311
:1008D300FAE493A3F8E493A3C8C582C8CAC583CA3C
:1008E300F0A3C8C582C8CAC583CADFE9DEE780BEF4
:010C260000CD
:1002D300BB010CE58229F582E5833AF583E02250E0
:1002E30006E92582F8E622BBFE06E92582F8E2222A
:0D02F300E58229F582E5833AF583E4932244
:10030000A3F8E0C5F025F0F0E582158270021583B0
:06031000E0C838F0E8220D
:1003160075F008758200EF2FFFEE33FECD33CDCC9E
:1003260033CCC58233C5829BED9AEC99E582984021
:100336000CF582EE9BFEED9AFDEC99FC0FD5F0D6FE
:10034600E4CEFBE4CDFAE4CCF9A88222B800C1B928
:100356000059BA002DEC8BF084CFCECDFCE5F0CB66
:10036600F97818EF2FFFEE33FEED33FDEC33FCEB9F
:1003760033FB10D703994004EB99FB0FD8E5E4F95A
:10038600FA227818EF2FFFEE33FEED33FDEC33FC47
:10039600C933C910D7059BE99A4007EC9BFCE99A3B
:1003A600F90FD8E0E4C9FAE4CCFB2275F010EF2F80
:1003B600FFEE33FEED33FDCC33CCC833C810D70780
:1003C6009BEC9AE899400AED9BFDEC9AFCE899F8BB
:0E03D6000FD5F0DAE4CDFBE4CCFAE4C8F9224E
:1003E400EB9FF5F0EA9E42F0E99D42F0E89C45F06F
:0103F40022E6
:1003F500E8600FECC313FCED13FDEE13FEEF13FFE6
:03040500D8F12209
:0C040800ECF0A3EDF0A3EEF0A3EFF02267
:00000001FF
