:10102B0042014A00004101580E4201563110430162
:10103B00534201014301EE4100014100C61742003A
:10104B0000200160400109000C1824303B46505928
:10105B0062697075797C7E7F7E7C79757069625967
:10106B0050463B3024180C00F4E8DCD0C5BAB0A7CE
:10107B009E97908B878482818284878B90979EA783
:10108B00B0BAC5D0DCE8F4604000C97F7E7C7975CE
:10109B007069625950463B3024180C00F4E8DCD0E0
:1010AB00C5BAB0A79E97908B878482818284878BE9
:1010BB0090979EA7B0BAC5D0DCE8F4000C1824308A
:1010CB003B46505962697075797C7E604001F20035
:1010DB0020103008281838042414340C2C1C3C0223
:1010EB002212320A2A1A3A062616360E2E1E3E01F6
:1010FB0021113109291939052515350D2D1D3D03F3
:10110B002313330B2B1B3B072717370F2F1F3F6067
:10111B0080000300FF000000000000000000000042
:10112B0000000000000000000000000000000000B4
:10113B0000000000000000000000000000000000A4
:10114B000000000000000000000000000000000094
:10115B000000000000000000000000000000000084
:10116B000000000000000000000000000000000074
:10117B000000000000000000000000000000000064
:10118B000000000000000000000000000000000054
:10119B000000004101520141015A0141008401410B
:1011AB0000C80041015900410002004100C5004147
:1011BB000232004100C7004101F1004101ED004145
:1011CB000149004100830042014C000042015000E4
:0611DB000042014E00007D
:10194D00E4900284F0A3F0A3F0A374FAF0209817AA
:10195D0090028674FFF5F0120AD045F060097F0100
:10196D007E00121FE580E63098501200039002842D
:10197D00E475F001120AD0FC745B25F0F582740158
:10198D003CF583EFF0C3900285E09412900284E061
:10199D00648094804005E0A3E0FF22900286741FCE
:1019AD00F0A37440F02098BF90028674FFF5F012FA
:1019BD000AD045F060B180ED80AD900284E0A3E0E7
:0119CD00FF1A
:0119CE0022F6
:0B176300900284EBF0A3EAF0A3E9F091
:10176E00E4A3F0FF900297F0A3F0900287E0FE044E
:10177E00F074882EF582E43402F583747EF0ED0465
:10178E00FE900287E0FC04F074882CF582E43402AB
:10179E00F583EEF0EFC39D502A900284E0FBA3E0A8
:1017AE00FAA3E0F98F82758300120A5BFE9002871E
:1017BE00E0FC04F074882CF582E43402F583EEF03C
:1017CE000F80D1900287E02488F582E43402F583FD
:1017DE0074EFF0900287E0FFD3900298E09F748040
:1017EE00F8900297E0648098501AE475F001120A9E
:1017FE00D0FE748825F0F58274023EF583E0FF1268
:04180E0020FF80CF68
:0118120022B3
:0E141E00900279EBF0A3EAF0A3E9F0A3EDF061
:10142C00E4A3F0A3F0A37402F090027DE07002A399
:10143C00E060030214F990027FE0FF14F0EF7003F8
:10144C000214F9900279E0FBA3E0FAA3E0F9A3E01F
:10145C00FD12176312194D900280E4F0A3EFF0E433
:10146C00A3F0A3F0900281E024FDFF900280E03411
:10147C00FFFEC3900283E09FEE6480F8900282E04E
:10148C0064809850A4E0FEA3E0245BF58274013ED6
:10149C00F583E0647E7045900282E0A3E0245CF565
:1014AC008274013EF583E064027031900282E0A305
:1014BC00E0245DF58274013EF583E0701F9002829A
:1014CC00E0A3E0245EF58274013EF583E0B4EF0CFA
:1014DC0090027DE4F0A304F0E4FEFF22900283E08E
:1014EC0004F07006900282E004F00214707EFF7F1C
:0114FC00FFF0
:0114FD0022CC
:101A4E009002797402F0900279E0FF14F0EF606575
:101A5E007B017A0079C67D0112176312194DAD070D
:101A6E007C00E4FBFAED24FCFFEC34FFFEC3EB9F9D
:101A7E00EE6480F8EA6480985032745B2BF58274C1
:101A8E00013AF583E0B47E1D745D2BF58274013A44
:101A9E00F583E0B4170F745F2BF58274013AF5836A
:101AAE00E0FF7E00220BEB70010A80B97F147E00EE
:091ABE0012000E80917EFF7FFFF3
:011AC70022FC
:101AC8009002777402F0900277E0FF14F0EF6065FF
:101AD8007B017A0079007D0212176312194DAD0758
:101AE8007C00E4FBFAED24FCFFEC34FFFEC3EB9F23
:101AF800EE6480F8EA6480985032745B2BF5827447
:101B0800013AF583E0B47E1D745D2BF58274013AC9
:101B1800F583E0B4200F745F2BF58274013AF583E6
:101B2800E0FF7E00220BEB70010A80B97F147E0073
:091B380012000E80917EFF7FFF78
:011B41002281
:101F6400121AC890014AEEF0A3EFF0D3E094009067
:101F7400014AE06480948040117B017A0179537DA9
:101F84000312141E900155E004F0900155E0FFC3C4
:101F940090014BE09F7480F890014AE0648098506F
:081FA400069001557401F022C2
:101CE600121A4E900277EEF0A3EFF090014AE0FE52
:101CF600A3E0FFD3900278E09FEE6480F89002772D
:101D0600E064809840387B017A0179EE7D031214F5
:101D16001E9001F0E004F090014AE0FEA3E0FFC34C
:101D2600900278E09FFF900277E09EFE9001F0E03F
:0E1D3600D39FEE6480F874809840037401F02F
:011D4400227C
:0814FE00900277EEF0A3EFF07D
:1015060090027774FFF5F0120AD045F070030215C9
:10151600D012194D900279E4F0A3EFF0E4A3F0A302
:10152600F090027AE024FCFF900279E034FFFEC3DB
:1015360090027CE09FEE6480F890027BE0648098E5
:1015460050BEE0FEA3E0245BF58274013EF583E025
:10155600B47E2990027BE0A3E0245DF58274013E0F
:10156600F583E0B43F1690027BE0A3E0245EF582AB
:1015760074013EF583E0B404037F012290027BE010
:10158600FEA3E0245BF58274013EF583E0B47E2978
:1015960090027BE0A3E0245DF58274013EF583E0D2
:1015A600B43F1690027BE0A3E0245EF58274013E10
:1015B600F583E0B40C037F022290027CE004F07015
:0C15C6000690027BE004F00215277F0075
:0115D20022F6
:0C20F3007B017A0179587D0112141E2235
:1020D200900157EFF07B017A0179567D0212141EAE
:0120E20022DB
:0615D3009002A7120BD8E4
:1015D900E4FFFEFDFC9002A7E0F8A3E0F9A3E0FA1E
:1015E900A3E0FB1209985008E4FFFE7D807CBF222E
:1015F900E4FFFEFDFC9002A7E0F8A3E0F9A3E0FAFE
:10160900A3E0FB1209987005FFFEFDFC229002ABD6
:10161900120BE43F8000009002ABE0FCA3E0FDA3C5
:10162900E0FEA3E0FFA3120BD89002AFE0F8A3E01D
:10163900F9A3E0FAA3E0FB9002A7E0FCA3E0FDA375
:10164900E0FEA3E0FF1208FB9002AFE0F8A3E0F987
:10165900A3E0FAA3E0FB120807E4FBFAF9784012C9
:1016690008FB9002AB120BD89002AFE0FCA3E0FD9F
:10167900A3E0FEA3E0FF9002ABE0F8A3E0F9A3E04A
:10168900FAA3E0FB120998708E9002ABE0FCA3E08C
:07169900FDA3E0FEA3E0FF4A
:0116A0002227
:10003E0090027C740FF0E4A3F090027704F090022B
:10004E0077E0D39406400302047B90027A7401F0A9
:10005E00E0FF900277E014FEEFA806088002C3339B
:10006E00D8FC90027AF0E4900278F090027AE014D4
:10007E00FF900278E0D39F400302047290027B74DB
:10008E0001F0E0FF900277E0FEC374079EFEEFA83A
:10009E0006088002C333D8FC90027BF0E0FF90028A
:1000AE0078E0FEEF8EF0A490027BF0900278E0A351
:1000BE00F0900279E0C394404003020469E025E029
:1000CE002403F582E43400F583E0FFA3E090027E82
:1000DE00CFF0A3EFF0900279E025E0246DF582E4F5
:1000EE003401F583E0FFA3E0900280CFF0A3EFF0A0
:1000FE0090027AE0FF900279E02F25E02403F5824A
:10010E00E43400F583E0FFA3E0900282CFF0A3EF8A
:10011E00F090027AE0FF900279E02F25E02403F5BB
:10012E0082E43400F583E0FCA3E0FD90027BE02442
:10013E00C9F582E43400F583E0FF3395E0FE120A40
:10014E0088EF7807CEA2E713CE13D8F8FF90027986
:10015E00E025E02403F582E43400F583E0FCA3E01F
:10016E002FFBEC3EFA90027AE0FF900279E02F2509
:10017E00E0246DF582E43401F583E0FCA3E0FD900C
:10018E00027BE02409F582E43401F583E0FF339528
:10019E00E0FE120A88EF7807CEA2E713CE13D8F846
:1001AE002BFFEA3EFE900279E025E02403F582E47F
:1001BE003400F583EEF0A3EFF090027AE0FF9002A8
:1001CE0079E02F25E02403F582E43400F583E0FC8A
:1001DE00A3E0FD90027BE02409F582E43401F5836F
:1001EE00E0FF3395E0FE120A88EF7807CEA2E71300
:1001FE00CE13D8F8FF900279E025E0246DF582E465
:10020E003401F583E0FCA3E0C39FFBEC9EFA900261
:10021E007AE0FF900279E02F25E0246DF582E43438
:10022E0001F583E0FCA3E0FD90027BE024C9F5829A
:10023E00E43400F583E0FF3395E0FE120A88EF7890
:10024E0007CEA2E713CE13D8F82BFFEA3EFE90029C
:10025E0079E025E0246DF582E43401F583EEF0A318
:10026E00EFF090027AE0FF900279E02F25E0240370
:10027E00F582E43400F583E0FCA3E0FD90027BE020
:10028E0024C9F582E43400F583E0FF3395E0FE12D5
:10029E000A88EF7807CEA2E713CE13D8F8FFC390E3
:1002AE00027FE09FFB90027EE09EFA90027AE0FFD2
:1002BE00900279E02F25E0246DF582E43401F58378
:1002CE00E0FCA3E0FD90027BE02409F582E434011A
:1002DE00F583E0FF3395E0FE120A88EF7807CEA291
:1002EE00E713CE13D8F8FFC3EB9FFFEA9EFE9002F2
:1002FE007AE0FD900279E02D25E02403F582E434C6
:10030E0000F583EEF0A3EFF090027BE02409F58276
:10031E00E43401F583E0FF3395E0FE900282E0FCC9
:10032E00A3E0FD120A88EF7807CEA2E713CE13D80A
:10033E00F8FF900281E02FFB900280E03EFA9002DF
:10034E007AE0FF900279E02F25E0246DF582E43407
:10035E0001F583E0FCA3E0FD90027BE024C9F58269
:10036E00E43400F583E0FF3395E0FE120A88EF785F
:10037E0007CEA2E713CE13D8F8FFC3EB9FFFEA9E7A
:10038E00FE90027AE0FD900279E02D25E0246DF5D5
:10039E0082E43401F583EEF0A3EFF0900279E025CC
:1003AE00E02403F582E43400F583C083C082E0FECE
:1003BE00A3E0FFEEA2E713FEEF13FFD082D083EE91
:1003CE00F0A3EFF0900279E025E0246DF582E4349D
:1003DE0001F583C083C082E0FEA3E0FFEEA2E71327
:1003EE00FEEF13FFD082D083EEF0A3EFF090027AEF
:1003FE00E0FF900279E02F25E02403F582E434003B
:10040E00F583C083C082E0FEA3E0FFEEA2E713FEF9
:10041E00EF13FFD082D083EEF0A3EFF090027AE0DC
:10042E00FF900279E02F25E0246DF582E43401F58A
:10043E0083C083C082E0FEA3E0FFEEA2E713FEEFCF
:10044E0013FFD082D083EEF0A3EFF090027AE02576
:10045E00E0FF900279E02FF00200BF900278E004F6
:10046E00F0020079900277E004F002004CE4900173
:10047E006DF0A3F0900003F0A3F0900278F09002DC
:10048E0078E0C3942040030207FFE025E0246DF5D9
:10049E0082E43401F583E0FCA3E0FD900278E025D0
:1004AE00E0246DF582E43401F583E0FEA3E0FF1253
:1004BE000A88AA06AB07900278E025E02403F582AD
:1004CE00E43400F583E0FCA3E0FD900278E025E043
:1004DE002403F582E43400F583E0FEA3E0FF120A64
:1004EE0088EF2BFFEE3A900284F0A3EFF0C3E09476
:1004FE0004900284E094005007E4F0A3F00207DABF
:10050E00C3900285E09409900284E094005008E4C0
:10051E00F0A304F00207DAC3900285E09410900273
:10052E0084E094005009E4F0A37402F00207DAC3E9
:10053E00900285E09419900284E094005009E4F052
:10054E00A37403F00207DAC3900285E094249002AC
:10055E0084E094005009E4F0A37404F00207DAC3B7
:10056E00900285E09431900284E094005009E4F00A
:10057E00A37405F00207DAC3900285E09437900267
:10058E0084E094005009E4F0A37406F00207DAC385
:10059E00900285E0943C900284E094005009E4F0CF
:1005AE00A37407F00207DAC3900285E0944190022B
:1005BE0084E094005009E4F0A37408F00207DAC353
:1005CE00900285E09446900284E094005009E4F095
:1005DE00A37409F00207DAC3900285E0944B9002EF
:1005EE0084E094005009E4F0A3740AF00207DAC321
:1005FE00900285E09450900284E094005009E4F05B
:10060E00A3740BF00207DAC3900285E094609002A7
:10061E0084E094005009E4F0A3740CF00207DAC3EE
:10062E00900285E0947D900284E094005009E4F0FD
:10063E00A3740DF00207DAC3900285E0949C900239
:10064E0084E094005009E4F0A3740EF00207DAC3BC
:10065E00900285E094BD900284E094005009E4F08D
:10066E00A3740FF00207DAC3900285E094E09002C3
:10067E0084E094005009E4F0A37410F00207DAC38A
:10068E00900285E09405900284E094015009E4F014
:10069E00A37411F00207DAC3900285E0942C900245
:1006AE0084E094015009E4F0A37412F00207DAC357
:1006BE00900285E09455900284E094015009E4F094
:1006CE00A37413F00207DAC3900285E094809002BF
:1006DE0084E094015009E4F0A37414F00207DAC325
:1006EE00900285E094AD900284E094015009E4F00C
:1006FE00A37415F00207DAC3900285E094DC900231
:10070E0084E094015009E4F0A37416F00207DAC3F2
:10071E00900285E0940D900284E094025009E4F07A
:10072E00A37417F00207DAC3900285E0944090029A
:10073E0084E094025009E4F0A37418F00207DAC3BF
:10074E00900285E09475900284E094025008E4F0E3
:10075E00A37419F08076C3900285E094AC90028465
:10076E00E094025008E4F0A3741AF0805FC3900284
:10077E0085E094E5900284E094025008E4F0A374BE
:10078E001BF08048C3900285E09420900284E09490
:10079E00035008E4F0A3741CF08031C3900285E08E
:1007AE00945D900284E094035008E4F0A3741DF06D
:1007BE00801AC3900284E094045008E4F0A3741EDF
:1007CE00F08009900284E4F0A3741FF0900284E09C
:1007DE00FEA3E0FF900278E025E02485F582E43464
:1007EE0000F583EEF0A3EFF0900278E004F002043F
:0107FE008C6E
:0107FF0022D7
:03003B000211E2CD
:1011E200C0E0C0F0C083C082C0D075D000C000C0D3
:1011F20001C002C003C004C005C006C007E5EC3050
:10120200E74F75EC00539BFD7F017E0012000E90AC
:101212000152E0701920971643E98053EA7F43EBAD
:101222008004F0900002F0D2915387FD802090015B
:1012320052E0B4011930971643E98043EA8053EB38
:101242007FE4F09000027402F0C2915387FD439B49
:1012520002E5EC30E24C75EC009000C7E07003024E
:101262001307539BFD7F037E0012000E90015AE08C
:10127200701420921143E91053EAFB43EB0404F08B
:101282009000C8F0801990015AE0B4011230920F18
:1012920043E91043EA0453EBFBE4F09000C8F04347
:1012A2009B02E5EC30E35E75EC00539BFD7F027E12
:1012B2000012000E900084E0702120931E43E9206A
:1012C20053EAF743EB0804F0900159E4F09002323C
:1012D200F09000C504F05387FD8027900084E064FD
:1012E20001701F30931C43E92043EA0853EBF7F0E7
:1012F20090015904F09000C5E4F090023204F053DA
:1013020087FD439B02D007D006D005D004D003D07E
:1013120002D001D000D0D0D082D083D0F0D0E03241
:03000B00021F1AB7
:101F1A00C0E0C083C082C0D0C28DC28C758AA87549
:101F2A008C2FD28C90014DE02428F090014CE034A3
:101F3A0000F0C3A3E094E890014CE094034012E45B
:101F4A00F0A3F0900151E004F07006900150E00413
:0A1F5A00F0D0D0D082D083D0E03266
:10201200C2817F107E001214FE9001F1EFF0900059
:10202200C77401F07FCC1220FF9001F1E0FF122073
:02203200FF228B
:10181300A286E433F9A287E433FEA283E433FDA274
:1018230084E433FBA292E433FA539BFDC28CE4902D
:101833000150F0A3F09000C7F0D281A28333FDA240
:1018430084E433FBA286E433F9A287E433FEA29255
:10185300E433FA53B1F753B2F753B1EF53B2EF5343
:10186300B3FB53B4FBC283C284C286C287C2924312
:101873009B02EFB40103438702539BFDEA24FF92CB
:101883009243B30453B4FBAF05ED24FF9283AF033C
:10189300EB24FF9284AF01E924FF9286AF06EE2486
:0F18A300FF9287AF02EA24FF9292D28C439B02FE
:0118B2002213
:1020E300E4FF1218137F0A7E0012000E1220122240
:10203400AB07AA067C007D2C120A88AA06AB07EA25
:10204400FF3395E08FD3AF03EFF5DB43D602D2DE47
:012054002269
:10205500AB07AA067C007D2E120A88AA06AB07EA02
:10206500FF3395E08FD5AF03EFF5DD43D608D2DE1C
:012075002248
:10207600AB07AA067C007D2C120A88AA06AB07EAE3
:10208600FF3395E08FD4AF03EFF5DC43D604D2DE01
:012096002227
:101BBC00A2AF9200C2AF75C7AA75C7554391014336
:101BCC00C60275C7AA75C7555391FEA20092AF43C2
:101BDC00DE08A2AF9200C2AF75C7AA75C755439174
:101BEC000143C60475C7AA75C7555391FEA200924E
:101BFC00AF53DF3F43DF0353DFFB75D10775D9CFFD
:101C0C00E4FFFE122034E4FFFE122055E4FFFE1226
:051C1C002076D2DF225A
:10209700C2EFD2EE30EFFDE5C2540FFF1313543FEA
:1020A700FD7C00AFC3EF75F004A42DFFEC35F0FE07
:0120B7002206
:101C2100E4FBFA53E8F043E80543B11053B2EFF592
:101C3100F643F62043E101EBD3944050471220973D
:101C4100EF7802CEA2E713CE13D8F82400FDEE34CC
:101C5100FFFC74F22BF582E43401F583E0FF339548
:101C6100E0FEEF25E0FFEE33FE74032FF5827400F2
:101C71003EF583ECF0A3EDF00BE4FAEAC3940A50CD
:041C8100B60A80F728
:011C8500223C
:0416A100AB07AA06E3
:1016A500E49002A3F0A37409F0E4A3F0C3EA648014
:1016B5009480500A7401F0C3E49BFBE49AFAEB4A68
:1016C50070149002A4E0FF14F074992FF582E434AD
:1016D50002F5837430F0D3EB9400EA648094804083
:0116E50038CC
:1016E6007C007D0AAF03AE02120A9A9002A6EDF0C4
:1016F600E02430FF9002A4E0FE14F074992EF582E7
:10170600E43402F583EFF07C007D0AAF03AE0212EB
:061716000A9AAA06AB07C7
:10171C0080BD9002A5E0B401149002A4E0FF14F087
:10172C0074992FF582E43402F583742DF09002A4A1
:10173C00E0049002A3F09002A3E0C3940A5017E0D7
:10174C002499F582E43402F583E0FF12210F900214
:06175C00A3E004F080E0B0
:011762002264
:061322009002B3120BD88B
:10132800E49002B7F0A3F053E8F043E80543B110A6
:1013380053B2EFF5F643F62043E101D2AE538EF7F0
:10134800438901D28CE4FFFEFDFC9002B3E0F8A3D0
:10135800E0F9A3E0FAA3E0FBC3120BB47003021494
:1013680007758AEA758CCB208D6A122097E42FFDC9
:10137800EE34FFFC90014EE0FEA3E024F2F5827407
:10138800013EF583E0FF3395E0FEEF25E0FFEE3305
:10139800FE74032FF58274003EF583ECF0A3EDF0A4
:1013A80090014FE004F0700690014EE004F0E490E4
:1013B80002B7F0A3F0C39002B8E0940D9002B7E032
:1013C8006480948050A1A3E004F070069002B7E016
:1013D80004F080E1C28D9002B3E0FCA3E0FDA3E03D
:1013E800FEA3E0FF74FFEF24FFFFEE34FFFEED34B1
:1013F800FFFDEC34FFFC9002B3120BD802134D90A2
:10140800014EE0FEA3E0FF1216A1E490014EF0A306
:05141800F0C28CC2AE21
:01141D0022AC
:100C6A00E4F5B1F5B1F5B3F5B4F5ACF5ADC2915310
:100C7A00B1FD43B202D2817F2C7E0112000E7F8029
:100C8A007E257D007C00121FAC7F007EC27D017C28
:100C9A0000121B427FAA1220FF7FAA1220FF438E56
:100CAA00021220125389F0538EF7438901758AA8DC
:100CBA00758C2FD2A9D2AFD28C43B38053B47FA202
:100CCA00AF920075C7AA75C75575910143B1807572
:100CDA00C7AA75C755E4F591A20092AF43E98043CC
:100CEA00EA8053EB7F900152F043B30853B4F7A262
:100CFA00AF920075C7AA75C75575910143B10875BA
:100D0A00C7AA75C755F591A20092AF43E92053EAE5
:100D1A00F743EB0890008404F043B30453B4FBA2F6
:100D2A00AF920075C7AA75C755F59143B10475C747
:100D3A00AA75C755E4F591A20092AF43E91043EAB8
:100D4A000453EBFB90015AF043E901439B02121B47
:100D5A00BC7F231220D2900002E06401703E900111
:100D6A0059E07038900002F09001EDF09000C7E071
:100D7A0070081220127F231220D2121F647F057E70
:100D8A000012000E9000C8E0B4010BE4900083F05A
:100D9A00900149F08006900083E004F0900002E0A0
:100DAA00B40216900159E070109001EDE0700A90BB
:100DBA000002F09001ED7402F09000C8E0703790E4
:100DCA0001EDE06402702F9000C7E0B40128121C04
:100DDA00E67F057E0012000E9000C8E0B401119073
:100DEA0001ED7401F0E4900149F0900083F080066F
:100DFA00900149E004F0900149E0C39402400E904A
:100E0A000083E0940240069000C57401F09000C887
:080E1A00E064016003020F47D0
:100E2200900233F0A3F0A3F0A3F0A3F0A3F0A3F099
:100E3200A3F0D2DF121C2112003E900089E0FEA333
:100E4200E0FF900088E02FFF900087E03EFE9000D8
:100E52008CE02FFF90008BE03EFE90008EE02FFF93
:100E620090008DE03EFE900090E02FFF90008FE01A
:100E72003E900235F0A3EFF0900093E0FEA3E0FF76
:100E8200900092E02FFF900091E03EFE900096E0ED
:100E92002FFF900095E03EFE900098E02FFF90001B
:100EA20097E03EFE90009AE02FFF900099E03E907E
:100EB2000237F0A3EFF090009DE0FEA3E0FF900068
:100EC2009CE02FFF90009BE03EFE9000A0E02FFFF1
:100ED20090009FE03EFE9000A2E02FFF9000A1E074
:100EE2003EFE9000A4E02FFF9000A3E03E90023966
:100EF200F0A3EFF0900087E0FFA3E0900235CFF07F
:100F0200A3EFF09000B3E0FFA3E0900237CFF0A38D
:100F1200EFF09000BBE0FFA3E0900239CFF0A3EF27
:100F2200F0900235E0FEA3E0FF122034A3E0FEA31E
:100F3200E0FF122055A3E0FEA3E0FF122076E4902A
:050F42000150F0A3F0D6
:100F47009000C8E07014FFFE122034E4FFFE122068
:100F570055E4FFFE122076438701D2917F0A7E0077
:100F670012000EC2917F147E0012000E9000C5E0A1
:100F7700B401137F2C7E0112000E9000C5E0B4016E
:100F870005E4F01220B8900232E0B401137F647ECA
:100F97000012000E900232E0B40105E4F01220E3E3
:100FA7009000C8E0B4010A900159E0B4010312208F
:100FB700F39000C8E0701A900159E07014D39001C3
:100FC70051E09408900150E0940040057F01121809
:100FD70013900159E0B4011B9001F1E0B40214D35E
:100FE700900151E094B0900150E0940440057F01D6
:100FF700121813900159E064016003020D6090011B
:10100700F1E064027003020D60D3900151E094B0E7
:10101700900150E094045003020D607F01121813F1
:04102700020D602234
:10000E00E4FDFCC3ED9FEE6480F8EC648098501C18
:10001E00E4FBFAC3EB94D9EA6480948250070BEBAD
:0C002E0070010A80EE0DED70010C80D70F
:01003A0022A3
:101FE500E4FDFCC3ED9FEE6480F8EC648098501C22
:101FF500E4FBFAC3EB9448EA6480948050070BEB4A
:0C20050070010A80EE0DED70010C80D718
:0120110022AC
:101E03009002B9120BD8538EF7438901D28CE4FFA9
:101E1300FEFDFC9002B9E0F8A3E0F9A3E0FAA3E029
:101E2300FBC3120BB46033758A7E758CFF308DFD56
:101E3300C28D9002B9E0FCA3E0FDA3E0FEA3E0FFA6
:101E430074FFEF24FFFFEE34FFFEED34FFFDEC34AF
:0D1E5300FFFC9002B9120BD880B4C28C22A3
:101E60009002BD120BD8538EF7438901D28CE4FF48
:101E7000FEFDFC9002BDE0F8A3E0F9A3E0FAA3E0C8
:101E8000FBC3120BB46033758ACA758CFA308DFDB2
:101E9000C28D9002BDE0FCA3E0FDA3E0FEA3E0FF45
:101EA00074FFEF24FFFFEE34FFFEED34FFFDEC3452
:0D1EB000FFFC9002BD120BD880B4C28C2242
:101EBD009002C1120BD8538EEF438910D28EE4FFDE
:101ECD00FEFDFC9002C1E0F8A3E0F9A3E0FAA3E067
:101EDD00FBC3120BB46033758BEA758DCB308FFD60
:101EED00C28F9002C1E0FCA3E0FDA3E0FEA3E0FFE2
:101EFD0074FFEF24FFFFEE34FFFEED34FFFDEC34F5
:0D1F0D00FFFC9002C1120BD880B4C28E22DE
:101C86009002C5120BD853C9BF53C9DF43C910D23E
:101C9600CAE4FFFEFDFC9002C5E0F8A3E0F9A3E06C
:101CA600FAA3E0FBC3120BB4603375CC3075CDF8E4
:101CB60030CFFDC2CF9002C5E0FCA3E0FDA3E0FE5D
:101CC600A3E0FF74FFEF24FFFFEE34FFFEED34FFC9
:101CD600FDEC34FFFC9002C5120BD880B4C2CA22B8
:101D45009002C9120BD875C40743C408E4FFFEFD11
:101D5500FC9002C9E0F8A3E0F9A3E0FAA3E0FBC315
:101D6500120BB4603675C52C75C6CFE5C430E4FBDF
:101D750053C4EF9002C9E0FCA3E0FDA3E0FEA3E09D
:101D8500FF74FFEF24FFFFEE34FFFEED34FFFDECA3
:0F1D950034FFFC9002C9120BD880B153C4F7225F
:101DA4009002CD120BD875C40743C408E4FFFEFDAE
:101DB400FC9002CDE0F8A3E0F9A3E0FAA3E0FBC3B2
:101DC400120BB4603675C5D875C6FFE5C430E4FBA4
:101DD40053C4EF9002CDE0FCA3E0FDA3E0FEA3E03A
:101DE400FF74FFEF24FFFFEE34FFFEED34FFFDEC44
:0F1DF40034FFFC9002CD120BD880B153C4F722FC
:101FAC0053B1BF53B2BF53B17F53B27F75985043F7
:101FBC008920438780438E1053C4DFAB07AA06A940
:101FCC0005A8047F407E427D0F7C00120B22EF049B
:091FDC00F404F58DD28ED2992295
:1019CF009002D1120BD853B1BF53B2BF53B17F5353
:1019DF00B27F75985043878053C4F843C420900258
:1019EF00D1E0F8A3E0F9A3E0FAA3E0FB7F407E4249
:1019FF007D0F7C00120B22C374FF9FFF74FF9EFEAE
:101A0F00E49DFDE49CFC7808120BC58FC69002D1B3
:101A1F00E0F8A3E0F9A3E0FAA3E0FB7F407E427D6C
:101A2F000F7C00120B22C374FF9FFF74FF9EFEE416
:0F1A3F009DFDE49CFCEFE48FC543C408D29922BF
:070003003098FDAF99C2988F
:01000A0022D3
:0820FF00C2998F993099FD226E
:101B4200900277120BD853B1FB53B2FB53B3BF537E
:101B5200B4BF75F85075C40853C4DF900277E0F83B
:101B6200A3E0F9A3E0FAA3E0FB7F407E427D0F7C75
:101B720000120B22C374FF9FFF74FF9EFEE49DFDC3
:101B8200E49CFC7808120BC58FC6900277E0F8A39C
:101B9200E0F9A3E0FAA3E0FB7F407E427D0F7C00E8
:101BA200120B22C374FF9FFF74FF9EFEE49DFDE4AF
:0A1BB2009CFCEFE48FC543C4082239
:0721070030F8FDAF9AC2F8A9
:01210E0022AE
:08210F00C2F98F9A30F9FD229C
:1020B80075C7AA75C755A2AF9200C2AF75C7AA75F2
:0A20C800C755439F80A20092AF228B
:030000000218B330
:1018B300787FE4F6D8FD9000007FFF7E03E4F0A379
:0A18C300DFFCDEFA7581200219082F
:10080000020A46E86480F8E933E83360110460F0D6
:10081000ED33EC337009E8FCE9FDEAFEEBFF22045E
:1008200060DED3EB9FEA9EE99DE8C2E78CF0C2F759
:1008300095F0400CE8CCF8E9CDF9EACEFAEBCFFB25
:10084000120A1185D0F05804700320D5B3E8047063
:10085000075002B2D5020A5092D5EC0460F7E4CCFE
:10086000C0E0C398F8603B94186008400DD0E0FBEE
:10087000020A28E4FBFAC9FC8028E830E406E4C94F
:10088000FBE4CAFCE830E305E4C9CACBFCE8540742
:100890006010F8C3E913F9EA13FAEB13FBEC13FC4D
:1008A000D8F130F52FC3E49CFCEF9BFFEE9AFEEDF0
:1008B00099FDD0E0FBEF4E4D4C701222DB03020A93
:1008C0004DEC2CFCEF33FFEE33FEED33FDED30E766
:1008D000EB020A28EF2BFFEE3AFEED39FDD0E0FBEC
:1008E00050130BBB0003020A50ED13FDEE13FEEF95
:0808F00013FFEC13FC020A28BF
:1008F800020A50EC5D046005E859047003020A46D8
:10090800120A11580460F6EC4860F2EC7004FDFE1F
:10091800FF22C860DB2481C85009C39860025006D2
:10092800020A4D9850CAF582E9294B4A7005AB82F4
:10093800020A3C75F0007C1A7880C3EF9BEE9AEDB2
:1009480099400DC3EF9BFFEE9AFEED99FDE842F04A
:10095800DC23ACF0D0E0FFD0E0FED0E0FDAB82209D
:10096800E7101BEB60BAEC2CFCEF33FFEE33FEED27
:1009780033FD020A28E803F830E705C0F075F000F7
:10098800EF2FFFEE33FEED33FD40B830E7C280AA0B
:1009980074F8CC6480CCC86480C8F58204604FC306
:1009A800EB9FF5F0EA9E42F0E99D42F0E89C45F0A5
:1009B800603C501DE5825FFFE582D313CB5BCBF42F
:1009C8002B5582FB50280ABA002409B90020088058
:1009D8001DE5825BFBE582D313CF5FCFF4C3132FF2
:1009E8005582FF50090EBE00050DBD00010CC3EB7A
:1009F8009FF5F0EA9E42F0E99D42F0E89C45F060E0
:090A080007CC4820E701B3EC2201
:100A1100E9D2E7C933E833F892D5EDD2E7CD33EC2B
:070A210033FC5002B2D522A4
:100A2800EC30E7100FBF000C0EBE00080DBD00042F
:100A38000BEB6014A2D5EB13FCED92E7FD2274FFDB
:100A4800FCFDFEFF22E480F8A2D574FF13FC7D8034
:030A5800E480EF48
:1018CD00020C6AE493A3F8E493A34003F68001F2BB
:1018DD0008DFF48029E493A3F85407240CC8C3331C
:1018ED00C4540F4420C8834004F456800146F6DFEB
:1018FD00E4800B010204081020408090102BE47E40
:10190D00019360BCA3FF543F30E509541FFEE493DF
:10191D00A360010ECF54C025E060A840B8E493A3A6
:10192D00FAE493A3F8E493A3C8C582C8CAC583CAD1
:10193D00F0A3C8C582C8CAC583CADFE9DEE780BE89
:0111E100000D
:100A5B00BB010CE58229F582E5833AF583E0225050
:100A6B0006E92582F8E622BBFE06E92582F8E2229A
:0D0A7B00E58229F582E5833AF583E49322B4
:100A8800EF8DF0A4A8F0CF8CF0A428CE8DF0A42E82
:020A9800FE223C
:100A9A00C2D5EC30E709B2D5E4C39DFDE49CFCEE77
:100AAA0030E715B2D5E4C39FFFE49EFE120C15C3CE
:100ABA00E49DFDE49CFC8003120C1530D507C3E4C9
:060ACA009FFFE49EFE22E6
:100AD000A3F8E0C5F025F0F0E582158270021583D9
:060AE000E0C838F0E82236
:100AE60075F008758200EF2FFFEE33FECD33CDCCC7
:100AF60033CCC58233C5829BED9AEC99E58298404A
:100B06000CF582EE9BFEED9AFDEC99FC0FD5F0D626
:100B1600E4CEFBE4CDFAE4CCF9A88222B800C1B950
:100B26000059BA002DEC8BF084CFCECDFCE5F0CB8E
:100B3600F97818EF2FFFEE33FEED33FDEC33FCEBC7
:100B460033FB10D703994004EB99FB0FD8E5E4F982
:100B5600FA227818EF2FFFEE33FEED33FDEC33FC6F
:100B6600C933C910D7059BE99A4007EC9BFCE99A63
:100B7600F90FD8E0E4C9FAE4CCFB2275F010EF2FA8
:100B8600FFEE33FEED33FDCC33CCC833C810D707A8
:100B96009BEC9AE899400AED9BFDEC9AFCE899F8E3
:0E0BA6000FD5F0DAE4CDFBE4CCFAE4C8F92276
:100BB400EB9FF5F0EA9E42F0E99D42F0E89C45F097
:010BC400220E
:100BC500E8600FECC313FCED13FDEE13FEEF13FF0E
:030BD500D8F12232
:0C0BD800ECF0A3EDF0A3EEF0A3EFF02290
:100BE400A8828583F0D083D082120BFB120BFB12F8
:100BF4000BFB120BFBE473E493A3C583C5F0C5831D
:100C0400C8C582C8F0A3C583C5F0C583C8C582C85A
:010C140022BD
:100C1500BC000BBE0029EF8DF084FFADF022E4CCC3
:100C2500F875F008EF2FFFEE33FEEC33FCEE9DEC8C
:100C3500984005FCEE9DFE0FD5F0E9E4CEFD22EDD2
:100C4500F8F5F0EE8420D21CFEADF075F008EF2F1C
:100C5500FFED33FD4007985006D5F0F222C398FD0D
:050C65000FD5F0EA22AA
:00000001FF
